{
  "contractName": "CoachRegistry",
  "abi": [
    {
      "anonymous": false,
      "inputs": [
        {
          "indexed": true,
          "internalType": "address",
          "name": "judoka",
          "type": "address"
        },
        {
          "indexed": false,
          "internalType": "string",
          "name": "name",
          "type": "string"
        },
        {
          "indexed": false,
          "internalType": "address",
          "name": "coachAddress",
          "type": "address"
        },
        {
          "indexed": false,
          "internalType": "string",
          "name": "status",
          "type": "string"
        }
      ],
      "name": "CoachAdded",
      "type": "event"
    },
    {
      "inputs": [
        {
          "internalType": "address",
          "name": "coachAddress",
          "type": "address"
        },
        {
          "internalType": "string",
          "name": "name",
          "type": "string"
        }
      ],
      "name": "addCoach",
      "outputs": [],
      "stateMutability": "nonpayable",
      "type": "function"
    },
    {
      "inputs": [
        {
          "internalType": "address",
          "name": "judoka",
          "type": "address"
        }
      ],
      "name": "getCoaches",
      "outputs": [
        {
          "components": [
            {
              "internalType": "string",
              "name": "name",
              "type": "string"
            },
            {
              "internalType": "address",
              "name": "coachAddress",
              "type": "address"
            },
            {
              "internalType": "string",
              "name": "status",
              "type": "string"
            }
          ],
          "internalType": "struct CoachRegistry.Coach[]",
          "name": "",
          "type": "tuple[]"
        }
      ],
      "stateMutability": "view",
      "type": "function",
      "constant": true
    },
    {
      "inputs": [
        {
          "internalType": "address",
          "name": "judoka",
          "type": "address"
        },
        {
          "internalType": "uint256",
          "name": "index",
          "type": "uint256"
        },
        {
          "internalType": "string",
          "name": "status",
          "type": "string"
        }
      ],
      "name": "updateCoachStatus",
      "outputs": [],
      "stateMutability": "nonpayable",
      "type": "function"
    }
  ],
  "bytecode": "0x608060405234801561001057600080fd5b50610cc8806100206000396000f3fe608060405234801561001057600080fd5b50600436106100415760003560e01c80632618a50a146100465780635d6c58e414610062578063b435782f1461007e575b600080fd5b610060600480360381019061005b919061074e565b6100ae565b005b61007c600480360381019061007791906107a2565b6102b5565b005b61009860048036038101906100939190610725565b6103d9565b6040516100a591906109f9565b60405180910390f35b6000803373ffffffffffffffffffffffffffffffffffffffff1673ffffffffffffffffffffffffffffffffffffffff16815260200190815260200160002060405180606001604052808381526020018473ffffffffffffffffffffffffffffffffffffffff1681526020016040518060400160405280600781526020017f50656e64696e6700000000000000000000000000000000000000000000000000815250815250908060018154018082558091505060019003906000526020600020906003020160009091909190915060008201518160000190805190602001906101979291906105f0565b5060208201518160010160006101000a81548173ffffffffffffffffffffffffffffffffffffffff021916908373ffffffffffffffffffffffffffffffffffffffff16021790555060408201518160020190805190602001906101fb9291906105f0565b5050506001829080600181540180825580915050600190039060005260206000200160009091909190916101000a81548173ffffffffffffffffffffffffffffffffffffffff021916908373ffffffffffffffffffffffffffffffffffffffff1602179055503373ffffffffffffffffffffffffffffffffffffffff167fe01744482a0b1661e43adab690c768151f3764175afe313bdd066d3d74d1e0ba82846040516102a9929190610a1b565b60405180910390a25050565b6000808473ffffffffffffffffffffffffffffffffffffffff1673ffffffffffffffffffffffffffffffffffffffff168152602001908152602001600020805490508210610338576040517f08c379a000000000000000000000000000000000000000000000000000000000815260040161032f90610a5e565b60405180910390fd5b806000808573ffffffffffffffffffffffffffffffffffffffff1673ffffffffffffffffffffffffffffffffffffffff16815260200190815260200160002083815481106103af577f4e487b7100000000000000000000000000000000000000000000000000000000600052603260045260246000fd5b906000526020600020906003020160020190805190602001906103d39291906105f0565b50505050565b60606000808373ffffffffffffffffffffffffffffffffffffffff1673ffffffffffffffffffffffffffffffffffffffff168152602001908152602001600020805480602002602001604051908101604052809291908181526020016000905b828210156105e5578382906000526020600020906003020160405180606001604052908160008201805461046c90610bc3565b80601f016020809104026020016040519081016040528092919081815260200182805461049890610bc3565b80156104e55780601f106104ba576101008083540402835291602001916104e5565b820191906000526020600020905b8154815290600101906020018083116104c857829003601f168201915b505050505081526020016001820160009054906101000a900473ffffffffffffffffffffffffffffffffffffffff1673ffffffffffffffffffffffffffffffffffffffff1673ffffffffffffffffffffffffffffffffffffffff16815260200160028201805461055490610bc3565b80601f016020809104026020016040519081016040528092919081815260200182805461058090610bc3565b80156105cd5780601f106105a2576101008083540402835291602001916105cd565b820191906000526020600020905b8154815290600101906020018083116105b057829003601f168201915b50505050508152505081526020019060010190610439565b505050509050919050565b8280546105fc90610bc3565b90600052602060002090601f01602090048101928261061e5760008555610665565b82601f1061063757805160ff1916838001178555610665565b82800160010185558215610665579182015b82811115610664578251825591602001919060010190610649565b5b5090506106729190610676565b5090565b5b8082111561068f576000816000905550600101610677565b5090565b60006106a66106a184610aaf565b610a7e565b9050828152602081018484840111156106be57600080fd5b6106c9848285610b81565b509392505050565b6000813590506106e081610c64565b92915050565b600082601f8301126106f757600080fd5b8135610707848260208601610693565b91505092915050565b60008135905061071f81610c7b565b92915050565b60006020828403121561073757600080fd5b6000610745848285016106d1565b91505092915050565b6000806040838503121561076157600080fd5b600061076f858286016106d1565b925050602083013567ffffffffffffffff81111561078c57600080fd5b610798858286016106e6565b9150509250929050565b6000806000606084860312156107b757600080fd5b60006107c5868287016106d1565b93505060206107d686828701610710565b925050604084013567ffffffffffffffff8111156107f357600080fd5b6107ff868287016106e6565b9150509250925092565b600061081583836109a2565b905092915050565b61082681610b45565b82525050565b61083581610b45565b82525050565b600061084682610aef565b6108508185610b12565b93508360208202850161086285610adf565b8060005b8581101561089e578484038952815161087f8582610809565b945061088a83610b05565b925060208a01995050600181019050610866565b50829750879550505050505092915050565b60006108bb82610afa565b6108c58185610b23565b93506108d5818560208601610b90565b6108de81610c53565b840191505092915050565b60006108f482610afa565b6108fe8185610b34565b935061090e818560208601610b90565b61091781610c53565b840191505092915050565b600061092f600d83610b34565b91507f496e76616c696420696e646578000000000000000000000000000000000000006000830152602082019050919050565b600061096f600783610b34565b91507f50656e64696e67000000000000000000000000000000000000000000000000006000830152602082019050919050565b600060608301600083015184820360008601526109bf82826108b0565b91505060208301516109d4602086018261081d565b50604083015184820360408601526109ec82826108b0565b9150508091505092915050565b60006020820190508181036000830152610a13818461083b565b905092915050565b60006060820190508181036000830152610a3581856108e9565b9050610a44602083018461082c565b8181036040830152610a5581610962565b90509392505050565b60006020820190508181036000830152610a7781610922565b9050919050565b6000604051905081810181811067ffffffffffffffff82111715610aa557610aa4610c24565b5b8060405250919050565b600067ffffffffffffffff821115610aca57610ac9610c24565b5b601f19601f8301169050602081019050919050565b6000819050602082019050919050565b600081519050919050565b600081519050919050565b6000602082019050919050565b600082825260208201905092915050565b600082825260208201905092915050565b600082825260208201905092915050565b6000610b5082610b57565b9050919050565b600073ffffffffffffffffffffffffffffffffffffffff82169050919050565b6000819050919050565b82818337600083830152505050565b60005b83811015610bae578082015181840152602081019050610b93565b83811115610bbd576000848401525b50505050565b60006002820490506001821680610bdb57607f821691505b60208210811415610bef57610bee610bf5565b5b50919050565b7f4e487b7100000000000000000000000000000000000000000000000000000000600052602260045260246000fd5b7f4e487b7100000000000000000000000000000000000000000000000000000000600052604160045260246000fd5b6000601f19601f8301169050919050565b610c6d81610b45565b8114610c7857600080fd5b50565b610c8481610b77565b8114610c8f57600080fd5b5056fea264697066735822122030916acdc5b8afb5a1f391223355a7320326eedab25ad4e14d52ca7b170cbe6164736f6c63430008000033",
  "immutableReferences": {},
  "source": "// SPDX-License-Identifier: MIT\r\npragma solidity ^0.8.0;\r\n\r\ncontract CoachRegistry {\r\n    struct Coach {\r\n        string name;\r\n        address coachAddress;\r\n        string status;\r\n    }\r\n\r\n    mapping(address => Coach[]) private coaches;\r\n    address[] private coachAddresses;\r\n\r\n    event CoachAdded(address indexed judoka, string name, address coachAddress, string status);\r\n\r\n    function addCoach(address coachAddress, string memory name) public {\r\n        coaches[msg.sender].push(Coach({\r\n            name: name,\r\n            coachAddress: coachAddress,\r\n            status: \"Pending\"\r\n        }));\r\n        coachAddresses.push(coachAddress);\r\n        emit CoachAdded(msg.sender, name, coachAddress, \"Pending\");\r\n    }\r\n\r\n    function getCoaches(address judoka) public view returns (Coach[] memory) {\r\n        return coaches[judoka];\r\n    }\r\n\r\n    function updateCoachStatus(address judoka, uint index, string memory status) public {\r\n        require(index < coaches[judoka].length, \"Invalid index\");\r\n        coaches[judoka][index].status = status;\r\n    }\r\n}\r\n",
  "sourcePath": "C:\\Users\\marti\\Documents\\projects\\judo-chain\\contracts\\CoachRegistry.sol",
  "compiler": {
    "name": "solc",
    "version": "0.8.0+commit.c7dfd78e.Emscripten.clang"
  },
  "schemaVersion": "3.4.16",
  "updatedAt": "2024-07-05T10:31:15.590Z",
  "networkType": "ethereum",
  "devdoc": {
    "kind": "dev",
    "methods": {},
    "version": 1
  },
  "userdoc": {
    "kind": "user",
    "methods": {},
    "version": 1
  }
}