{
  "contractName": "CompetitionRecords",
  "abi": [
    {
      "inputs": [
        {
          "internalType": "address",
          "name": "",
          "type": "address"
        },
        {
          "internalType": "uint256",
          "name": "",
          "type": "uint256"
        }
      ],
      "name": "matches",
      "outputs": [
        {
          "internalType": "string",
          "name": "eventName",
          "type": "string"
        },
        {
          "internalType": "string",
          "name": "location",
          "type": "string"
        },
        {
          "internalType": "string",
          "name": "division",
          "type": "string"
        },
        {
          "internalType": "string",
          "name": "opponent",
          "type": "string"
        },
        {
          "internalType": "string",
          "name": "result",
          "type": "string"
        },
        {
          "internalType": "string",
          "name": "method",
          "type": "string"
        },
        {
          "internalType": "string",
          "name": "youtubeId",
          "type": "string"
        },
        {
          "internalType": "string",
          "name": "date",
          "type": "string"
        }
      ],
      "stateMutability": "view",
      "type": "function",
      "constant": true
    },
    {
      "inputs": [
        {
          "internalType": "address",
          "name": "",
          "type": "address"
        },
        {
          "internalType": "uint256",
          "name": "",
          "type": "uint256"
        }
      ],
      "name": "medals",
      "outputs": [
        {
          "internalType": "string",
          "name": "eventName",
          "type": "string"
        },
        {
          "internalType": "string",
          "name": "location",
          "type": "string"
        },
        {
          "internalType": "string",
          "name": "division",
          "type": "string"
        },
        {
          "internalType": "string",
          "name": "result",
          "type": "string"
        },
        {
          "internalType": "string",
          "name": "date",
          "type": "string"
        },
        {
          "internalType": "string",
          "name": "imageUrl",
          "type": "string"
        }
      ],
      "stateMutability": "view",
      "type": "function",
      "constant": true
    },
    {
      "inputs": [
        {
          "internalType": "string",
          "name": "eventName",
          "type": "string"
        },
        {
          "internalType": "string",
          "name": "location",
          "type": "string"
        },
        {
          "internalType": "string",
          "name": "division",
          "type": "string"
        },
        {
          "internalType": "string",
          "name": "result",
          "type": "string"
        },
        {
          "internalType": "string",
          "name": "date",
          "type": "string"
        },
        {
          "internalType": "string",
          "name": "imageUrl",
          "type": "string"
        }
      ],
      "name": "addMedal",
      "outputs": [],
      "stateMutability": "nonpayable",
      "type": "function"
    },
    {
      "inputs": [
        {
          "internalType": "string",
          "name": "eventName",
          "type": "string"
        },
        {
          "internalType": "string",
          "name": "location",
          "type": "string"
        },
        {
          "internalType": "string",
          "name": "division",
          "type": "string"
        },
        {
          "internalType": "string",
          "name": "opponent",
          "type": "string"
        },
        {
          "internalType": "string",
          "name": "result",
          "type": "string"
        },
        {
          "internalType": "string",
          "name": "method",
          "type": "string"
        },
        {
          "internalType": "string",
          "name": "youtubeId",
          "type": "string"
        },
        {
          "internalType": "string",
          "name": "date",
          "type": "string"
        }
      ],
      "name": "addMatch",
      "outputs": [],
      "stateMutability": "nonpayable",
      "type": "function"
    },
    {
      "inputs": [
        {
          "internalType": "address",
          "name": "user",
          "type": "address"
        }
      ],
      "name": "getMedals",
      "outputs": [
        {
          "components": [
            {
              "internalType": "string",
              "name": "eventName",
              "type": "string"
            },
            {
              "internalType": "string",
              "name": "location",
              "type": "string"
            },
            {
              "internalType": "string",
              "name": "division",
              "type": "string"
            },
            {
              "internalType": "string",
              "name": "result",
              "type": "string"
            },
            {
              "internalType": "string",
              "name": "date",
              "type": "string"
            },
            {
              "internalType": "string",
              "name": "imageUrl",
              "type": "string"
            }
          ],
          "internalType": "struct CompetitionRecords.Medal[]",
          "name": "",
          "type": "tuple[]"
        }
      ],
      "stateMutability": "view",
      "type": "function",
      "constant": true
    },
    {
      "inputs": [
        {
          "internalType": "address",
          "name": "user",
          "type": "address"
        }
      ],
      "name": "getMatches",
      "outputs": [
        {
          "components": [
            {
              "internalType": "string",
              "name": "eventName",
              "type": "string"
            },
            {
              "internalType": "string",
              "name": "location",
              "type": "string"
            },
            {
              "internalType": "string",
              "name": "division",
              "type": "string"
            },
            {
              "internalType": "string",
              "name": "opponent",
              "type": "string"
            },
            {
              "internalType": "string",
              "name": "result",
              "type": "string"
            },
            {
              "internalType": "string",
              "name": "method",
              "type": "string"
            },
            {
              "internalType": "string",
              "name": "youtubeId",
              "type": "string"
            },
            {
              "internalType": "string",
              "name": "date",
              "type": "string"
            }
          ],
          "internalType": "struct CompetitionRecords.Match[]",
          "name": "",
          "type": "tuple[]"
        }
      ],
      "stateMutability": "view",
      "type": "function",
      "constant": true
    }
  ],
  "bytecode": "0x608060405234801561001057600080fd5b506120f1806100206000396000f3fe608060405234801561001057600080fd5b50600436106100625760003560e01c80631a9802e9146100675780632c057c941461009e57806377795778146100ba57806393ad17db146100ea5780639bdf0ca91461011f578063d82790b91461013b575b600080fd5b610081600480360381019061007c9190611711565b61016b565b604051610095989796959493929190611db8565b60405180910390f35b6100b860048036038101906100b3919061174d565b610610565b005b6100d460048036038101906100cf91906116e8565b61075c565b6040516100e19190611ce9565b60405180910390f35b61010460048036038101906100ff9190611711565b610c8b565b60405161011696959493929190611d2d565b60405180910390f35b61013960048036038101906101349190611866565b611014565b005b610155600480360381019061015091906116e8565b6111aa565b6040516101629190611d0b565b60405180910390f35b6001602052816000526040600020818154811061018757600080fd5b9060005260206000209060080201600091509150508060000180546101ab90611fec565b80601f01602080910402602001604051908101604052809291908181526020018280546101d790611fec565b80156102245780601f106101f957610100808354040283529160200191610224565b820191906000526020600020905b81548152906001019060200180831161020757829003601f168201915b50505050509080600101805461023990611fec565b80601f016020809104026020016040519081016040528092919081815260200182805461026590611fec565b80156102b25780601f10610287576101008083540402835291602001916102b2565b820191906000526020600020905b81548152906001019060200180831161029557829003601f168201915b5050505050908060020180546102c790611fec565b80601f01602080910402602001604051908101604052809291908181526020018280546102f390611fec565b80156103405780601f1061031557610100808354040283529160200191610340565b820191906000526020600020905b81548152906001019060200180831161032357829003601f168201915b50505050509080600301805461035590611fec565b80601f016020809104026020016040519081016040528092919081815260200182805461038190611fec565b80156103ce5780601f106103a3576101008083540402835291602001916103ce565b820191906000526020600020905b8154815290600101906020018083116103b157829003601f168201915b5050505050908060040180546103e390611fec565b80601f016020809104026020016040519081016040528092919081815260200182805461040f90611fec565b801561045c5780601f106104315761010080835404028352916020019161045c565b820191906000526020600020905b81548152906001019060200180831161043f57829003601f168201915b50505050509080600501805461047190611fec565b80601f016020809104026020016040519081016040528092919081815260200182805461049d90611fec565b80156104ea5780601f106104bf576101008083540402835291602001916104ea565b820191906000526020600020905b8154815290600101906020018083116104cd57829003601f168201915b5050505050908060060180546104ff90611fec565b80601f016020809104026020016040519081016040528092919081815260200182805461052b90611fec565b80156105785780601f1061054d57610100808354040283529160200191610578565b820191906000526020600020905b81548152906001019060200180831161055b57829003601f168201915b50505050509080600701805461058d90611fec565b80601f01602080910402602001604051908101604052809291908181526020018280546105b990611fec565b80156106065780601f106105db57610100808354040283529160200191610606565b820191906000526020600020905b8154815290600101906020018083116105e957829003601f168201915b5050505050905088565b6000803373ffffffffffffffffffffffffffffffffffffffff1673ffffffffffffffffffffffffffffffffffffffff1681526020019081526020016000206040518060c0016040528088815260200187815260200186815260200185815260200184815260200183815250908060018154018082558091505060019003906000526020600020906006020160009091909190915060008201518160000190805190602001906106c09291906115b3565b5060208201518160010190805190602001906106dd9291906115b3565b5060408201518160020190805190602001906106fa9291906115b3565b5060608201518160030190805190602001906107179291906115b3565b5060808201518160040190805190602001906107349291906115b3565b5060a08201518160050190805190602001906107519291906115b3565b505050505050505050565b6060600160008373ffffffffffffffffffffffffffffffffffffffff1673ffffffffffffffffffffffffffffffffffffffff168152602001908152602001600020805480602002602001604051908101604052809291908181526020016000905b82821015610c805783829060005260206000209060080201604051806101000160405290816000820180546107f190611fec565b80601f016020809104026020016040519081016040528092919081815260200182805461081d90611fec565b801561086a5780601f1061083f5761010080835404028352916020019161086a565b820191906000526020600020905b81548152906001019060200180831161084d57829003601f168201915b5050505050815260200160018201805461088390611fec565b80601f01602080910402602001604051908101604052809291908181526020018280546108af90611fec565b80156108fc5780601f106108d1576101008083540402835291602001916108fc565b820191906000526020600020905b8154815290600101906020018083116108df57829003601f168201915b5050505050815260200160028201805461091590611fec565b80601f016020809104026020016040519081016040528092919081815260200182805461094190611fec565b801561098e5780601f106109635761010080835404028352916020019161098e565b820191906000526020600020905b81548152906001019060200180831161097157829003601f168201915b505050505081526020016003820180546109a790611fec565b80601f01602080910402602001604051908101604052809291908181526020018280546109d390611fec565b8015610a205780601f106109f557610100808354040283529160200191610a20565b820191906000526020600020905b815481529060010190602001808311610a0357829003601f168201915b50505050508152602001600482018054610a3990611fec565b80601f0160208091040260200160405190810160405280929190818152602001828054610a6590611fec565b8015610ab25780601f10610a8757610100808354040283529160200191610ab2565b820191906000526020600020905b815481529060010190602001808311610a9557829003601f168201915b50505050508152602001600582018054610acb90611fec565b80601f0160208091040260200160405190810160405280929190818152602001828054610af790611fec565b8015610b445780601f10610b1957610100808354040283529160200191610b44565b820191906000526020600020905b815481529060010190602001808311610b2757829003601f168201915b50505050508152602001600682018054610b5d90611fec565b80601f0160208091040260200160405190810160405280929190818152602001828054610b8990611fec565b8015610bd65780601f10610bab57610100808354040283529160200191610bd6565b820191906000526020600020905b815481529060010190602001808311610bb957829003601f168201915b50505050508152602001600782018054610bef90611fec565b80601f0160208091040260200160405190810160405280929190818152602001828054610c1b90611fec565b8015610c685780601f10610c3d57610100808354040283529160200191610c68565b820191906000526020600020905b815481529060010190602001808311610c4b57829003601f168201915b505050505081525050815260200190600101906107bd565b505050509050919050565b60006020528160005260406000208181548110610ca757600080fd5b906000526020600020906006020160009150915050806000018054610ccb90611fec565b80601f0160208091040260200160405190810160405280929190818152602001828054610cf790611fec565b8015610d445780601f10610d1957610100808354040283529160200191610d44565b820191906000526020600020905b815481529060010190602001808311610d2757829003601f168201915b505050505090806001018054610d5990611fec565b80601f0160208091040260200160405190810160405280929190818152602001828054610d8590611fec565b8015610dd25780601f10610da757610100808354040283529160200191610dd2565b820191906000526020600020905b815481529060010190602001808311610db557829003601f168201915b505050505090806002018054610de790611fec565b80601f0160208091040260200160405190810160405280929190818152602001828054610e1390611fec565b8015610e605780601f10610e3557610100808354040283529160200191610e60565b820191906000526020600020905b815481529060010190602001808311610e4357829003601f168201915b505050505090806003018054610e7590611fec565b80601f0160208091040260200160405190810160405280929190818152602001828054610ea190611fec565b8015610eee5780601f10610ec357610100808354040283529160200191610eee565b820191906000526020600020905b815481529060010190602001808311610ed157829003601f168201915b505050505090806004018054610f0390611fec565b80601f0160208091040260200160405190810160405280929190818152602001828054610f2f90611fec565b8015610f7c5780601f10610f5157610100808354040283529160200191610f7c565b820191906000526020600020905b815481529060010190602001808311610f5f57829003601f168201915b505050505090806005018054610f9190611fec565b80601f0160208091040260200160405190810160405280929190818152602001828054610fbd90611fec565b801561100a5780601f10610fdf5761010080835404028352916020019161100a565b820191906000526020600020905b815481529060010190602001808311610fed57829003601f168201915b5050505050905086565b600160003373ffffffffffffffffffffffffffffffffffffffff1673ffffffffffffffffffffffffffffffffffffffff1681526020019081526020016000206040518061010001604052808a815260200189815260200188815260200187815260200186815260200185815260200184815260200183815250908060018154018082558091505060019003906000526020600020906008020160009091909190915060008201518160000190805190602001906110d29291906115b3565b5060208201518160010190805190602001906110ef9291906115b3565b50604082015181600201908051906020019061110c9291906115b3565b5060608201518160030190805190602001906111299291906115b3565b5060808201518160040190805190602001906111469291906115b3565b5060a08201518160050190805190602001906111639291906115b3565b5060c08201518160060190805190602001906111809291906115b3565b5060e082015181600701908051906020019061119d9291906115b3565b5050505050505050505050565b60606000808373ffffffffffffffffffffffffffffffffffffffff1673ffffffffffffffffffffffffffffffffffffffff168152602001908152602001600020805480602002602001604051908101604052809291908181526020016000905b828210156115a857838290600052602060002090600602016040518060c001604052908160008201805461123d90611fec565b80601f016020809104026020016040519081016040528092919081815260200182805461126990611fec565b80156112b65780601f1061128b576101008083540402835291602001916112b6565b820191906000526020600020905b81548152906001019060200180831161129957829003601f168201915b505050505081526020016001820180546112cf90611fec565b80601f01602080910402602001604051908101604052809291908181526020018280546112fb90611fec565b80156113485780601f1061131d57610100808354040283529160200191611348565b820191906000526020600020905b81548152906001019060200180831161132b57829003601f168201915b5050505050815260200160028201805461136190611fec565b80601f016020809104026020016040519081016040528092919081815260200182805461138d90611fec565b80156113da5780601f106113af576101008083540402835291602001916113da565b820191906000526020600020905b8154815290600101906020018083116113bd57829003601f168201915b505050505081526020016003820180546113f390611fec565b80601f016020809104026020016040519081016040528092919081815260200182805461141f90611fec565b801561146c5780601f106114415761010080835404028352916020019161146c565b820191906000526020600020905b81548152906001019060200180831161144f57829003601f168201915b5050505050815260200160048201805461148590611fec565b80601f01602080910402602001604051908101604052809291908181526020018280546114b190611fec565b80156114fe5780601f106114d3576101008083540402835291602001916114fe565b820191906000526020600020905b8154815290600101906020018083116114e157829003601f168201915b5050505050815260200160058201805461151790611fec565b80601f016020809104026020016040519081016040528092919081815260200182805461154390611fec565b80156115905780601f1061156557610100808354040283529160200191611590565b820191906000526020600020905b81548152906001019060200180831161157357829003601f168201915b5050505050815250508152602001906001019061120a565b505050509050919050565b8280546115bf90611fec565b90600052602060002090601f0160209004810192826115e15760008555611628565b82601f106115fa57805160ff1916838001178555611628565b82800160010185558215611628579182015b8281111561162757825182559160200191906001019061160c565b5b5090506116359190611639565b5090565b5b8082111561165257600081600090555060010161163a565b5090565b600061166961166484611e9f565b611e6e565b90508281526020810184848401111561168157600080fd5b61168c848285611faa565b509392505050565b6000813590506116a38161208d565b92915050565b600082601f8301126116ba57600080fd5b81356116ca848260208601611656565b91505092915050565b6000813590506116e2816120a4565b92915050565b6000602082840312156116fa57600080fd5b600061170884828501611694565b91505092915050565b6000806040838503121561172457600080fd5b600061173285828601611694565b9250506020611743858286016116d3565b9150509250929050565b60008060008060008060c0878903121561176657600080fd5b600087013567ffffffffffffffff81111561178057600080fd5b61178c89828a016116a9565b965050602087013567ffffffffffffffff8111156117a957600080fd5b6117b589828a016116a9565b955050604087013567ffffffffffffffff8111156117d257600080fd5b6117de89828a016116a9565b945050606087013567ffffffffffffffff8111156117fb57600080fd5b61180789828a016116a9565b935050608087013567ffffffffffffffff81111561182457600080fd5b61183089828a016116a9565b92505060a087013567ffffffffffffffff81111561184d57600080fd5b61185989828a016116a9565b9150509295509295509295565b600080600080600080600080610100898b03121561188357600080fd5b600089013567ffffffffffffffff81111561189d57600080fd5b6118a98b828c016116a9565b985050602089013567ffffffffffffffff8111156118c657600080fd5b6118d28b828c016116a9565b975050604089013567ffffffffffffffff8111156118ef57600080fd5b6118fb8b828c016116a9565b965050606089013567ffffffffffffffff81111561191857600080fd5b6119248b828c016116a9565b955050608089013567ffffffffffffffff81111561194157600080fd5b61194d8b828c016116a9565b94505060a089013567ffffffffffffffff81111561196a57600080fd5b6119768b828c016116a9565b93505060c089013567ffffffffffffffff81111561199357600080fd5b61199f8b828c016116a9565b92505060e089013567ffffffffffffffff8111156119bc57600080fd5b6119c88b828c016116a9565b9150509295985092959890939650565b60006119e48383611b5c565b905092915050565b60006119f88383611c3d565b905092915050565b6000611a0b82611eef565b611a158185611f2a565b935083602082028501611a2785611ecf565b8060005b85811015611a635784840389528151611a4485826119d8565b9450611a4f83611f10565b925060208a01995050600181019050611a2b565b50829750879550505050505092915050565b6000611a8082611efa565b611a8a8185611f3b565b935083602082028501611a9c85611edf565b8060005b85811015611ad85784840389528151611ab985826119ec565b9450611ac483611f1d565b925060208a01995050600181019050611aa0565b50829750879550505050505092915050565b6000611af582611f05565b611aff8185611f4c565b9350611b0f818560208601611fb9565b611b188161207c565b840191505092915050565b6000611b2e82611f05565b611b388185611f5d565b9350611b48818560208601611fb9565b611b518161207c565b840191505092915050565b6000610100830160008301518482036000860152611b7a8282611aea565b91505060208301518482036020860152611b948282611aea565b91505060408301518482036040860152611bae8282611aea565b91505060608301518482036060860152611bc88282611aea565b91505060808301518482036080860152611be28282611aea565b91505060a083015184820360a0860152611bfc8282611aea565b91505060c083015184820360c0860152611c168282611aea565b91505060e083015184820360e0860152611c308282611aea565b9150508091505092915050565b600060c0830160008301518482036000860152611c5a8282611aea565b91505060208301518482036020860152611c748282611aea565b91505060408301518482036040860152611c8e8282611aea565b91505060608301518482036060860152611ca88282611aea565b91505060808301518482036080860152611cc28282611aea565b91505060a083015184820360a0860152611cdc8282611aea565b9150508091505092915050565b60006020820190508181036000830152611d038184611a00565b905092915050565b60006020820190508181036000830152611d258184611a75565b905092915050565b600060c0820190508181036000830152611d478189611b23565b90508181036020830152611d5b8188611b23565b90508181036040830152611d6f8187611b23565b90508181036060830152611d838186611b23565b90508181036080830152611d978185611b23565b905081810360a0830152611dab8184611b23565b9050979650505050505050565b6000610100820190508181036000830152611dd3818b611b23565b90508181036020830152611de7818a611b23565b90508181036040830152611dfb8189611b23565b90508181036060830152611e0f8188611b23565b90508181036080830152611e238187611b23565b905081810360a0830152611e378186611b23565b905081810360c0830152611e4b8185611b23565b905081810360e0830152611e5f8184611b23565b90509998505050505050505050565b6000604051905081810181811067ffffffffffffffff82111715611e9557611e9461204d565b5b8060405250919050565b600067ffffffffffffffff821115611eba57611eb961204d565b5b601f19601f8301169050602081019050919050565b6000819050602082019050919050565b6000819050602082019050919050565b600081519050919050565b600081519050919050565b600081519050919050565b6000602082019050919050565b6000602082019050919050565b600082825260208201905092915050565b600082825260208201905092915050565b600082825260208201905092915050565b600082825260208201905092915050565b6000611f7982611f80565b9050919050565b600073ffffffffffffffffffffffffffffffffffffffff82169050919050565b6000819050919050565b82818337600083830152505050565b60005b83811015611fd7578082015181840152602081019050611fbc565b83811115611fe6576000848401525b50505050565b6000600282049050600182168061200457607f821691505b602082108114156120185761201761201e565b5b50919050565b7f4e487b7100000000000000000000000000000000000000000000000000000000600052602260045260246000fd5b7f4e487b7100000000000000000000000000000000000000000000000000000000600052604160045260246000fd5b6000601f19601f8301169050919050565b61209681611f6e565b81146120a157600080fd5b50565b6120ad81611fa0565b81146120b857600080fd5b5056fea2646970667358221220a9a38133626c65a1990ec718aab94473df68ca03bdd785c1702e06c1a19e0fba64736f6c63430008000033",
  "immutableReferences": {},
  "source": "// SPDX-License-Identifier: MIT\r\npragma solidity ^0.8.0;\r\n\r\ncontract CompetitionRecords {\r\n    struct Medal {\r\n        string eventName;\r\n        string location;\r\n        string division;\r\n        string result;\r\n        string date;\r\n        string imageUrl;\r\n    }\r\n\r\n    struct Match {\r\n        string eventName;\r\n        string location;\r\n        string division;\r\n        string opponent;\r\n        string result;\r\n        string method;\r\n        string youtubeId;\r\n        string date;\r\n    }\r\n\r\n    mapping(address => Medal[]) public medals;\r\n    mapping(address => Match[]) public matches;\r\n\r\n    function addMedal(\r\n        string memory eventName,\r\n        string memory location,\r\n        string memory division,\r\n        string memory result,\r\n        string memory date,\r\n        string memory imageUrl\r\n    ) public {\r\n        medals[msg.sender].push(Medal({\r\n            eventName: eventName,\r\n            location: location,\r\n            division: division,\r\n            result: result,\r\n            date: date,\r\n            imageUrl: imageUrl\r\n        }));\r\n    }\r\n\r\n    function addMatch(\r\n        string memory eventName,\r\n        string memory location,\r\n        string memory division,\r\n        string memory opponent,\r\n        string memory result,\r\n        string memory method,\r\n        string memory youtubeId,\r\n        string memory date\r\n    ) public {\r\n        matches[msg.sender].push(Match({\r\n            eventName: eventName,\r\n            location: location,\r\n            division: division,\r\n            opponent: opponent,\r\n            result: result,\r\n            method: method,\r\n            youtubeId: youtubeId,\r\n            date: date\r\n        }));\r\n    }\r\n\r\n    function getMedals(address user) public view returns (Medal[] memory) {\r\n        return medals[user];\r\n    }\r\n\r\n    function getMatches(address user) public view returns (Match[] memory) {\r\n        return matches[user];\r\n    }\r\n}\r\n",
  "sourcePath": "C:\\Users\\marti\\Documents\\projects\\judo-chain\\contracts\\CompetitionRecords.sol",
  "compiler": {
    "name": "solc",
    "version": "0.8.0+commit.c7dfd78e.Emscripten.clang"
  },
  "schemaVersion": "3.4.16",
  "updatedAt": "2024-07-05T10:31:15.564Z",
  "networkType": "ethereum",
  "devdoc": {
    "kind": "dev",
    "methods": {},
    "version": 1
  },
  "userdoc": {
    "kind": "user",
    "methods": {},
    "version": 1
  }
}