{
  "contractName": "ContentManagement",
  "abi": [
    {
      "inputs": [
        {
          "internalType": "address",
          "name": "",
          "type": "address"
        },
        {
          "internalType": "uint256",
          "name": "",
          "type": "uint256"
        }
      ],
      "name": "instructionalVideos",
      "outputs": [
        {
          "internalType": "string",
          "name": "title",
          "type": "string"
        },
        {
          "internalType": "string",
          "name": "youtubeLink",
          "type": "string"
        },
        {
          "internalType": "string",
          "name": "category",
          "type": "string"
        }
      ],
      "stateMutability": "view",
      "type": "function",
      "constant": true
    },
    {
      "inputs": [
        {
          "internalType": "address",
          "name": "",
          "type": "address"
        },
        {
          "internalType": "uint256",
          "name": "",
          "type": "uint256"
        }
      ],
      "name": "links",
      "outputs": [
        {
          "internalType": "string",
          "name": "text",
          "type": "string"
        },
        {
          "internalType": "string",
          "name": "url",
          "type": "string"
        }
      ],
      "stateMutability": "view",
      "type": "function",
      "constant": true
    },
    {
      "inputs": [
        {
          "internalType": "address",
          "name": "",
          "type": "address"
        },
        {
          "internalType": "uint256",
          "name": "",
          "type": "uint256"
        }
      ],
      "name": "seminars",
      "outputs": [
        {
          "internalType": "string",
          "name": "seminarName",
          "type": "string"
        },
        {
          "internalType": "string",
          "name": "location",
          "type": "string"
        },
        {
          "internalType": "string",
          "name": "date",
          "type": "string"
        },
        {
          "internalType": "string",
          "name": "imageUrl",
          "type": "string"
        }
      ],
      "stateMutability": "view",
      "type": "function",
      "constant": true
    },
    {
      "inputs": [
        {
          "internalType": "string",
          "name": "title",
          "type": "string"
        },
        {
          "internalType": "string",
          "name": "youtubeLink",
          "type": "string"
        },
        {
          "internalType": "string",
          "name": "category",
          "type": "string"
        }
      ],
      "name": "addInstructionalVideo",
      "outputs": [],
      "stateMutability": "nonpayable",
      "type": "function"
    },
    {
      "inputs": [
        {
          "internalType": "string",
          "name": "seminarName",
          "type": "string"
        },
        {
          "internalType": "string",
          "name": "location",
          "type": "string"
        },
        {
          "internalType": "string",
          "name": "date",
          "type": "string"
        },
        {
          "internalType": "string",
          "name": "imageUrl",
          "type": "string"
        }
      ],
      "name": "addSeminar",
      "outputs": [],
      "stateMutability": "nonpayable",
      "type": "function"
    },
    {
      "inputs": [
        {
          "internalType": "string",
          "name": "text",
          "type": "string"
        },
        {
          "internalType": "string",
          "name": "url",
          "type": "string"
        }
      ],
      "name": "addLink",
      "outputs": [],
      "stateMutability": "nonpayable",
      "type": "function"
    }
  ],
  "bytecode": "0x608060405234801561001057600080fd5b50610fe4806100206000396000f3fe608060405234801561001057600080fd5b50600436106100625760003560e01c80630fec9efa146100675780632fcd3acc1461008357806369d7bbd1146100b65780639dc5e1d2146100e8578063a3b2379714610104578063cb57c0d814610135575b600080fd5b610081600480360381019061007c9190610b01565b610151565b005b61009d60048036038101906100989190610ac5565b61020e565b6040516100ad9493929190610d83565b60405180910390f35b6100d060048036038101906100cb9190610ac5565b61047b565b6040516100df93929190610d37565b60405180910390f35b61010260048036038101906100fd9190610b6d565b61065a565b005b61011e60048036038101906101199190610ac5565b61073a565b60405161012c929190610d00565b60405180910390f35b61014f600480360381019061014a9190610c04565b61088b565b005b600260003373ffffffffffffffffffffffffffffffffffffffff1673ffffffffffffffffffffffffffffffffffffffff168152602001908152602001600020604051806040016040528084815260200183815250908060018154018082558091505060019003906000526020600020906002020160009091909190915060008201518160000190805190602001906101ea929190610990565b506020820151816001019080519060200190610207929190610990565b5050505050565b6001602052816000526040600020818154811061022a57600080fd5b90600052602060002090600402016000915091505080600001805461024e90610edf565b80601f016020809104026020016040519081016040528092919081815260200182805461027a90610edf565b80156102c75780601f1061029c576101008083540402835291602001916102c7565b820191906000526020600020905b8154815290600101906020018083116102aa57829003601f168201915b5050505050908060010180546102dc90610edf565b80601f016020809104026020016040519081016040528092919081815260200182805461030890610edf565b80156103555780601f1061032a57610100808354040283529160200191610355565b820191906000526020600020905b81548152906001019060200180831161033857829003601f168201915b50505050509080600201805461036a90610edf565b80601f016020809104026020016040519081016040528092919081815260200182805461039690610edf565b80156103e35780601f106103b8576101008083540402835291602001916103e3565b820191906000526020600020905b8154815290600101906020018083116103c657829003601f168201915b5050505050908060030180546103f890610edf565b80601f016020809104026020016040519081016040528092919081815260200182805461042490610edf565b80156104715780601f1061044657610100808354040283529160200191610471565b820191906000526020600020905b81548152906001019060200180831161045457829003601f168201915b5050505050905084565b6000602052816000526040600020818154811061049757600080fd5b9060005260206000209060030201600091509150508060000180546104bb90610edf565b80601f01602080910402602001604051908101604052809291908181526020018280546104e790610edf565b80156105345780601f1061050957610100808354040283529160200191610534565b820191906000526020600020905b81548152906001019060200180831161051757829003601f168201915b50505050509080600101805461054990610edf565b80601f016020809104026020016040519081016040528092919081815260200182805461057590610edf565b80156105c25780601f10610597576101008083540402835291602001916105c2565b820191906000526020600020905b8154815290600101906020018083116105a557829003601f168201915b5050505050908060020180546105d790610edf565b80601f016020809104026020016040519081016040528092919081815260200182805461060390610edf565b80156106505780601f1061062557610100808354040283529160200191610650565b820191906000526020600020905b81548152906001019060200180831161063357829003601f168201915b5050505050905083565b6000803373ffffffffffffffffffffffffffffffffffffffff1673ffffffffffffffffffffffffffffffffffffffff168152602001908152602001600020604051806060016040528085815260200184815260200183815250908060018154018082558091505060019003906000526020600020906003020160009091909190915060008201518160000190805190602001906106f8929190610990565b506020820151816001019080519060200190610715929190610990565b506040820151816002019080519060200190610732929190610990565b505050505050565b6002602052816000526040600020818154811061075657600080fd5b90600052602060002090600202016000915091505080600001805461077a90610edf565b80601f01602080910402602001604051908101604052809291908181526020018280546107a690610edf565b80156107f35780601f106107c8576101008083540402835291602001916107f3565b820191906000526020600020905b8154815290600101906020018083116107d657829003601f168201915b50505050509080600101805461080890610edf565b80601f016020809104026020016040519081016040528092919081815260200182805461083490610edf565b80156108815780601f1061085657610100808354040283529160200191610881565b820191906000526020600020905b81548152906001019060200180831161086457829003601f168201915b5050505050905082565b600160003373ffffffffffffffffffffffffffffffffffffffff1673ffffffffffffffffffffffffffffffffffffffff16815260200190815260200160002060405180608001604052808681526020018581526020018481526020018381525090806001815401808255809150506001900390600052602060002090600402016000909190919091506000820151816000019080519060200190610930929190610990565b50602082015181600101908051906020019061094d929190610990565b50604082015181600201908051906020019061096a929190610990565b506060820151816003019080519060200190610987929190610990565b50505050505050565b82805461099c90610edf565b90600052602060002090601f0160209004810192826109be5760008555610a05565b82601f106109d757805160ff1916838001178555610a05565b82800160010185558215610a05579182015b82811115610a045782518255916020019190600101906109e9565b5b509050610a129190610a16565b5090565b5b80821115610a2f576000816000905550600101610a17565b5090565b6000610a46610a4184610e15565b610de4565b905082815260208101848484011115610a5e57600080fd5b610a69848285610e9d565b509392505050565b600081359050610a8081610f80565b92915050565b600082601f830112610a9757600080fd5b8135610aa7848260208601610a33565b91505092915050565b600081359050610abf81610f97565b92915050565b60008060408385031215610ad857600080fd5b6000610ae685828601610a71565b9250506020610af785828601610ab0565b9150509250929050565b60008060408385031215610b1457600080fd5b600083013567ffffffffffffffff811115610b2e57600080fd5b610b3a85828601610a86565b925050602083013567ffffffffffffffff811115610b5757600080fd5b610b6385828601610a86565b9150509250929050565b600080600060608486031215610b8257600080fd5b600084013567ffffffffffffffff811115610b9c57600080fd5b610ba886828701610a86565b935050602084013567ffffffffffffffff811115610bc557600080fd5b610bd186828701610a86565b925050604084013567ffffffffffffffff811115610bee57600080fd5b610bfa86828701610a86565b9150509250925092565b60008060008060808587031215610c1a57600080fd5b600085013567ffffffffffffffff811115610c3457600080fd5b610c4087828801610a86565b945050602085013567ffffffffffffffff811115610c5d57600080fd5b610c6987828801610a86565b935050604085013567ffffffffffffffff811115610c8657600080fd5b610c9287828801610a86565b925050606085013567ffffffffffffffff811115610caf57600080fd5b610cbb87828801610a86565b91505092959194509250565b6000610cd282610e45565b610cdc8185610e50565b9350610cec818560208601610eac565b610cf581610f6f565b840191505092915050565b60006040820190508181036000830152610d1a8185610cc7565b90508181036020830152610d2e8184610cc7565b90509392505050565b60006060820190508181036000830152610d518186610cc7565b90508181036020830152610d658185610cc7565b90508181036040830152610d798184610cc7565b9050949350505050565b60006080820190508181036000830152610d9d8187610cc7565b90508181036020830152610db18186610cc7565b90508181036040830152610dc58185610cc7565b90508181036060830152610dd98184610cc7565b905095945050505050565b6000604051905081810181811067ffffffffffffffff82111715610e0b57610e0a610f40565b5b8060405250919050565b600067ffffffffffffffff821115610e3057610e2f610f40565b5b601f19601f8301169050602081019050919050565b600081519050919050565b600082825260208201905092915050565b6000610e6c82610e73565b9050919050565b600073ffffffffffffffffffffffffffffffffffffffff82169050919050565b6000819050919050565b82818337600083830152505050565b60005b83811015610eca578082015181840152602081019050610eaf565b83811115610ed9576000848401525b50505050565b60006002820490506001821680610ef757607f821691505b60208210811415610f0b57610f0a610f11565b5b50919050565b7f4e487b7100000000000000000000000000000000000000000000000000000000600052602260045260246000fd5b7f4e487b7100000000000000000000000000000000000000000000000000000000600052604160045260246000fd5b6000601f19601f8301169050919050565b610f8981610e61565b8114610f9457600080fd5b50565b610fa081610e93565b8114610fab57600080fd5b5056fea2646970667358221220ea3e97dc37da8e0e383ab653b17c0757953045292b50e348ed79843b14e6907464736f6c63430008000033",
  "immutableReferences": {},
  "source": "// SPDX-License-Identifier: MIT\r\npragma solidity ^0.8.0;\r\n\r\ncontract ContentManagement {\r\n    struct InstructionalVideo {\r\n        string title;\r\n        string youtubeLink;\r\n        string category;\r\n    }\r\n\r\n    struct Seminar {\r\n        string seminarName; \r\n        string location;\r\n        string date;\r\n        string imageUrl;\r\n    }\r\n\r\n    struct Link {\r\n        string text;\r\n        string url;\r\n    }\r\n\r\n    mapping(address => InstructionalVideo[]) public instructionalVideos;\r\n    mapping(address => Seminar[]) public seminars;\r\n    mapping(address => Link[]) public links;\r\n\r\n    function addInstructionalVideo(\r\n        string memory title,\r\n        string memory youtubeLink,\r\n        string memory category\r\n    ) public {\r\n        instructionalVideos[msg.sender].push(InstructionalVideo({\r\n            title: title,\r\n            youtubeLink: youtubeLink,\r\n            category: category\r\n        }));\r\n    }\r\n\r\n    function addSeminar(\r\n        string memory seminarName,\r\n        string memory location,\r\n        string memory date,\r\n        string memory imageUrl\r\n    ) public {\r\n        seminars[msg.sender].push(Seminar({\r\n            seminarName: seminarName,\r\n            location: location,\r\n            date: date,\r\n            imageUrl: imageUrl\r\n        }));\r\n    }\r\n\r\n    function addLink(\r\n        string memory text,\r\n        string memory url\r\n    ) public {\r\n        links[msg.sender].push(Link({\r\n            text: text,\r\n            url: url\r\n        }));\r\n    }\r\n}\r\n",
  "sourcePath": "C:\\Users\\marti\\Documents\\projects\\judo-chain\\contracts\\ContentManagement.sol",
  "compiler": {
    "name": "solc",
    "version": "0.8.0+commit.c7dfd78e.Emscripten.clang"
  },
  "schemaVersion": "3.4.16",
  "updatedAt": "2024-07-05T10:31:15.554Z",
  "networkType": "ethereum",
  "devdoc": {
    "kind": "dev",
    "methods": {},
    "version": 1
  },
  "userdoc": {
    "kind": "user",
    "methods": {},
    "version": 1
  }
}