{
  "contractName": "EventParticipation",
  "abi": [
    {
      "inputs": [
        {
          "internalType": "address",
          "name": "",
          "type": "address"
        },
        {
          "internalType": "uint256",
          "name": "",
          "type": "uint256"
        }
      ],
      "name": "events",
      "outputs": [
        {
          "internalType": "string",
          "name": "name",
          "type": "string"
        },
        {
          "internalType": "string",
          "name": "date",
          "type": "string"
        },
        {
          "internalType": "string",
          "name": "location",
          "type": "string"
        },
        {
          "internalType": "string",
          "name": "description",
          "type": "string"
        }
      ],
      "stateMutability": "view",
      "type": "function",
      "constant": true
    },
    {
      "inputs": [
        {
          "internalType": "string",
          "name": "name",
          "type": "string"
        },
        {
          "internalType": "string",
          "name": "date",
          "type": "string"
        },
        {
          "internalType": "string",
          "name": "location",
          "type": "string"
        },
        {
          "internalType": "string",
          "name": "description",
          "type": "string"
        }
      ],
      "name": "addEvent",
      "outputs": [],
      "stateMutability": "nonpayable",
      "type": "function"
    },
    {
      "inputs": [
        {
          "internalType": "address",
          "name": "user",
          "type": "address"
        }
      ],
      "name": "getEvents",
      "outputs": [
        {
          "components": [
            {
              "internalType": "string",
              "name": "name",
              "type": "string"
            },
            {
              "internalType": "string",
              "name": "date",
              "type": "string"
            },
            {
              "internalType": "string",
              "name": "location",
              "type": "string"
            },
            {
              "internalType": "string",
              "name": "description",
              "type": "string"
            }
          ],
          "internalType": "struct EventParticipation.Event[]",
          "name": "",
          "type": "tuple[]"
        }
      ],
      "stateMutability": "view",
      "type": "function",
      "constant": true
    }
  ],
  "bytecode": "0x608060405234801561001057600080fd5b50610db8806100206000396000f3fe608060405234801561001057600080fd5b50600436106100415760003560e01c806374dcdc63146100465780639edff9ed14610079578063a4c8b6e314610095575b600080fd5b610060600480360381019061005b9190610879565b6100c5565b6040516100709493929190610b0d565b60405180910390f35b610093600480360381019061008e91906108b5565b610332565b005b6100af60048036038101906100aa9190610850565b610436565b6040516100bc9190610aeb565b60405180910390f35b600060205281600052604060002081815481106100e157600080fd5b90600052602060002090600402016000915091505080600001805461010590610cb3565b80601f016020809104026020016040519081016040528092919081815260200182805461013190610cb3565b801561017e5780601f106101535761010080835404028352916020019161017e565b820191906000526020600020905b81548152906001019060200180831161016157829003601f168201915b50505050509080600101805461019390610cb3565b80601f01602080910402602001604051908101604052809291908181526020018280546101bf90610cb3565b801561020c5780601f106101e15761010080835404028352916020019161020c565b820191906000526020600020905b8154815290600101906020018083116101ef57829003601f168201915b50505050509080600201805461022190610cb3565b80601f016020809104026020016040519081016040528092919081815260200182805461024d90610cb3565b801561029a5780601f1061026f5761010080835404028352916020019161029a565b820191906000526020600020905b81548152906001019060200180831161027d57829003601f168201915b5050505050908060030180546102af90610cb3565b80601f01602080910402602001604051908101604052809291908181526020018280546102db90610cb3565b80156103285780601f106102fd57610100808354040283529160200191610328565b820191906000526020600020905b81548152906001019060200180831161030b57829003601f168201915b5050505050905084565b6000803373ffffffffffffffffffffffffffffffffffffffff1673ffffffffffffffffffffffffffffffffffffffff168152602001908152602001600020604051806080016040528086815260200185815260200184815260200183815250908060018154018082558091505060019003906000526020600020906004020160009091909190915060008201518160000190805190602001906103d692919061071b565b5060208201518160010190805190602001906103f392919061071b565b50604082015181600201908051906020019061041092919061071b565b50606082015181600301908051906020019061042d92919061071b565b50505050505050565b60606000808373ffffffffffffffffffffffffffffffffffffffff1673ffffffffffffffffffffffffffffffffffffffff168152602001908152602001600020805480602002602001604051908101604052809291908181526020016000905b8282101561071057838290600052602060002090600402016040518060800160405290816000820180546104c990610cb3565b80601f01602080910402602001604051908101604052809291908181526020018280546104f590610cb3565b80156105425780601f1061051757610100808354040283529160200191610542565b820191906000526020600020905b81548152906001019060200180831161052557829003601f168201915b5050505050815260200160018201805461055b90610cb3565b80601f016020809104026020016040519081016040528092919081815260200182805461058790610cb3565b80156105d45780601f106105a9576101008083540402835291602001916105d4565b820191906000526020600020905b8154815290600101906020018083116105b757829003601f168201915b505050505081526020016002820180546105ed90610cb3565b80601f016020809104026020016040519081016040528092919081815260200182805461061990610cb3565b80156106665780601f1061063b57610100808354040283529160200191610666565b820191906000526020600020905b81548152906001019060200180831161064957829003601f168201915b5050505050815260200160038201805461067f90610cb3565b80601f01602080910402602001604051908101604052809291908181526020018280546106ab90610cb3565b80156106f85780601f106106cd576101008083540402835291602001916106f8565b820191906000526020600020905b8154815290600101906020018083116106db57829003601f168201915b50505050508152505081526020019060010190610496565b505050509050919050565b82805461072790610cb3565b90600052602060002090601f0160209004810192826107495760008555610790565b82601f1061076257805160ff1916838001178555610790565b82800160010185558215610790579182015b8281111561078f578251825591602001919060010190610774565b5b50905061079d91906107a1565b5090565b5b808211156107ba5760008160009055506001016107a2565b5090565b60006107d16107cc84610b9f565b610b6e565b9050828152602081018484840111156107e957600080fd5b6107f4848285610c71565b509392505050565b60008135905061080b81610d54565b92915050565b600082601f83011261082257600080fd5b81356108328482602086016107be565b91505092915050565b60008135905061084a81610d6b565b92915050565b60006020828403121561086257600080fd5b6000610870848285016107fc565b91505092915050565b6000806040838503121561088c57600080fd5b600061089a858286016107fc565b92505060206108ab8582860161083b565b9150509250929050565b600080600080608085870312156108cb57600080fd5b600085013567ffffffffffffffff8111156108e557600080fd5b6108f187828801610811565b945050602085013567ffffffffffffffff81111561090e57600080fd5b61091a87828801610811565b935050604085013567ffffffffffffffff81111561093757600080fd5b61094387828801610811565b925050606085013567ffffffffffffffff81111561096057600080fd5b61096c87828801610811565b91505092959194509250565b60006109848383610a73565b905092915050565b600061099782610bdf565b6109a18185610c02565b9350836020820285016109b385610bcf565b8060005b858110156109ef57848403895281516109d08582610978565b94506109db83610bf5565b925060208a019950506001810190506109b7565b50829750879550505050505092915050565b6000610a0c82610bea565b610a168185610c13565b9350610a26818560208601610c80565b610a2f81610d43565b840191505092915050565b6000610a4582610bea565b610a4f8185610c24565b9350610a5f818560208601610c80565b610a6881610d43565b840191505092915050565b60006080830160008301518482036000860152610a908282610a01565b91505060208301518482036020860152610aaa8282610a01565b91505060408301518482036040860152610ac48282610a01565b91505060608301518482036060860152610ade8282610a01565b9150508091505092915050565b60006020820190508181036000830152610b05818461098c565b905092915050565b60006080820190508181036000830152610b278187610a3a565b90508181036020830152610b3b8186610a3a565b90508181036040830152610b4f8185610a3a565b90508181036060830152610b638184610a3a565b905095945050505050565b6000604051905081810181811067ffffffffffffffff82111715610b9557610b94610d14565b5b8060405250919050565b600067ffffffffffffffff821115610bba57610bb9610d14565b5b601f19601f8301169050602081019050919050565b6000819050602082019050919050565b600081519050919050565b600081519050919050565b6000602082019050919050565b600082825260208201905092915050565b600082825260208201905092915050565b600082825260208201905092915050565b6000610c4082610c47565b9050919050565b600073ffffffffffffffffffffffffffffffffffffffff82169050919050565b6000819050919050565b82818337600083830152505050565b60005b83811015610c9e578082015181840152602081019050610c83565b83811115610cad576000848401525b50505050565b60006002820490506001821680610ccb57607f821691505b60208210811415610cdf57610cde610ce5565b5b50919050565b7f4e487b7100000000000000000000000000000000000000000000000000000000600052602260045260246000fd5b7f4e487b7100000000000000000000000000000000000000000000000000000000600052604160045260246000fd5b6000601f19601f8301169050919050565b610d5d81610c35565b8114610d6857600080fd5b50565b610d7481610c67565b8114610d7f57600080fd5b5056fea2646970667358221220aff094f0018869c7beb02533d7c81ee41ce7b53a5166bf1a9f7701d1f63a71c364736f6c63430008000033",
  "immutableReferences": {},
  "source": "// SPDX-License-Identifier: MIT\r\npragma solidity ^0.8.0;\r\n\r\ncontract EventParticipation {\r\n    struct Event {\r\n        string name;\r\n        string date;\r\n        string location;\r\n        string description;\r\n    }\r\n\r\n    mapping(address => Event[]) public events;\r\n\r\n    function addEvent(\r\n        string memory name,\r\n        string memory date,\r\n        string memory location,\r\n        string memory description\r\n    ) public {\r\n        events[msg.sender].push(Event({\r\n            name: name,\r\n            date: date,\r\n            location: location,\r\n            description: description\r\n        }));\r\n    }\r\n\r\n    function getEvents(address user) public view returns (Event[] memory) {\r\n        return events[user];\r\n    }\r\n}\r\n",
  "sourcePath": "C:\\Users\\marti\\Documents\\projects\\judo-chain\\contracts\\EventParticipation.sol",
  "compiler": {
    "name": "solc",
    "version": "0.8.0+commit.c7dfd78e.Emscripten.clang"
  },
  "schemaVersion": "3.4.16",
  "updatedAt": "2024-07-05T10:31:15.581Z",
  "networkType": "ethereum",
  "devdoc": {
    "kind": "dev",
    "methods": {},
    "version": 1
  },
  "userdoc": {
    "kind": "user",
    "methods": {},
    "version": 1
  }
}