{
  "contractName": "ForumContract",
  "abi": [
    {
      "anonymous": false,
      "inputs": [
        {
          "indexed": false,
          "internalType": "uint256",
          "name": "id",
          "type": "uint256"
        },
        {
          "indexed": false,
          "internalType": "address",
          "name": "author",
          "type": "address"
        },
        {
          "indexed": false,
          "internalType": "string",
          "name": "content",
          "type": "string"
        },
        {
          "indexed": false,
          "internalType": "uint256",
          "name": "postId",
          "type": "uint256"
        }
      ],
      "name": "CommentCreated",
      "type": "event"
    },
    {
      "anonymous": false,
      "inputs": [
        {
          "indexed": false,
          "internalType": "uint256",
          "name": "id",
          "type": "uint256"
        },
        {
          "indexed": false,
          "internalType": "address",
          "name": "author",
          "type": "address"
        },
        {
          "indexed": false,
          "internalType": "string",
          "name": "title",
          "type": "string"
        },
        {
          "indexed": false,
          "internalType": "string",
          "name": "content",
          "type": "string"
        }
      ],
      "name": "PostCreated",
      "type": "event"
    },
    {
      "inputs": [],
      "name": "commentCount",
      "outputs": [
        {
          "internalType": "uint256",
          "name": "",
          "type": "uint256"
        }
      ],
      "stateMutability": "view",
      "type": "function",
      "constant": true
    },
    {
      "inputs": [
        {
          "internalType": "uint256",
          "name": "",
          "type": "uint256"
        }
      ],
      "name": "comments",
      "outputs": [
        {
          "internalType": "uint256",
          "name": "id",
          "type": "uint256"
        },
        {
          "internalType": "address",
          "name": "author",
          "type": "address"
        },
        {
          "internalType": "string",
          "name": "content",
          "type": "string"
        }
      ],
      "stateMutability": "view",
      "type": "function",
      "constant": true
    },
    {
      "inputs": [],
      "name": "postCount",
      "outputs": [
        {
          "internalType": "uint256",
          "name": "",
          "type": "uint256"
        }
      ],
      "stateMutability": "view",
      "type": "function",
      "constant": true
    },
    {
      "inputs": [
        {
          "internalType": "uint256",
          "name": "",
          "type": "uint256"
        }
      ],
      "name": "posts",
      "outputs": [
        {
          "internalType": "uint256",
          "name": "id",
          "type": "uint256"
        },
        {
          "internalType": "address",
          "name": "author",
          "type": "address"
        },
        {
          "internalType": "string",
          "name": "title",
          "type": "string"
        },
        {
          "internalType": "string",
          "name": "content",
          "type": "string"
        }
      ],
      "stateMutability": "view",
      "type": "function",
      "constant": true
    },
    {
      "inputs": [
        {
          "internalType": "string",
          "name": "title",
          "type": "string"
        },
        {
          "internalType": "string",
          "name": "content",
          "type": "string"
        }
      ],
      "name": "createPost",
      "outputs": [],
      "stateMutability": "nonpayable",
      "type": "function"
    },
    {
      "inputs": [
        {
          "internalType": "uint256",
          "name": "postId",
          "type": "uint256"
        },
        {
          "internalType": "string",
          "name": "content",
          "type": "string"
        }
      ],
      "name": "createComment",
      "outputs": [],
      "stateMutability": "nonpayable",
      "type": "function"
    },
    {
      "inputs": [
        {
          "internalType": "uint256",
          "name": "postId",
          "type": "uint256"
        }
      ],
      "name": "getPostComments",
      "outputs": [
        {
          "components": [
            {
              "internalType": "uint256",
              "name": "id",
              "type": "uint256"
            },
            {
              "internalType": "address",
              "name": "author",
              "type": "address"
            },
            {
              "internalType": "string",
              "name": "content",
              "type": "string"
            }
          ],
          "internalType": "struct ForumContract.Comment[]",
          "name": "",
          "type": "tuple[]"
        }
      ],
      "stateMutability": "view",
      "type": "function",
      "constant": true
    }
  ],
  "bytecode": "0x608060405260008055600060015534801561001957600080fd5b50611266806100296000396000f3fe608060405234801561001057600080fd5b506004361061007d5760003560e01c806340a179851161005b57806340a17985146100ef57806345ff20de1461010b5780638ebb4c1514610129578063d524ff761461015b5761007d565b80630b1e7f831461008257806317906c2e146100b5578063392338f5146100d3575b600080fd5b61009c60048036038101906100979190610c3d565b61018b565b6040516100ac9493929190610f1c565b60405180910390f35b6100bd6102eb565b6040516100ca9190610ec3565b60405180910390f35b6100ed60048036038101906100e89190610bd1565b6102f1565b005b61010960048036038101906101049190610c66565b6104b8565b005b61011361065c565b6040516101209190610ec3565b60405180910390f35b610143600480360381019061013e9190610c3d565b610662565b60405161015293929190610ede565b60405180910390f35b61017560048036038101906101709190610c3d565b610734565b6040516101829190610e81565b60405180910390f35b60026020528060005260406000206000915090508060000154908060010160009054906101000a900473ffffffffffffffffffffffffffffffffffffffff16908060020180546101da90611100565b80601f016020809104026020016040519081016040528092919081815260200182805461020690611100565b80156102535780601f1061022857610100808354040283529160200191610253565b820191906000526020600020905b81548152906001019060200180831161023657829003601f168201915b50505050509080600301805461026890611100565b80601f016020809104026020016040519081016040528092919081815260200182805461029490611100565b80156102e15780601f106102b6576101008083540402835291602001916102e1565b820191906000526020600020905b8154815290600101906020018083116102c457829003601f168201915b5050505050905084565b60005481565b60008081548092919061030390611132565b91905055506040518060a0016040528060005481526020013373ffffffffffffffffffffffffffffffffffffffff168152602001838152602001828152602001600067ffffffffffffffff811115610384577f4e487b7100000000000000000000000000000000000000000000000000000000600052604160045260246000fd5b6040519080825280602002602001820160405280156103b25781602001602082028036833780820191505090505b5081525060026000805481526020019081526020016000206000820151816000015560208201518160010160006101000a81548173ffffffffffffffffffffffffffffffffffffffff021916908373ffffffffffffffffffffffffffffffffffffffff1602179055506040820151816002019080519060200190610437929190610a2d565b506060820151816003019080519060200190610454929190610a2d565b506080820151816004019080519060200190610471929190610ab3565b509050507f5475621b07408f75d49c828caa5aeacb3a5e98d3497e75730dc184677504401c6000543384846040516104ac9493929190610f1c565b60405180910390a15050565b6000821180156104ca57506000548211155b610509576040517f08c379a000000000000000000000000000000000000000000000000000000000815260040161050090610ea3565b60405180910390fd5b6001600081548092919061051c90611132565b9190505550604051806060016040528060015481526020013373ffffffffffffffffffffffffffffffffffffffff168152602001828152506003600060015481526020019081526020016000206000820151816000015560208201518160010160006101000a81548173ffffffffffffffffffffffffffffffffffffffff021916908373ffffffffffffffffffffffffffffffffffffffff16021790555060408201518160020190805190602001906105d6929190610a2d565b509050506002600083815260200190815260200160002060040160015490806001815401808255809150506001900390600052602060002001600090919091909150557fbf9cbd18e969725e6e4e421755034cb09ba05633b45cfcb8999ae8b2e4882daf6001543383856040516106509493929190610f6f565b60405180910390a15050565b60015481565b60036020528060005260406000206000915090508060000154908060010160009054906101000a900473ffffffffffffffffffffffffffffffffffffffff16908060020180546106b190611100565b80601f01602080910402602001604051908101604052809291908181526020018280546106dd90611100565b801561072a5780601f106106ff5761010080835404028352916020019161072a565b820191906000526020600020905b81548152906001019060200180831161070d57829003601f168201915b5050505050905083565b606060008211801561074857506000548211155b610787576040517f08c379a000000000000000000000000000000000000000000000000000000000815260040161077e90610ea3565b60405180910390fd5b6000600260008481526020019081526020016000206004018054806020026020016040519081016040528092919081815260200182805480156107e957602002820191906000526020600020905b8154815260200190600101908083116107d5575b505050505090506000815167ffffffffffffffff811115610833577f4e487b7100000000000000000000000000000000000000000000000000000000600052604160045260246000fd5b60405190808252806020026020018201604052801561086c57816020015b610859610b00565b8152602001906001900390816108515790505b50905060005b8251811015610a2257600360008483815181106108b8577f4e487b7100000000000000000000000000000000000000000000000000000000600052603260045260246000fd5b60200260200101518152602001908152602001600020604051806060016040529081600082015481526020016001820160009054906101000a900473ffffffffffffffffffffffffffffffffffffffff1673ffffffffffffffffffffffffffffffffffffffff1673ffffffffffffffffffffffffffffffffffffffff16815260200160028201805461094990611100565b80601f016020809104026020016040519081016040528092919081815260200182805461097590611100565b80156109c25780601f10610997576101008083540402835291602001916109c2565b820191906000526020600020905b8154815290600101906020018083116109a557829003601f168201915b505050505081525050828281518110610a04577f4e487b7100000000000000000000000000000000000000000000000000000000600052603260045260246000fd5b60200260200101819052508080610a1a90611132565b915050610872565b508092505050919050565b828054610a3990611100565b90600052602060002090601f016020900481019282610a5b5760008555610aa2565b82601f10610a7457805160ff1916838001178555610aa2565b82800160010185558215610aa2579182015b82811115610aa1578251825591602001919060010190610a86565b5b509050610aaf9190610b37565b5090565b828054828255906000526020600020908101928215610aef579160200282015b82811115610aee578251825591602001919060010190610ad3565b5b509050610afc9190610b37565b5090565b604051806060016040528060008152602001600073ffffffffffffffffffffffffffffffffffffffff168152602001606081525090565b5b80821115610b50576000816000905550600101610b38565b5090565b6000610b67610b6284610fec565b610fbb565b905082815260208101848484011115610b7f57600080fd5b610b8a8482856110be565b509392505050565b600082601f830112610ba357600080fd5b8135610bb3848260208601610b54565b91505092915050565b600081359050610bcb81611219565b92915050565b60008060408385031215610be457600080fd5b600083013567ffffffffffffffff811115610bfe57600080fd5b610c0a85828601610b92565b925050602083013567ffffffffffffffff811115610c2757600080fd5b610c3385828601610b92565b9150509250929050565b600060208284031215610c4f57600080fd5b6000610c5d84828501610bbc565b91505092915050565b60008060408385031215610c7957600080fd5b6000610c8785828601610bbc565b925050602083013567ffffffffffffffff811115610ca457600080fd5b610cb085828601610b92565b9150509250929050565b6000610cc68383610e13565b905092915050565b610cd781611082565b82525050565b610ce681611082565b82525050565b6000610cf78261102c565b610d01818561104f565b935083602082028501610d138561101c565b8060005b85811015610d4f5784840389528151610d308582610cba565b9450610d3b83611042565b925060208a01995050600181019050610d17565b50829750879550505050505092915050565b6000610d6c82611037565b610d768185611060565b9350610d868185602086016110cd565b610d8f81611208565b840191505092915050565b6000610da582611037565b610daf8185611071565b9350610dbf8185602086016110cd565b610dc881611208565b840191505092915050565b6000610de0601383611071565b91507f506f737420646f6573206e6f74206578697374000000000000000000000000006000830152602082019050919050565b6000606083016000830151610e2b6000860182610e63565b506020830151610e3e6020860182610cce565b5060408301518482036040860152610e568282610d61565b9150508091505092915050565b610e6c816110b4565b82525050565b610e7b816110b4565b82525050565b60006020820190508181036000830152610e9b8184610cec565b905092915050565b60006020820190508181036000830152610ebc81610dd3565b9050919050565b6000602082019050610ed86000830184610e72565b92915050565b6000606082019050610ef36000830186610e72565b610f006020830185610cdd565b8181036040830152610f128184610d9a565b9050949350505050565b6000608082019050610f316000830187610e72565b610f3e6020830186610cdd565b8181036040830152610f508185610d9a565b90508181036060830152610f648184610d9a565b905095945050505050565b6000608082019050610f846000830187610e72565b610f916020830186610cdd565b8181036040830152610fa38185610d9a565b9050610fb26060830184610e72565b95945050505050565b6000604051905081810181811067ffffffffffffffff82111715610fe257610fe16111d9565b5b8060405250919050565b600067ffffffffffffffff821115611007576110066111d9565b5b601f19601f8301169050602081019050919050565b6000819050602082019050919050565b600081519050919050565b600081519050919050565b6000602082019050919050565b600082825260208201905092915050565b600082825260208201905092915050565b600082825260208201905092915050565b600061108d82611094565b9050919050565b600073ffffffffffffffffffffffffffffffffffffffff82169050919050565b6000819050919050565b82818337600083830152505050565b60005b838110156110eb5780820151818401526020810190506110d0565b838111156110fa576000848401525b50505050565b6000600282049050600182168061111857607f821691505b6020821081141561112c5761112b6111aa565b5b50919050565b600061113d826110b4565b91507fffffffffffffffffffffffffffffffffffffffffffffffffffffffffffffffff8214156111705761116f61117b565b5b600182019050919050565b7f4e487b7100000000000000000000000000000000000000000000000000000000600052601160045260246000fd5b7f4e487b7100000000000000000000000000000000000000000000000000000000600052602260045260246000fd5b7f4e487b7100000000000000000000000000000000000000000000000000000000600052604160045260246000fd5b6000601f19601f8301169050919050565b611222816110b4565b811461122d57600080fd5b5056fea264697066735822122055f90049caa33fa511694cbb17844bf2733119da9bcbc81179fc13267f3e517c64736f6c63430008000033",
  "immutableReferences": {},
  "source": "// SPDX-License-Identifier: MIT\r\npragma solidity ^0.8.0;\r\n\r\ncontract ForumContract {\r\n    struct Post {\r\n        uint id;\r\n        address author;\r\n        string title;\r\n        string content;\r\n        uint[] commentIds;\r\n    }\r\n\r\n    struct Comment {\r\n        uint id;\r\n        address author;\r\n        string content;\r\n    }\r\n\r\n    uint public postCount = 0;\r\n    uint public commentCount = 0;\r\n    mapping(uint => Post) public posts;\r\n    mapping(uint => Comment) public comments;\r\n\r\n    event PostCreated(uint id, address author, string title, string content);\r\n    event CommentCreated(uint id, address author, string content, uint postId);\r\n\r\n    function createPost(string memory title, string memory content) public {\r\n        postCount++;\r\n        posts[postCount] = Post(postCount, msg.sender, title, content, new uint[](0));\r\n        emit PostCreated(postCount, msg.sender, title, content);\r\n    }\r\n\r\n    function createComment(uint postId, string memory content) public {\r\n        require(postId > 0 && postId <= postCount, \"Post does not exist\");\r\n        commentCount++;\r\n        comments[commentCount] = Comment(commentCount, msg.sender, content);\r\n        posts[postId].commentIds.push(commentCount);\r\n        emit CommentCreated(commentCount, msg.sender, content, postId);\r\n    }\r\n\r\n    function getPostComments(uint postId) public view returns (Comment[] memory) {\r\n        require(postId > 0 && postId <= postCount, \"Post does not exist\");\r\n        uint[] memory commentIds = posts[postId].commentIds;\r\n        Comment[] memory postComments = new Comment[](commentIds.length);\r\n        for (uint i = 0; i < commentIds.length; i++) {\r\n            postComments[i] = comments[commentIds[i]];\r\n        }\r\n        return postComments;\r\n    }\r\n}\r\n",
  "sourcePath": "C:\\Users\\marti\\Documents\\projects\\judo-chain\\contracts\\ForumContract.sol",
  "compiler": {
    "name": "solc",
    "version": "0.8.0+commit.c7dfd78e.Emscripten.clang"
  },
  "schemaVersion": "3.4.16",
  "updatedAt": "2024-07-05T10:31:15.624Z",
  "networkType": "ethereum",
  "devdoc": {
    "kind": "dev",
    "methods": {},
    "version": 1
  },
  "userdoc": {
    "kind": "user",
    "methods": {},
    "version": 1
  }
}