{
  "contractName": "InjuryRegistry",
  "abi": [
    {
      "inputs": [
        {
          "internalType": "address",
          "name": "",
          "type": "address"
        },
        {
          "internalType": "uint256",
          "name": "",
          "type": "uint256"
        }
      ],
      "name": "injuries",
      "outputs": [
        {
          "internalType": "string",
          "name": "name",
          "type": "string"
        },
        {
          "internalType": "string",
          "name": "description",
          "type": "string"
        },
        {
          "internalType": "string",
          "name": "areaOfBody",
          "type": "string"
        },
        {
          "internalType": "string",
          "name": "dateOfInjury",
          "type": "string"
        },
        {
          "internalType": "string",
          "name": "severity",
          "type": "string"
        }
      ],
      "stateMutability": "view",
      "type": "function",
      "constant": true
    },
    {
      "inputs": [
        {
          "internalType": "string",
          "name": "name",
          "type": "string"
        },
        {
          "internalType": "string",
          "name": "description",
          "type": "string"
        },
        {
          "internalType": "string",
          "name": "areaOfBody",
          "type": "string"
        },
        {
          "internalType": "string",
          "name": "dateOfInjury",
          "type": "string"
        },
        {
          "internalType": "string",
          "name": "severity",
          "type": "string"
        }
      ],
      "name": "addInjury",
      "outputs": [],
      "stateMutability": "nonpayable",
      "type": "function"
    },
    {
      "inputs": [
        {
          "internalType": "address",
          "name": "user",
          "type": "address"
        }
      ],
      "name": "getInjuries",
      "outputs": [
        {
          "components": [
            {
              "internalType": "string",
              "name": "name",
              "type": "string"
            },
            {
              "internalType": "string",
              "name": "description",
              "type": "string"
            },
            {
              "internalType": "string",
              "name": "areaOfBody",
              "type": "string"
            },
            {
              "internalType": "string",
              "name": "dateOfInjury",
              "type": "string"
            },
            {
              "internalType": "string",
              "name": "severity",
              "type": "string"
            }
          ],
          "internalType": "struct InjuryRegistry.Injury[]",
          "name": "",
          "type": "tuple[]"
        }
      ],
      "stateMutability": "view",
      "type": "function",
      "constant": true
    }
  ],
  "bytecode": "0x608060405234801561001057600080fd5b50610f58806100206000396000f3fe608060405234801561001057600080fd5b50600436106100415760003560e01c80631e001ee714610046578063d83eb00214610076578063ed156fa114610092575b600080fd5b610060600480360381019061005b9190610995565b6100c6565b60405161006d9190610c76565b60405180910390f35b610090600480360381019061008b91906109fa565b61043d565b005b6100ac60048036038101906100a791906109be565b610565565b6040516100bd959493929190610c98565b60405180910390f35b60606000808373ffffffffffffffffffffffffffffffffffffffff1673ffffffffffffffffffffffffffffffffffffffff168152602001908152602001600020805480602002602001604051908101604052809291908181526020016000905b8282101561043257838290600052602060002090600502016040518060a001604052908160008201805461015990610e53565b80601f016020809104026020016040519081016040528092919081815260200182805461018590610e53565b80156101d25780601f106101a7576101008083540402835291602001916101d2565b820191906000526020600020905b8154815290600101906020018083116101b557829003601f168201915b505050505081526020016001820180546101eb90610e53565b80601f016020809104026020016040519081016040528092919081815260200182805461021790610e53565b80156102645780601f1061023957610100808354040283529160200191610264565b820191906000526020600020905b81548152906001019060200180831161024757829003601f168201915b5050505050815260200160028201805461027d90610e53565b80601f01602080910402602001604051908101604052809291908181526020018280546102a990610e53565b80156102f65780601f106102cb576101008083540402835291602001916102f6565b820191906000526020600020905b8154815290600101906020018083116102d957829003601f168201915b5050505050815260200160038201805461030f90610e53565b80601f016020809104026020016040519081016040528092919081815260200182805461033b90610e53565b80156103885780601f1061035d57610100808354040283529160200191610388565b820191906000526020600020905b81548152906001019060200180831161036b57829003601f168201915b505050505081526020016004820180546103a190610e53565b80601f01602080910402602001604051908101604052809291908181526020018280546103cd90610e53565b801561041a5780601f106103ef5761010080835404028352916020019161041a565b820191906000526020600020905b8154815290600101906020018083116103fd57829003601f168201915b50505050508152505081526020019060010190610126565b505050509050919050565b6000803373ffffffffffffffffffffffffffffffffffffffff1673ffffffffffffffffffffffffffffffffffffffff1681526020019081526020016000206040518060a0016040528087815260200186815260200185815260200184815260200183815250908060018154018082558091505060019003906000526020600020906005020160009091909190915060008201518160000190805190602001906104e7929190610860565b506020820151816001019080519060200190610504929190610860565b506040820151816002019080519060200190610521929190610860565b50606082015181600301908051906020019061053e929190610860565b50608082015181600401908051906020019061055b929190610860565b5050505050505050565b6000602052816000526040600020818154811061058157600080fd5b9060005260206000209060050201600091509150508060000180546105a590610e53565b80601f01602080910402602001604051908101604052809291908181526020018280546105d190610e53565b801561061e5780601f106105f35761010080835404028352916020019161061e565b820191906000526020600020905b81548152906001019060200180831161060157829003601f168201915b50505050509080600101805461063390610e53565b80601f016020809104026020016040519081016040528092919081815260200182805461065f90610e53565b80156106ac5780601f10610681576101008083540402835291602001916106ac565b820191906000526020600020905b81548152906001019060200180831161068f57829003601f168201915b5050505050908060020180546106c190610e53565b80601f01602080910402602001604051908101604052809291908181526020018280546106ed90610e53565b801561073a5780601f1061070f5761010080835404028352916020019161073a565b820191906000526020600020905b81548152906001019060200180831161071d57829003601f168201915b50505050509080600301805461074f90610e53565b80601f016020809104026020016040519081016040528092919081815260200182805461077b90610e53565b80156107c85780601f1061079d576101008083540402835291602001916107c8565b820191906000526020600020905b8154815290600101906020018083116107ab57829003601f168201915b5050505050908060040180546107dd90610e53565b80601f016020809104026020016040519081016040528092919081815260200182805461080990610e53565b80156108565780601f1061082b57610100808354040283529160200191610856565b820191906000526020600020905b81548152906001019060200180831161083957829003601f168201915b5050505050905085565b82805461086c90610e53565b90600052602060002090601f01602090048101928261088e57600085556108d5565b82601f106108a757805160ff19168380011785556108d5565b828001600101855582156108d5579182015b828111156108d45782518255916020019190600101906108b9565b5b5090506108e291906108e6565b5090565b5b808211156108ff5760008160009055506001016108e7565b5090565b600061091661091184610d3f565b610d0e565b90508281526020810184848401111561092e57600080fd5b610939848285610e11565b509392505050565b60008135905061095081610ef4565b92915050565b600082601f83011261096757600080fd5b8135610977848260208601610903565b91505092915050565b60008135905061098f81610f0b565b92915050565b6000602082840312156109a757600080fd5b60006109b584828501610941565b91505092915050565b600080604083850312156109d157600080fd5b60006109df85828601610941565b92505060206109f085828601610980565b9150509250929050565b600080600080600060a08688031215610a1257600080fd5b600086013567ffffffffffffffff811115610a2c57600080fd5b610a3888828901610956565b955050602086013567ffffffffffffffff811115610a5557600080fd5b610a6188828901610956565b945050604086013567ffffffffffffffff811115610a7e57600080fd5b610a8a88828901610956565b935050606086013567ffffffffffffffff811115610aa757600080fd5b610ab388828901610956565b925050608086013567ffffffffffffffff811115610ad057600080fd5b610adc88828901610956565b9150509295509295909350565b6000610af58383610be4565b905092915050565b6000610b0882610d7f565b610b128185610da2565b935083602082028501610b2485610d6f565b8060005b85811015610b605784840389528151610b418582610ae9565b9450610b4c83610d95565b925060208a01995050600181019050610b28565b50829750879550505050505092915050565b6000610b7d82610d8a565b610b878185610db3565b9350610b97818560208601610e20565b610ba081610ee3565b840191505092915050565b6000610bb682610d8a565b610bc08185610dc4565b9350610bd0818560208601610e20565b610bd981610ee3565b840191505092915050565b600060a0830160008301518482036000860152610c018282610b72565b91505060208301518482036020860152610c1b8282610b72565b91505060408301518482036040860152610c358282610b72565b91505060608301518482036060860152610c4f8282610b72565b91505060808301518482036080860152610c698282610b72565b9150508091505092915050565b60006020820190508181036000830152610c908184610afd565b905092915050565b600060a0820190508181036000830152610cb28188610bab565b90508181036020830152610cc68187610bab565b90508181036040830152610cda8186610bab565b90508181036060830152610cee8185610bab565b90508181036080830152610d028184610bab565b90509695505050505050565b6000604051905081810181811067ffffffffffffffff82111715610d3557610d34610eb4565b5b8060405250919050565b600067ffffffffffffffff821115610d5a57610d59610eb4565b5b601f19601f8301169050602081019050919050565b6000819050602082019050919050565b600081519050919050565b600081519050919050565b6000602082019050919050565b600082825260208201905092915050565b600082825260208201905092915050565b600082825260208201905092915050565b6000610de082610de7565b9050919050565b600073ffffffffffffffffffffffffffffffffffffffff82169050919050565b6000819050919050565b82818337600083830152505050565b60005b83811015610e3e578082015181840152602081019050610e23565b83811115610e4d576000848401525b50505050565b60006002820490506001821680610e6b57607f821691505b60208210811415610e7f57610e7e610e85565b5b50919050565b7f4e487b7100000000000000000000000000000000000000000000000000000000600052602260045260246000fd5b7f4e487b7100000000000000000000000000000000000000000000000000000000600052604160045260246000fd5b6000601f19601f8301169050919050565b610efd81610dd5565b8114610f0857600080fd5b50565b610f1481610e07565b8114610f1f57600080fd5b5056fea264697066735822122074915718f07e613c8fc9a37de178b225351f5f92358ac6bcef32cc635b3e675d64736f6c63430008000033",
  "immutableReferences": {},
  "source": "// SPDX-License-Identifier: MIT\r\npragma solidity ^0.8.0;\r\n\r\ncontract InjuryRegistry {\r\n    struct Injury {\r\n        string name;\r\n        string description;\r\n        string areaOfBody;\r\n        string dateOfInjury;\r\n        string severity;\r\n    }\r\n\r\n    mapping(address => Injury[]) public injuries;\r\n\r\n    function addInjury(\r\n        string memory name,\r\n        string memory description,\r\n        string memory areaOfBody,\r\n        string memory dateOfInjury,\r\n        string memory severity\r\n    ) public {\r\n        injuries[msg.sender].push(Injury({\r\n            name: name,\r\n            description: description,\r\n            areaOfBody: areaOfBody,\r\n            dateOfInjury: dateOfInjury,\r\n            severity: severity\r\n        }));\r\n    }\r\n\r\n    function getInjuries(address user) public view returns (Injury[] memory) {\r\n        return injuries[user];\r\n    }\r\n}\r\n",
  "sourcePath": "C:\\Users\\marti\\Documents\\projects\\judo-chain\\contracts\\InjuryRegistry.sol",
  "compiler": {
    "name": "solc",
    "version": "0.8.0+commit.c7dfd78e.Emscripten.clang"
  },
  "schemaVersion": "3.4.16",
  "updatedAt": "2024-07-05T10:31:15.597Z",
  "networkType": "ethereum",
  "devdoc": {
    "kind": "dev",
    "methods": {},
    "version": 1
  },
  "userdoc": {
    "kind": "user",
    "methods": {},
    "version": 1
  }
}