{
  "contractName": "JudokaRegistry",
  "abi": [
    {
      "inputs": [
        {
          "internalType": "uint256",
          "name": "",
          "type": "uint256"
        }
      ],
      "name": "judokaAddresses",
      "outputs": [
        {
          "internalType": "address",
          "name": "",
          "type": "address"
        }
      ],
      "stateMutability": "view",
      "type": "function",
      "constant": true
    },
    {
      "inputs": [
        {
          "internalType": "address",
          "name": "",
          "type": "address"
        }
      ],
      "name": "judokas",
      "outputs": [
        {
          "internalType": "string",
          "name": "firstName",
          "type": "string"
        },
        {
          "internalType": "string",
          "name": "lastName",
          "type": "string"
        },
        {
          "internalType": "string",
          "name": "email",
          "type": "string"
        },
        {
          "internalType": "bool",
          "name": "isRegistered",
          "type": "bool"
        },
        {
          "internalType": "uint256",
          "name": "votingPower",
          "type": "uint256"
        },
        {
          "internalType": "uint256",
          "name": "points",
          "type": "uint256"
        }
      ],
      "stateMutability": "view",
      "type": "function",
      "constant": true
    },
    {
      "inputs": [
        {
          "internalType": "string",
          "name": "_firstName",
          "type": "string"
        },
        {
          "internalType": "string",
          "name": "_lastName",
          "type": "string"
        },
        {
          "internalType": "string",
          "name": "_email",
          "type": "string"
        },
        {
          "internalType": "string",
          "name": "_beltLevel",
          "type": "string"
        },
        {
          "internalType": "string",
          "name": "_promotionDate",
          "type": "string"
        },
        {
          "internalType": "string",
          "name": "_gym",
          "type": "string"
        }
      ],
      "name": "registerJudoka",
      "outputs": [],
      "stateMutability": "nonpayable",
      "type": "function"
    },
    {
      "inputs": [
        {
          "internalType": "string",
          "name": "_beltLevel",
          "type": "string"
        }
      ],
      "name": "getVotingPower",
      "outputs": [
        {
          "internalType": "uint256",
          "name": "",
          "type": "uint256"
        }
      ],
      "stateMutability": "pure",
      "type": "function",
      "constant": true
    },
    {
      "inputs": [
        {
          "internalType": "address",
          "name": "_judokaAddress",
          "type": "address"
        }
      ],
      "name": "getJudoka",
      "outputs": [
        {
          "components": [
            {
              "internalType": "string",
              "name": "firstName",
              "type": "string"
            },
            {
              "internalType": "string",
              "name": "lastName",
              "type": "string"
            },
            {
              "internalType": "string",
              "name": "email",
              "type": "string"
            },
            {
              "internalType": "bool",
              "name": "isRegistered",
              "type": "bool"
            },
            {
              "components": [
                {
                  "internalType": "string",
                  "name": "beltLevel",
                  "type": "string"
                },
                {
                  "internalType": "string",
                  "name": "promotionDate",
                  "type": "string"
                },
                {
                  "internalType": "string",
                  "name": "gym",
                  "type": "string"
                }
              ],
              "internalType": "struct JudokaRegistry.Promotion[]",
              "name": "promotions",
              "type": "tuple[]"
            },
            {
              "internalType": "uint256",
              "name": "votingPower",
              "type": "uint256"
            },
            {
              "internalType": "uint256",
              "name": "points",
              "type": "uint256"
            }
          ],
          "internalType": "struct JudokaRegistry.Judoka",
          "name": "",
          "type": "tuple"
        }
      ],
      "stateMutability": "view",
      "type": "function",
      "constant": true
    },
    {
      "inputs": [
        {
          "internalType": "address",
          "name": "_judokaAddress",
          "type": "address"
        }
      ],
      "name": "getJudokaPromotions",
      "outputs": [
        {
          "components": [
            {
              "internalType": "string",
              "name": "beltLevel",
              "type": "string"
            },
            {
              "internalType": "string",
              "name": "promotionDate",
              "type": "string"
            },
            {
              "internalType": "string",
              "name": "gym",
              "type": "string"
            }
          ],
          "internalType": "struct JudokaRegistry.Promotion[]",
          "name": "",
          "type": "tuple[]"
        }
      ],
      "stateMutability": "view",
      "type": "function",
      "constant": true
    },
    {
      "inputs": [],
      "name": "getAllJudokas",
      "outputs": [
        {
          "internalType": "address[]",
          "name": "",
          "type": "address[]"
        }
      ],
      "stateMutability": "view",
      "type": "function",
      "constant": true
    },
    {
      "inputs": [
        {
          "internalType": "address",
          "name": "_judokaAddress",
          "type": "address"
        },
        {
          "internalType": "uint256",
          "name": "newPoints",
          "type": "uint256"
        }
      ],
      "name": "updateJudokaPoints",
      "outputs": [],
      "stateMutability": "nonpayable",
      "type": "function"
    },
    {
      "inputs": [
        {
          "internalType": "string",
          "name": "_firstName",
          "type": "string"
        },
        {
          "internalType": "string",
          "name": "_lastName",
          "type": "string"
        },
        {
          "internalType": "string",
          "name": "_email",
          "type": "string"
        },
        {
          "internalType": "string",
          "name": "_beltLevel",
          "type": "string"
        },
        {
          "internalType": "string",
          "name": "_promotionDate",
          "type": "string"
        },
        {
          "internalType": "string",
          "name": "_gym",
          "type": "string"
        }
      ],
      "name": "updateJudoka",
      "outputs": [],
      "stateMutability": "nonpayable",
      "type": "function"
    }
  ],
  "bytecode": "0x608060405234801561001057600080fd5b50612796806100206000396000f3fe608060405234801561001057600080fd5b50600436106100935760003560e01c806397475023116100665780639747502314610137578063ab029db914610153578063de922e9114610183578063e19d1e2d1461019f578063fd509428146101cf57610093565b80631c277dee146100985780635dae10cf146100b65780637d007f9f146100d257806380e9e17c14610107575b600080fd5b6100a06101ff565b6040516100ad91906123b4565b60405180910390f35b6100d060048036038101906100cb9190611873565b61028d565b005b6100ec60048036038101906100e7919061184a565b610365565b6040516100fe969594939291906123f8565b60405180910390f35b610121600480360381019061011c91906118af565b610546565b60405161012e91906124d0565b60405180910390f35b610151600480360381019061014c91906118f0565b610b06565b005b61016d6004803603810190610168919061184a565b610d82565b60405161017a91906123d6565b60405180910390f35b61019d600480360381019061019891906118f0565b610fd8565b005b6101b960048036038101906101b4919061184a565b611245565b6040516101c691906124ae565b60405180910390f35b6101e960048036038101906101e49190611a09565b611697565b6040516101f69190612399565b60405180910390f35b6060600180548060200260200160405190810160405280929190818152602001828054801561028357602002820191906000526020600020905b8160009054906101000a900473ffffffffffffffffffffffffffffffffffffffff1673ffffffffffffffffffffffffffffffffffffffff1681526020019060010190808311610239575b5050505050905090565b6000808373ffffffffffffffffffffffffffffffffffffffff1673ffffffffffffffffffffffffffffffffffffffff16815260200190815260200160002060030160009054906101000a900460ff1661031b576040517f08c379a00000000000000000000000000000000000000000000000000000000081526004016103129061248e565b60405180910390fd5b806000808473ffffffffffffffffffffffffffffffffffffffff1673ffffffffffffffffffffffffffffffffffffffff168152602001908152602001600020600601819055505050565b600060205280600052604060002060009150905080600001805461038890612691565b80601f01602080910402602001604051908101604052809291908181526020018280546103b490612691565b80156104015780601f106103d657610100808354040283529160200191610401565b820191906000526020600020905b8154815290600101906020018083116103e457829003601f168201915b50505050509080600101805461041690612691565b80601f016020809104026020016040519081016040528092919081815260200182805461044290612691565b801561048f5780601f106104645761010080835404028352916020019161048f565b820191906000526020600020905b81548152906001019060200180831161047257829003601f168201915b5050505050908060020180546104a490612691565b80601f01602080910402602001604051908101604052809291908181526020018280546104d090612691565b801561051d5780601f106104f25761010080835404028352916020019161051d565b820191906000526020600020905b81548152906001019060200180831161050057829003601f168201915b5050505050908060030160009054906101000a900460ff16908060050154908060060154905086565b60006040516020016105579061235a565b604051602081830303815290604052805190602001208260405160200161057e9190612232565b6040516020818303038152906040528051906020012014156105a35760009050610b01565b6040516020016105b29061229d565b60405160208183030381529060405280519060200120826040516020016105d99190612232565b6040516020818303038152906040528051906020012014156105fe5760059050610b01565b60405160200161060d9061236f565b60405160208183030381529060405280519060200120826040516020016106349190612232565b60405160208183030381529060405280519060200120141561065957600a9050610b01565b604051602001610668906122c7565b604051602081830303815290604052805190602001208260405160200161068f9190612232565b6040516020818303038152906040528051906020012014156106b45760149050610b01565b6040516020016106c3906122b2565b60405160208183030381529060405280519060200120826040516020016106ea9190612232565b60405160208183030381529060405280519060200120141561070f5760329050610b01565b60405160200161071e9061225e565b60405160208183030381529060405280519060200120826040516020016107459190612232565b60405160208183030381529060405280519060200120141561076a5760649050610b01565b60405160200161077990612345565b60405160208183030381529060405280519060200120826040516020016107a09190612232565b6040516020818303038152906040528051906020012014156107c557607d9050610b01565b6040516020016107d4906122f1565b60405160208183030381529060405280519060200120826040516020016107fb9190612232565b6040516020818303038152906040528051906020012014156108205760969050610b01565b60405160200161082f90612306565b60405160208183030381529060405280519060200120826040516020016108569190612232565b60405160208183030381529060405280519060200120141561087b5760af9050610b01565b60405160200161088a90612330565b60405160208183030381529060405280519060200120826040516020016108b19190612232565b6040516020818303038152906040528051906020012014156108d65760c89050610b01565b6040516020016108e590612288565b604051602081830303815290604052805190602001208260405160200161090c9190612232565b6040516020818303038152906040528051906020012014156109315760e19050610b01565b604051602001610940906122dc565b60405160208183030381529060405280519060200120826040516020016109679190612232565b60405160208183030381529060405280519060200120141561098c5760fa9050610b01565b60405160200161099b90612273565b60405160208183030381529060405280519060200120826040516020016109c29190612232565b6040516020818303038152906040528051906020012014156109e8576101139050610b01565b6040516020016109f79061231b565b6040516020818303038152906040528051906020012082604051602001610a1e9190612232565b604051602081830303815290604052805190602001201415610a445761012c9050610b01565b604051602001610a5390612384565b6040516020818303038152906040528051906020012082604051602001610a7a9190612232565b604051602081830303815290604052805190602001201415610aa0576101459050610b01565b604051602001610aaf90612249565b6040516020818303038152906040528051906020012082604051602001610ad69190612232565b604051602081830303815290604052805190602001201415610afc5761015e9050610b01565b600090505b919050565b6000803373ffffffffffffffffffffffffffffffffffffffff1673ffffffffffffffffffffffffffffffffffffffff16815260200190815260200160002060030160009054906101000a900460ff16610b94576040517f08c379a0000000000000000000000000000000000000000000000000000000008152600401610b8b9061248e565b60405180910390fd5b856000803373ffffffffffffffffffffffffffffffffffffffff1673ffffffffffffffffffffffffffffffffffffffff1681526020019081526020016000206000019080519060200190610be99291906116d6565b50846000803373ffffffffffffffffffffffffffffffffffffffff1673ffffffffffffffffffffffffffffffffffffffff1681526020019081526020016000206001019080519060200190610c3f9291906116d6565b50836000803373ffffffffffffffffffffffffffffffffffffffff1673ffffffffffffffffffffffffffffffffffffffff1681526020019081526020016000206002019080519060200190610c959291906116d6565b50600060405180606001604052808581526020018481526020018381525090506000803373ffffffffffffffffffffffffffffffffffffffff1673ffffffffffffffffffffffffffffffffffffffff1681526020019081526020016000206004018190806001815401808255809150506001900390600052602060002090600302016000909190919091506000820151816000019080519060200190610d3c9291906116d6565b506020820151816001019080519060200190610d599291906116d6565b506040820151816002019080519060200190610d769291906116d6565b50505050505050505050565b60606000808373ffffffffffffffffffffffffffffffffffffffff1673ffffffffffffffffffffffffffffffffffffffff168152602001908152602001600020600401805480602002602001604051908101604052809291908181526020016000905b82821015610fcd5783829060005260206000209060030201604051806060016040529081600082018054610e1890612691565b80601f0160208091040260200160405190810160405280929190818152602001828054610e4490612691565b8015610e915780601f10610e6657610100808354040283529160200191610e91565b820191906000526020600020905b815481529060010190602001808311610e7457829003601f168201915b50505050508152602001600182018054610eaa90612691565b80601f0160208091040260200160405190810160405280929190818152602001828054610ed690612691565b8015610f235780601f10610ef857610100808354040283529160200191610f23565b820191906000526020600020905b815481529060010190602001808311610f0657829003601f168201915b50505050508152602001600282018054610f3c90612691565b80601f0160208091040260200160405190810160405280929190818152602001828054610f6890612691565b8015610fb55780601f10610f8a57610100808354040283529160200191610fb5565b820191906000526020600020905b815481529060010190602001808311610f9857829003601f168201915b50505050508152505081526020019060010190610de5565b505050509050919050565b6000803373ffffffffffffffffffffffffffffffffffffffff1673ffffffffffffffffffffffffffffffffffffffff16815260200190815260200160002060030160009054906101000a900460ff1615611067576040517f08c379a000000000000000000000000000000000000000000000000000000000815260040161105e9061246e565b60405180910390fd5b600061107284610546565b90506000604051806060016040528086815260200185815260200184815250905060008060003373ffffffffffffffffffffffffffffffffffffffff1673ffffffffffffffffffffffffffffffffffffffff1681526020019081526020016000209050888160000190805190602001906110ed9291906116d6565b50878160010190805190602001906111069291906116d6565b508681600201908051906020019061111f9291906116d6565b5060018160030160006101000a81548160ff0219169083151502179055508281600501819055506000816006018190555080600401829080600181540180825580915050600190039060005260206000209060030201600090919091909150600082015181600001908051906020019061119a9291906116d6565b5060208201518160010190805190602001906111b79291906116d6565b5060408201518160020190805190602001906111d49291906116d6565b5050506001339080600181540180825580915050600190039060005260206000200160009091909190916101000a81548173ffffffffffffffffffffffffffffffffffffffff021916908373ffffffffffffffffffffffffffffffffffffffff160217905550505050505050505050565b61124d61175c565b6000808373ffffffffffffffffffffffffffffffffffffffff1673ffffffffffffffffffffffffffffffffffffffff1681526020019081526020016000206040518060e00160405290816000820180546112a690612691565b80601f01602080910402602001604051908101604052809291908181526020018280546112d290612691565b801561131f5780601f106112f45761010080835404028352916020019161131f565b820191906000526020600020905b81548152906001019060200180831161130257829003601f168201915b5050505050815260200160018201805461133890612691565b80601f016020809104026020016040519081016040528092919081815260200182805461136490612691565b80156113b15780601f10611386576101008083540402835291602001916113b1565b820191906000526020600020905b81548152906001019060200180831161139457829003601f168201915b505050505081526020016002820180546113ca90612691565b80601f01602080910402602001604051908101604052809291908181526020018280546113f690612691565b80156114435780601f1061141857610100808354040283529160200191611443565b820191906000526020600020905b81548152906001019060200180831161142657829003601f168201915b505050505081526020016003820160009054906101000a900460ff1615151515815260200160048201805480602002602001604051908101604052809291908181526020016000905b8282101561167457838290600052602060002090600302016040518060600160405290816000820180546114bf90612691565b80601f01602080910402602001604051908101604052809291908181526020018280546114eb90612691565b80156115385780601f1061150d57610100808354040283529160200191611538565b820191906000526020600020905b81548152906001019060200180831161151b57829003601f168201915b5050505050815260200160018201805461155190612691565b80601f016020809104026020016040519081016040528092919081815260200182805461157d90612691565b80156115ca5780601f1061159f576101008083540402835291602001916115ca565b820191906000526020600020905b8154815290600101906020018083116115ad57829003601f168201915b505050505081526020016002820180546115e390612691565b80601f016020809104026020016040519081016040528092919081815260200182805461160f90612691565b801561165c5780601f106116315761010080835404028352916020019161165c565b820191906000526020600020905b81548152906001019060200180831161163f57829003601f168201915b5050505050815250508152602001906001019061148c565b505050508152602001600582015481526020016006820154815250509050919050565b600181815481106116a757600080fd5b906000526020600020016000915054906101000a900473ffffffffffffffffffffffffffffffffffffffff1681565b8280546116e290612691565b90600052602060002090601f016020900481019282611704576000855561174b565b82601f1061171d57805160ff191683800117855561174b565b8280016001018555821561174b579182015b8281111561174a57825182559160200191906001019061172f565b5b509050611758919061179b565b5090565b6040518060e001604052806060815260200160608152602001606081526020016000151581526020016060815260200160008152602001600081525090565b5b808211156117b457600081600090555060010161179c565b5090565b60006117cb6117c68461251c565b6124eb565b9050828152602081018484840111156117e357600080fd5b6117ee84828561264f565b509392505050565b60008135905061180581612732565b92915050565b600082601f83011261181c57600080fd5b813561182c8482602086016117b8565b91505092915050565b60008135905061184481612749565b92915050565b60006020828403121561185c57600080fd5b600061186a848285016117f6565b91505092915050565b6000806040838503121561188657600080fd5b6000611894858286016117f6565b92505060206118a585828601611835565b9150509250929050565b6000602082840312156118c157600080fd5b600082013567ffffffffffffffff8111156118db57600080fd5b6118e78482850161180b565b91505092915050565b60008060008060008060c0878903121561190957600080fd5b600087013567ffffffffffffffff81111561192357600080fd5b61192f89828a0161180b565b965050602087013567ffffffffffffffff81111561194c57600080fd5b61195889828a0161180b565b955050604087013567ffffffffffffffff81111561197557600080fd5b61198189828a0161180b565b945050606087013567ffffffffffffffff81111561199e57600080fd5b6119aa89828a0161180b565b935050608087013567ffffffffffffffff8111156119c757600080fd5b6119d389828a0161180b565b92505060a087013567ffffffffffffffff8111156119f057600080fd5b6119fc89828a0161180b565b9150509295509295509295565b600060208284031215611a1b57600080fd5b6000611a2984828501611835565b91505092915050565b6000611a3e8383611a5e565b60208301905092915050565b6000611a5683836121b6565b905092915050565b611a6781612607565b82525050565b611a7681612607565b82525050565b6000611a878261256c565b611a9181856125a7565b9350611a9c8361254c565b8060005b83811015611acd578151611ab48882611a32565b9750611abf8361258d565b925050600181019050611aa0565b5085935050505092915050565b6000611ae582612577565b611aef81856125b8565b935083602082028501611b018561255c565b8060005b85811015611b3d5784840389528151611b1e8582611a4a565b9450611b298361259a565b925060208a01995050600181019050611b05565b50829750879550505050505092915050565b6000611b5a82612577565b611b6481856125c9565b935083602082028501611b768561255c565b8060005b85811015611bb25784840389528151611b938582611a4a565b9450611b9e8361259a565b925060208a01995050600181019050611b7a565b50829750879550505050505092915050565b611bcd81612619565b82525050565b611bdc81612619565b82525050565b6000611bed82612582565b611bf781856125da565b9350611c0781856020860161265e565b611c1081612721565b840191505092915050565b6000611c2682612582565b611c3081856125eb565b9350611c4081856020860161265e565b611c4981612721565b840191505092915050565b6000611c5f82612582565b611c6981856125fc565b9350611c7981856020860161265e565b80840191505092915050565b6000611c926010836125fc565b91507f426c61636b2028313074682044616e29000000000000000000000000000000006000830152601082019050919050565b6000611cd26005836125fc565b91507f42726f776e0000000000000000000000000000000000000000000000000000006000830152600582019050919050565b6000611d12600f836125fc565b91507f426c61636b20283774682044616e2900000000000000000000000000000000006000830152600f82019050919050565b6000611d52600f836125fc565b91507f426c61636b20283574682044616e2900000000000000000000000000000000006000830152600f82019050919050565b6000611d926006836125fc565b91507f59656c6c6f7700000000000000000000000000000000000000000000000000006000830152600682019050919050565b6000611dd26004836125fc565b91507f426c7565000000000000000000000000000000000000000000000000000000006000830152600482019050919050565b6000611e126005836125fc565b91507f477265656e0000000000000000000000000000000000000000000000000000006000830152600582019050919050565b6000611e52600f836125fc565b91507f426c61636b20283674682044616e2900000000000000000000000000000000006000830152600f82019050919050565b6000611e92600f836125fc565b91507f426c61636b2028326e642044616e2900000000000000000000000000000000006000830152600f82019050919050565b6000611ed2600f836125fc565b91507f426c61636b20283372642044616e2900000000000000000000000000000000006000830152600f82019050919050565b6000611f12600f836125fc565b91507f426c61636b20283874682044616e2900000000000000000000000000000000006000830152600f82019050919050565b6000611f52600f836125fc565b91507f426c61636b20283474682044616e2900000000000000000000000000000000006000830152600f82019050919050565b6000611f92600f836125fc565b91507f426c61636b20283173742044616e2900000000000000000000000000000000006000830152600f82019050919050565b6000611fd2601d836125eb565b91507f4a75646f6b6120697320616c726561647920726567697374657265642e0000006000830152602082019050919050565b60006120126005836125fc565b91507f57686974650000000000000000000000000000000000000000000000000000006000830152600582019050919050565b60006120526019836125eb565b91507f4a75646f6b61206973206e6f7420726567697374657265642e000000000000006000830152602082019050919050565b60006120926006836125fc565b91507f4f72616e676500000000000000000000000000000000000000000000000000006000830152600682019050919050565b60006120d2600f836125fc565b91507f426c61636b20283974682044616e2900000000000000000000000000000000006000830152600f82019050919050565b600060e08301600083015184820360008601526121228282611be2565b9150506020830151848203602086015261213c8282611be2565b915050604083015184820360408601526121568282611be2565b915050606083015161216b6060860182611bc4565b50608083015184820360808601526121838282611ada565b91505060a083015161219860a0860182612214565b5060c08301516121ab60c0860182612214565b508091505092915050565b600060608301600083015184820360008601526121d38282611be2565b915050602083015184820360208601526121ed8282611be2565b915050604083015184820360408601526122078282611be2565b9150508091505092915050565b61221d81612645565b82525050565b61222c81612645565b82525050565b600061223e8284611c54565b915081905092915050565b600061225482611c85565b9150819050919050565b600061226982611cc5565b9150819050919050565b600061227e82611d05565b9150819050919050565b600061229382611d45565b9150819050919050565b60006122a882611d85565b9150819050919050565b60006122bd82611dc5565b9150819050919050565b60006122d282611e05565b9150819050919050565b60006122e782611e45565b9150819050919050565b60006122fc82611e85565b9150819050919050565b600061231182611ec5565b9150819050919050565b600061232682611f05565b9150819050919050565b600061233b82611f45565b9150819050919050565b600061235082611f85565b9150819050919050565b600061236582612005565b9150819050919050565b600061237a82612085565b9150819050919050565b600061238f826120c5565b9150819050919050565b60006020820190506123ae6000830184611a6d565b92915050565b600060208201905081810360008301526123ce8184611a7c565b905092915050565b600060208201905081810360008301526123f08184611b4f565b905092915050565b600060c08201905081810360008301526124128189611c1b565b905081810360208301526124268188611c1b565b9050818103604083015261243a8187611c1b565b90506124496060830186611bd3565b6124566080830185612223565b61246360a0830184612223565b979650505050505050565b6000602082019050818103600083015261248781611fc5565b9050919050565b600060208201905081810360008301526124a781612045565b9050919050565b600060208201905081810360008301526124c88184612105565b905092915050565b60006020820190506124e56000830184612223565b92915050565b6000604051905081810181811067ffffffffffffffff82111715612512576125116126f2565b5b8060405250919050565b600067ffffffffffffffff821115612537576125366126f2565b5b601f19601f8301169050602081019050919050565b6000819050602082019050919050565b6000819050602082019050919050565b600081519050919050565b600081519050919050565b600081519050919050565b6000602082019050919050565b6000602082019050919050565b600082825260208201905092915050565b600082825260208201905092915050565b600082825260208201905092915050565b600082825260208201905092915050565b600082825260208201905092915050565b600081905092915050565b600061261282612625565b9050919050565b60008115159050919050565b600073ffffffffffffffffffffffffffffffffffffffff82169050919050565b6000819050919050565b82818337600083830152505050565b60005b8381101561267c578082015181840152602081019050612661565b8381111561268b576000848401525b50505050565b600060028204905060018216806126a957607f821691505b602082108114156126bd576126bc6126c3565b5b50919050565b7f4e487b7100000000000000000000000000000000000000000000000000000000600052602260045260246000fd5b7f4e487b7100000000000000000000000000000000000000000000000000000000600052604160045260246000fd5b6000601f19601f8301169050919050565b61273b81612607565b811461274657600080fd5b50565b61275281612645565b811461275d57600080fd5b5056fea264697066735822122090fe4fc84839209c4b5c41e9510a74317416a7d76c7f65cba9af4de59bc76f9164736f6c63430008000033",
  "immutableReferences": {},
  "source": "// SPDX-License-Identifier: MIT\r\npragma solidity ^0.8.0;\r\n\r\ncontract JudokaRegistry {\r\n    struct Promotion {\r\n        string beltLevel;\r\n        string promotionDate;\r\n        string gym;\r\n    }\r\n\r\n    struct Judoka {\r\n        string firstName;\r\n        string lastName;\r\n        string email;\r\n        bool isRegistered;\r\n        Promotion[] promotions;\r\n        uint256 votingPower;\r\n        uint256 points;  // Add this field\r\n    }\r\n\r\n    mapping(address => Judoka) public judokas;\r\n    address[] public judokaAddresses;\r\n\r\n    function registerJudoka(\r\n        string memory _firstName,\r\n        string memory _lastName,\r\n        string memory _email,\r\n        string memory _beltLevel,\r\n        string memory _promotionDate,\r\n        string memory _gym\r\n    ) public {\r\n        require(!judokas[msg.sender].isRegistered, \"Judoka is already registered.\");\r\n\r\n        uint256 votingPower = getVotingPower(_beltLevel);\r\n\r\n        Promotion memory initialPromotion = Promotion({\r\n            beltLevel: _beltLevel,\r\n            promotionDate: _promotionDate,\r\n            gym: _gym\r\n        });\r\n\r\n        Judoka storage newJudoka = judokas[msg.sender];\r\n        newJudoka.firstName = _firstName;\r\n        newJudoka.lastName = _lastName;\r\n        newJudoka.email = _email;\r\n        newJudoka.isRegistered = true;\r\n        newJudoka.votingPower = votingPower;\r\n        newJudoka.points = 0;  // Initialize points to 0\r\n        newJudoka.promotions.push(initialPromotion);\r\n\r\n        judokaAddresses.push(msg.sender);\r\n    }\r\n\r\n    function getVotingPower(string memory _beltLevel) public pure returns (uint256) {\r\n        if (keccak256(abi.encodePacked((_beltLevel))) == keccak256(abi.encodePacked((\"White\")))) return 0;\r\n        if (keccak256(abi.encodePacked((_beltLevel))) == keccak256(abi.encodePacked((\"Yellow\")))) return 5;\r\n        if (keccak256(abi.encodePacked((_beltLevel))) == keccak256(abi.encodePacked((\"Orange\")))) return 10;\r\n        if (keccak256(abi.encodePacked((_beltLevel))) == keccak256(abi.encodePacked((\"Green\")))) return 20;\r\n        if (keccak256(abi.encodePacked((_beltLevel))) == keccak256(abi.encodePacked((\"Blue\")))) return 50;\r\n        if (keccak256(abi.encodePacked((_beltLevel))) == keccak256(abi.encodePacked((\"Brown\")))) return 100;\r\n        if (keccak256(abi.encodePacked((_beltLevel))) == keccak256(abi.encodePacked((\"Black (1st Dan)\")))) return 125;\r\n        if (keccak256(abi.encodePacked((_beltLevel))) == keccak256(abi.encodePacked((\"Black (2nd Dan)\")))) return 150;\r\n        if (keccak256(abi.encodePacked((_beltLevel))) == keccak256(abi.encodePacked((\"Black (3rd Dan)\")))) return 175;\r\n        if (keccak256(abi.encodePacked((_beltLevel))) == keccak256(abi.encodePacked((\"Black (4th Dan)\")))) return 200;\r\n        if (keccak256(abi.encodePacked((_beltLevel))) == keccak256(abi.encodePacked((\"Black (5th Dan)\")))) return 225;\r\n        if (keccak256(abi.encodePacked((_beltLevel))) == keccak256(abi.encodePacked((\"Black (6th Dan)\")))) return 250;\r\n        if (keccak256(abi.encodePacked((_beltLevel))) == keccak256(abi.encodePacked((\"Black (7th Dan)\")))) return 275;\r\n        if (keccak256(abi.encodePacked((_beltLevel))) == keccak256(abi.encodePacked((\"Black (8th Dan)\")))) return 300;\r\n        if (keccak256(abi.encodePacked((_beltLevel))) == keccak256(abi.encodePacked((\"Black (9th Dan)\")))) return 325;\r\n        if (keccak256(abi.encodePacked((_beltLevel))) == keccak256(abi.encodePacked((\"Black (10th Dan)\")))) return 350;\r\n        return 0;\r\n    }\r\n\r\n    function getJudoka(address _judokaAddress) public view returns (Judoka memory) {\r\n        return judokas[_judokaAddress];\r\n    }\r\n\r\n    function getJudokaPromotions(address _judokaAddress) public view returns (Promotion[] memory) {\r\n        return judokas[_judokaAddress].promotions;\r\n    }\r\n\r\n    function getAllJudokas() public view returns (address[] memory) {\r\n        return judokaAddresses;\r\n    }\r\n\r\n    function updateJudokaPoints(address _judokaAddress, uint256 newPoints) public {\r\n        require(judokas[_judokaAddress].isRegistered, \"Judoka is not registered.\");\r\n        judokas[_judokaAddress].points = newPoints;\r\n    }\r\n\r\n    function updateJudoka(\r\n        string memory _firstName,\r\n        string memory _lastName,\r\n        string memory _email,\r\n        string memory _beltLevel,\r\n        string memory _promotionDate,\r\n        string memory _gym\r\n    ) public {\r\n        require(judokas[msg.sender].isRegistered, \"Judoka is not registered.\");\r\n\r\n        judokas[msg.sender].firstName = _firstName;\r\n        judokas[msg.sender].lastName = _lastName;\r\n        judokas[msg.sender].email = _email;\r\n\r\n        Promotion memory newPromotion = Promotion({\r\n            beltLevel: _beltLevel,\r\n            promotionDate: _promotionDate,\r\n            gym: _gym\r\n        });\r\n\r\n        judokas[msg.sender].promotions.push(newPromotion);\r\n    }\r\n}\r\n",
  "sourcePath": "C:\\Users\\marti\\Documents\\projects\\judo-chain\\contracts\\JudokaRegistry.sol",
  "compiler": {
    "name": "solc",
    "version": "0.8.0+commit.c7dfd78e.Emscripten.clang"
  },
  "schemaVersion": "3.4.16",
  "updatedAt": "2024-06-26T08:01:19.428Z",
  "networkType": "ethereum",
  "devdoc": {
    "kind": "dev",
    "methods": {},
    "version": 1
  },
  "userdoc": {
    "kind": "user",
    "methods": {},
    "version": 1
  }
}