{
  "contractName": "JudokaRegistry",
  "abi": [
    {
      "inputs": [
        {
          "internalType": "address",
          "name": "",
          "type": "address"
        }
      ],
      "name": "judokas",
      "outputs": [
        {
          "internalType": "string",
          "name": "firstName",
          "type": "string"
        },
        {
          "internalType": "string",
          "name": "lastName",
          "type": "string"
        },
        {
          "internalType": "string",
          "name": "email",
          "type": "string"
        },
        {
          "internalType": "bool",
          "name": "isRegistered",
          "type": "bool"
        },
        {
          "internalType": "uint256",
          "name": "votingPower",
          "type": "uint256"
        }
      ],
      "stateMutability": "view",
      "type": "function",
      "constant": true
    },
    {
      "inputs": [
        {
          "internalType": "string",
          "name": "_firstName",
          "type": "string"
        },
        {
          "internalType": "string",
          "name": "_lastName",
          "type": "string"
        },
        {
          "internalType": "string",
          "name": "_email",
          "type": "string"
        },
        {
          "internalType": "string",
          "name": "_beltLevel",
          "type": "string"
        },
        {
          "internalType": "string",
          "name": "_promotionDate",
          "type": "string"
        },
        {
          "internalType": "string",
          "name": "_gym",
          "type": "string"
        }
      ],
      "name": "registerJudoka",
      "outputs": [],
      "stateMutability": "nonpayable",
      "type": "function"
    },
    {
      "inputs": [
        {
          "internalType": "string",
          "name": "_beltLevel",
          "type": "string"
        }
      ],
      "name": "getVotingPower",
      "outputs": [
        {
          "internalType": "uint256",
          "name": "",
          "type": "uint256"
        }
      ],
      "stateMutability": "pure",
      "type": "function",
      "constant": true
    },
    {
      "inputs": [
        {
          "internalType": "address",
          "name": "_judokaAddress",
          "type": "address"
        }
      ],
      "name": "getJudoka",
      "outputs": [
        {
          "components": [
            {
              "internalType": "string",
              "name": "firstName",
              "type": "string"
            },
            {
              "internalType": "string",
              "name": "lastName",
              "type": "string"
            },
            {
              "internalType": "string",
              "name": "email",
              "type": "string"
            },
            {
              "internalType": "bool",
              "name": "isRegistered",
              "type": "bool"
            },
            {
              "components": [
                {
                  "internalType": "string",
                  "name": "beltLevel",
                  "type": "string"
                },
                {
                  "internalType": "string",
                  "name": "promotionDate",
                  "type": "string"
                },
                {
                  "internalType": "string",
                  "name": "gym",
                  "type": "string"
                }
              ],
              "internalType": "struct JudokaRegistry.Promotion[]",
              "name": "promotions",
              "type": "tuple[]"
            },
            {
              "internalType": "uint256",
              "name": "votingPower",
              "type": "uint256"
            }
          ],
          "internalType": "struct JudokaRegistry.Judoka",
          "name": "",
          "type": "tuple"
        }
      ],
      "stateMutability": "view",
      "type": "function",
      "constant": true
    },
    {
      "inputs": [
        {
          "internalType": "address",
          "name": "_judokaAddress",
          "type": "address"
        }
      ],
      "name": "getJudokaPromotions",
      "outputs": [
        {
          "components": [
            {
              "internalType": "string",
              "name": "beltLevel",
              "type": "string"
            },
            {
              "internalType": "string",
              "name": "promotionDate",
              "type": "string"
            },
            {
              "internalType": "string",
              "name": "gym",
              "type": "string"
            }
          ],
          "internalType": "struct JudokaRegistry.Promotion[]",
          "name": "",
          "type": "tuple[]"
        }
      ],
      "stateMutability": "view",
      "type": "function",
      "constant": true
    },
    {
      "inputs": [
        {
          "internalType": "string",
          "name": "_firstName",
          "type": "string"
        },
        {
          "internalType": "string",
          "name": "_lastName",
          "type": "string"
        },
        {
          "internalType": "string",
          "name": "_email",
          "type": "string"
        },
        {
          "internalType": "string",
          "name": "_beltLevel",
          "type": "string"
        },
        {
          "internalType": "string",
          "name": "_promotionDate",
          "type": "string"
        },
        {
          "internalType": "string",
          "name": "_gym",
          "type": "string"
        }
      ],
      "name": "updateJudoka",
      "outputs": [],
      "stateMutability": "nonpayable",
      "type": "function"
    }
  ],
  "bytecode": "0x608060405234801561001057600080fd5b50612315806100206000396000f3fe608060405234801561001057600080fd5b50600436106100625760003560e01c80637d007f9f1461006757806380e9e17c1461009b57806397475023146100cb578063ab029db9146100e7578063de922e9114610117578063e19d1e2d14610133575b600080fd5b610081600480360381019061007c9190611570565b610163565b604051610092959493929190611fd5565b60405180910390f35b6100b560048036038101906100b09190611599565b61033e565b6040516100c2919061209f565b60405180910390f35b6100e560048036038101906100e091906115da565b6108fe565b005b61010160048036038101906100fc9190611570565b610b7a565b60405161010e9190611fb3565b60405180910390f35b610131600480360381019061012c91906115da565b610dd0565b005b61014d60048036038101906101489190611570565b610fd0565b60405161015a919061207d565b60405180910390f35b600060205280600052604060002060009150905080600001805461018690612227565b80601f01602080910402602001604051908101604052809291908181526020018280546101b290612227565b80156101ff5780601f106101d4576101008083540402835291602001916101ff565b820191906000526020600020905b8154815290600101906020018083116101e257829003601f168201915b50505050509080600101805461021490612227565b80601f016020809104026020016040519081016040528092919081815260200182805461024090612227565b801561028d5780601f106102625761010080835404028352916020019161028d565b820191906000526020600020905b81548152906001019060200180831161027057829003601f168201915b5050505050908060020180546102a290612227565b80601f01602080910402602001604051908101604052809291908181526020018280546102ce90612227565b801561031b5780601f106102f05761010080835404028352916020019161031b565b820191906000526020600020905b8154815290600101906020018083116102fe57829003601f168201915b5050505050908060030160009054906101000a900460ff16908060050154905085565b600060405160200161034f90611f74565b60405160208183030381529060405280519060200120826040516020016103769190611e4c565b60405160208183030381529060405280519060200120141561039b57600090506108f9565b6040516020016103aa90611eb7565b60405160208183030381529060405280519060200120826040516020016103d19190611e4c565b6040516020818303038152906040528051906020012014156103f657600590506108f9565b60405160200161040590611f89565b604051602081830303815290604052805190602001208260405160200161042c9190611e4c565b60405160208183030381529060405280519060200120141561045157600a90506108f9565b60405160200161046090611ee1565b60405160208183030381529060405280519060200120826040516020016104879190611e4c565b6040516020818303038152906040528051906020012014156104ac57601490506108f9565b6040516020016104bb90611ecc565b60405160208183030381529060405280519060200120826040516020016104e29190611e4c565b60405160208183030381529060405280519060200120141561050757603290506108f9565b60405160200161051690611e78565b604051602081830303815290604052805190602001208260405160200161053d9190611e4c565b60405160208183030381529060405280519060200120141561056257606490506108f9565b60405160200161057190611f5f565b60405160208183030381529060405280519060200120826040516020016105989190611e4c565b6040516020818303038152906040528051906020012014156105bd57607d90506108f9565b6040516020016105cc90611f0b565b60405160208183030381529060405280519060200120826040516020016105f39190611e4c565b60405160208183030381529060405280519060200120141561061857609690506108f9565b60405160200161062790611f20565b604051602081830303815290604052805190602001208260405160200161064e9190611e4c565b6040516020818303038152906040528051906020012014156106735760af90506108f9565b60405160200161068290611f4a565b60405160208183030381529060405280519060200120826040516020016106a99190611e4c565b6040516020818303038152906040528051906020012014156106ce5760c890506108f9565b6040516020016106dd90611ea2565b60405160208183030381529060405280519060200120826040516020016107049190611e4c565b6040516020818303038152906040528051906020012014156107295760e190506108f9565b60405160200161073890611ef6565b604051602081830303815290604052805190602001208260405160200161075f9190611e4c565b6040516020818303038152906040528051906020012014156107845760fa90506108f9565b60405160200161079390611e8d565b60405160208183030381529060405280519060200120826040516020016107ba9190611e4c565b6040516020818303038152906040528051906020012014156107e05761011390506108f9565b6040516020016107ef90611f35565b60405160208183030381529060405280519060200120826040516020016108169190611e4c565b60405160208183030381529060405280519060200120141561083c5761012c90506108f9565b60405160200161084b90611f9e565b60405160208183030381529060405280519060200120826040516020016108729190611e4c565b6040516020818303038152906040528051906020012014156108985761014590506108f9565b6040516020016108a790611e63565b60405160208183030381529060405280519060200120826040516020016108ce9190611e4c565b6040516020818303038152906040528051906020012014156108f45761015e90506108f9565b600090505b919050565b6000803373ffffffffffffffffffffffffffffffffffffffff1673ffffffffffffffffffffffffffffffffffffffff16815260200190815260200160002060030160009054906101000a900460ff1661098c576040517f08c379a00000000000000000000000000000000000000000000000000000000081526004016109839061205d565b60405180910390fd5b856000803373ffffffffffffffffffffffffffffffffffffffff1673ffffffffffffffffffffffffffffffffffffffff16815260200190815260200160002060000190805190602001906109e1929190611418565b50846000803373ffffffffffffffffffffffffffffffffffffffff1673ffffffffffffffffffffffffffffffffffffffff1681526020019081526020016000206001019080519060200190610a37929190611418565b50836000803373ffffffffffffffffffffffffffffffffffffffff1673ffffffffffffffffffffffffffffffffffffffff1681526020019081526020016000206002019080519060200190610a8d929190611418565b50600060405180606001604052808581526020018481526020018381525090506000803373ffffffffffffffffffffffffffffffffffffffff1673ffffffffffffffffffffffffffffffffffffffff1681526020019081526020016000206004018190806001815401808255809150506001900390600052602060002090600302016000909190919091506000820151816000019080519060200190610b34929190611418565b506020820151816001019080519060200190610b51929190611418565b506040820151816002019080519060200190610b6e929190611418565b50505050505050505050565b60606000808373ffffffffffffffffffffffffffffffffffffffff1673ffffffffffffffffffffffffffffffffffffffff168152602001908152602001600020600401805480602002602001604051908101604052809291908181526020016000905b82821015610dc55783829060005260206000209060030201604051806060016040529081600082018054610c1090612227565b80601f0160208091040260200160405190810160405280929190818152602001828054610c3c90612227565b8015610c895780601f10610c5e57610100808354040283529160200191610c89565b820191906000526020600020905b815481529060010190602001808311610c6c57829003601f168201915b50505050508152602001600182018054610ca290612227565b80601f0160208091040260200160405190810160405280929190818152602001828054610cce90612227565b8015610d1b5780601f10610cf057610100808354040283529160200191610d1b565b820191906000526020600020905b815481529060010190602001808311610cfe57829003601f168201915b50505050508152602001600282018054610d3490612227565b80601f0160208091040260200160405190810160405280929190818152602001828054610d6090612227565b8015610dad5780601f10610d8257610100808354040283529160200191610dad565b820191906000526020600020905b815481529060010190602001808311610d9057829003601f168201915b50505050508152505081526020019060010190610bdd565b505050509050919050565b6000803373ffffffffffffffffffffffffffffffffffffffff1673ffffffffffffffffffffffffffffffffffffffff16815260200190815260200160002060030160009054906101000a900460ff1615610e5f576040517f08c379a0000000000000000000000000000000000000000000000000000000008152600401610e569061203d565b60405180910390fd5b6000610e6a8461033e565b90506000604051806060016040528086815260200185815260200184815250905060008060003373ffffffffffffffffffffffffffffffffffffffff1673ffffffffffffffffffffffffffffffffffffffff168152602001908152602001600020905088816000019080519060200190610ee5929190611418565b5087816001019080519060200190610efe929190611418565b5086816002019080519060200190610f17929190611418565b5060018160030160006101000a81548160ff021916908315150217905550828160050181905550806004018290806001815401808255809150506001900390600052602060002090600302016000909190919091506000820151816000019080519060200190610f88929190611418565b506020820151816001019080519060200190610fa5929190611418565b506040820151816002019080519060200190610fc2929190611418565b505050505050505050505050565b610fd861149e565b6000808373ffffffffffffffffffffffffffffffffffffffff1673ffffffffffffffffffffffffffffffffffffffff1681526020019081526020016000206040518060c001604052908160008201805461103190612227565b80601f016020809104026020016040519081016040528092919081815260200182805461105d90612227565b80156110aa5780601f1061107f576101008083540402835291602001916110aa565b820191906000526020600020905b81548152906001019060200180831161108d57829003601f168201915b505050505081526020016001820180546110c390612227565b80601f01602080910402602001604051908101604052809291908181526020018280546110ef90612227565b801561113c5780601f106111115761010080835404028352916020019161113c565b820191906000526020600020905b81548152906001019060200180831161111f57829003601f168201915b5050505050815260200160028201805461115590612227565b80601f016020809104026020016040519081016040528092919081815260200182805461118190612227565b80156111ce5780601f106111a3576101008083540402835291602001916111ce565b820191906000526020600020905b8154815290600101906020018083116111b157829003601f168201915b505050505081526020016003820160009054906101000a900460ff1615151515815260200160048201805480602002602001604051908101604052809291908181526020016000905b828210156113ff578382906000526020600020906003020160405180606001604052908160008201805461124a90612227565b80601f016020809104026020016040519081016040528092919081815260200182805461127690612227565b80156112c35780601f10611298576101008083540402835291602001916112c3565b820191906000526020600020905b8154815290600101906020018083116112a657829003601f168201915b505050505081526020016001820180546112dc90612227565b80601f016020809104026020016040519081016040528092919081815260200182805461130890612227565b80156113555780601f1061132a57610100808354040283529160200191611355565b820191906000526020600020905b81548152906001019060200180831161133857829003601f168201915b5050505050815260200160028201805461136e90612227565b80601f016020809104026020016040519081016040528092919081815260200182805461139a90612227565b80156113e75780601f106113bc576101008083540402835291602001916113e7565b820191906000526020600020905b8154815290600101906020018083116113ca57829003601f168201915b50505050508152505081526020019060010190611217565b5050505081526020016005820154815250509050919050565b82805461142490612227565b90600052602060002090601f016020900481019282611446576000855561148d565b82601f1061145f57805160ff191683800117855561148d565b8280016001018555821561148d579182015b8281111561148c578251825591602001919060010190611471565b5b50905061149a91906114d6565b5090565b6040518060c0016040528060608152602001606081526020016060815260200160001515815260200160608152602001600081525090565b5b808211156114ef5760008160009055506001016114d7565b5090565b6000611506611501846120eb565b6120ba565b90508281526020810184848401111561151e57600080fd5b6115298482856121e5565b509392505050565b600081359050611540816122c8565b92915050565b600082601f83011261155757600080fd5b81356115678482602086016114f3565b91505092915050565b60006020828403121561158257600080fd5b600061159084828501611531565b91505092915050565b6000602082840312156115ab57600080fd5b600082013567ffffffffffffffff8111156115c557600080fd5b6115d184828501611546565b91505092915050565b60008060008060008060c087890312156115f357600080fd5b600087013567ffffffffffffffff81111561160d57600080fd5b61161989828a01611546565b965050602087013567ffffffffffffffff81111561163657600080fd5b61164289828a01611546565b955050604087013567ffffffffffffffff81111561165f57600080fd5b61166b89828a01611546565b945050606087013567ffffffffffffffff81111561168857600080fd5b61169489828a01611546565b935050608087013567ffffffffffffffff8111156116b157600080fd5b6116bd89828a01611546565b92505060a087013567ffffffffffffffff8111156116da57600080fd5b6116e689828a01611546565b9150509295509295509295565b60006116ff8383611dd0565b905092915050565b60006117128261212b565b61171c818561214e565b93508360208202850161172e8561211b565b8060005b8581101561176a578484038952815161174b85826116f3565b945061175683612141565b925060208a01995050600181019050611732565b50829750879550505050505092915050565b60006117878261212b565b611791818561215f565b9350836020820285016117a38561211b565b8060005b858110156117df57848403895281516117c085826116f3565b94506117cb83612141565b925060208a019950506001810190506117a7565b50829750879550505050505092915050565b6117fa816121af565b82525050565b611809816121af565b82525050565b600061181a82612136565b6118248185612170565b93506118348185602086016121f4565b61183d816122b7565b840191505092915050565b600061185382612136565b61185d8185612181565b935061186d8185602086016121f4565b611876816122b7565b840191505092915050565b600061188c82612136565b6118968185612192565b93506118a68185602086016121f4565b80840191505092915050565b60006118bf601083612192565b91507f426c61636b2028313074682044616e29000000000000000000000000000000006000830152601082019050919050565b60006118ff600583612192565b91507f42726f776e0000000000000000000000000000000000000000000000000000006000830152600582019050919050565b600061193f600f83612192565b91507f426c61636b20283774682044616e2900000000000000000000000000000000006000830152600f82019050919050565b600061197f600f83612192565b91507f426c61636b20283574682044616e2900000000000000000000000000000000006000830152600f82019050919050565b60006119bf600683612192565b91507f59656c6c6f7700000000000000000000000000000000000000000000000000006000830152600682019050919050565b60006119ff600483612192565b91507f426c7565000000000000000000000000000000000000000000000000000000006000830152600482019050919050565b6000611a3f600583612192565b91507f477265656e0000000000000000000000000000000000000000000000000000006000830152600582019050919050565b6000611a7f600f83612192565b91507f426c61636b20283674682044616e2900000000000000000000000000000000006000830152600f82019050919050565b6000611abf600f83612192565b91507f426c61636b2028326e642044616e2900000000000000000000000000000000006000830152600f82019050919050565b6000611aff600f83612192565b91507f426c61636b20283372642044616e2900000000000000000000000000000000006000830152600f82019050919050565b6000611b3f600f83612192565b91507f426c61636b20283874682044616e2900000000000000000000000000000000006000830152600f82019050919050565b6000611b7f600f83612192565b91507f426c61636b20283474682044616e2900000000000000000000000000000000006000830152600f82019050919050565b6000611bbf600f83612192565b91507f426c61636b20283173742044616e2900000000000000000000000000000000006000830152600f82019050919050565b6000611bff601d83612181565b91507f4a75646f6b6120697320616c726561647920726567697374657265642e0000006000830152602082019050919050565b6000611c3f600583612192565b91507f57686974650000000000000000000000000000000000000000000000000000006000830152600582019050919050565b6000611c7f601983612181565b91507f4a75646f6b61206973206e6f7420726567697374657265642e000000000000006000830152602082019050919050565b6000611cbf600683612192565b91507f4f72616e676500000000000000000000000000000000000000000000000000006000830152600682019050919050565b6000611cff600f83612192565b91507f426c61636b20283974682044616e2900000000000000000000000000000000006000830152600f82019050919050565b600060c0830160008301518482036000860152611d4f828261180f565b91505060208301518482036020860152611d69828261180f565b91505060408301518482036040860152611d83828261180f565b9150506060830151611d9860608601826117f1565b5060808301518482036080860152611db08282611707565b91505060a0830151611dc560a0860182611e2e565b508091505092915050565b60006060830160008301518482036000860152611ded828261180f565b91505060208301518482036020860152611e07828261180f565b91505060408301518482036040860152611e21828261180f565b9150508091505092915050565b611e37816121db565b82525050565b611e46816121db565b82525050565b6000611e588284611881565b915081905092915050565b6000611e6e826118b2565b9150819050919050565b6000611e83826118f2565b9150819050919050565b6000611e9882611932565b9150819050919050565b6000611ead82611972565b9150819050919050565b6000611ec2826119b2565b9150819050919050565b6000611ed7826119f2565b9150819050919050565b6000611eec82611a32565b9150819050919050565b6000611f0182611a72565b9150819050919050565b6000611f1682611ab2565b9150819050919050565b6000611f2b82611af2565b9150819050919050565b6000611f4082611b32565b9150819050919050565b6000611f5582611b72565b9150819050919050565b6000611f6a82611bb2565b9150819050919050565b6000611f7f82611c32565b9150819050919050565b6000611f9482611cb2565b9150819050919050565b6000611fa982611cf2565b9150819050919050565b60006020820190508181036000830152611fcd818461177c565b905092915050565b600060a0820190508181036000830152611fef8188611848565b905081810360208301526120038187611848565b905081810360408301526120178186611848565b90506120266060830185611800565b6120336080830184611e3d565b9695505050505050565b6000602082019050818103600083015261205681611bf2565b9050919050565b6000602082019050818103600083015261207681611c72565b9050919050565b600060208201905081810360008301526120978184611d32565b905092915050565b60006020820190506120b46000830184611e3d565b92915050565b6000604051905081810181811067ffffffffffffffff821117156120e1576120e0612288565b5b8060405250919050565b600067ffffffffffffffff82111561210657612105612288565b5b601f19601f8301169050602081019050919050565b6000819050602082019050919050565b600081519050919050565b600081519050919050565b6000602082019050919050565b600082825260208201905092915050565b600082825260208201905092915050565b600082825260208201905092915050565b600082825260208201905092915050565b600081905092915050565b60006121a8826121bb565b9050919050565b60008115159050919050565b600073ffffffffffffffffffffffffffffffffffffffff82169050919050565b6000819050919050565b82818337600083830152505050565b60005b838110156122125780820151818401526020810190506121f7565b83811115612221576000848401525b50505050565b6000600282049050600182168061223f57607f821691505b6020821081141561225357612252612259565b5b50919050565b7f4e487b7100000000000000000000000000000000000000000000000000000000600052602260045260246000fd5b7f4e487b7100000000000000000000000000000000000000000000000000000000600052604160045260246000fd5b6000601f19601f8301169050919050565b6122d18161219d565b81146122dc57600080fd5b5056fea2646970667358221220227017480a447ace1b34e6969fd406362f731510102fa2d9403699866278476c64736f6c63430008000033",
  "immutableReferences": {},
  "source": "// SPDX-License-Identifier: MIT\r\npragma solidity ^0.8.0;\r\n\r\ncontract JudokaRegistry {\r\n    struct Promotion {\r\n        string beltLevel;\r\n        string promotionDate;\r\n        string gym;\r\n    }\r\n\r\n    struct Judoka {\r\n        string firstName;\r\n        string lastName;\r\n        string email;\r\n        bool isRegistered;\r\n        Promotion[] promotions;\r\n        uint256 votingPower;\r\n    }\r\n\r\n    mapping(address => Judoka) public judokas;\r\n\r\n    function registerJudoka(\r\n        string memory _firstName,\r\n        string memory _lastName,\r\n        string memory _email,\r\n        string memory _beltLevel,\r\n        string memory _promotionDate,\r\n        string memory _gym\r\n    ) public {\r\n        require(!judokas[msg.sender].isRegistered, \"Judoka is already registered.\");\r\n\r\n        uint256 votingPower = getVotingPower(_beltLevel);\r\n\r\n        Promotion memory initialPromotion = Promotion({\r\n            beltLevel: _beltLevel,\r\n            promotionDate: _promotionDate,\r\n            gym: _gym\r\n        });\r\n\r\n        Judoka storage newJudoka = judokas[msg.sender];\r\n        newJudoka.firstName = _firstName;\r\n        newJudoka.lastName = _lastName;\r\n        newJudoka.email = _email;\r\n        newJudoka.isRegistered = true;\r\n        newJudoka.votingPower = votingPower;\r\n        newJudoka.promotions.push(initialPromotion);\r\n    }\r\n\r\n    function getVotingPower(string memory _beltLevel) public pure returns (uint256) {\r\n        if (keccak256(abi.encodePacked((_beltLevel))) == keccak256(abi.encodePacked((\"White\")))) return 0;\r\n        if (keccak256(abi.encodePacked((_beltLevel))) == keccak256(abi.encodePacked((\"Yellow\")))) return 5;\r\n        if (keccak256(abi.encodePacked((_beltLevel))) == keccak256(abi.encodePacked((\"Orange\")))) return 10;\r\n        if (keccak256(abi.encodePacked((_beltLevel))) == keccak256(abi.encodePacked((\"Green\")))) return 20;\r\n        if (keccak256(abi.encodePacked((_beltLevel))) == keccak256(abi.encodePacked((\"Blue\")))) return 50;\r\n        if (keccak256(abi.encodePacked((_beltLevel))) == keccak256(abi.encodePacked((\"Brown\")))) return 100;\r\n        if (keccak256(abi.encodePacked((_beltLevel))) == keccak256(abi.encodePacked((\"Black (1st Dan)\")))) return 125;\r\n        if (keccak256(abi.encodePacked((_beltLevel))) == keccak256(abi.encodePacked((\"Black (2nd Dan)\")))) return 150;\r\n        if (keccak256(abi.encodePacked((_beltLevel))) == keccak256(abi.encodePacked((\"Black (3rd Dan)\")))) return 175;\r\n        if (keccak256(abi.encodePacked((_beltLevel))) == keccak256(abi.encodePacked((\"Black (4th Dan)\")))) return 200;\r\n        if (keccak256(abi.encodePacked((_beltLevel))) == keccak256(abi.encodePacked((\"Black (5th Dan)\")))) return 225;\r\n        if (keccak256(abi.encodePacked((_beltLevel))) == keccak256(abi.encodePacked((\"Black (6th Dan)\")))) return 250;\r\n        if (keccak256(abi.encodePacked((_beltLevel))) == keccak256(abi.encodePacked((\"Black (7th Dan)\")))) return 275;\r\n        if (keccak256(abi.encodePacked((_beltLevel))) == keccak256(abi.encodePacked((\"Black (8th Dan)\")))) return 300;\r\n        if (keccak256(abi.encodePacked((_beltLevel))) == keccak256(abi.encodePacked((\"Black (9th Dan)\")))) return 325;\r\n        if (keccak256(abi.encodePacked((_beltLevel))) == keccak256(abi.encodePacked((\"Black (10th Dan)\")))) return 350;\r\n        return 0;\r\n    }\r\n\r\n    function getJudoka(address _judokaAddress) public view returns (Judoka memory) {\r\n        return judokas[_judokaAddress];\r\n    }\r\n\r\n    function getJudokaPromotions(address _judokaAddress) public view returns (Promotion[] memory) {\r\n        return judokas[_judokaAddress].promotions;\r\n    }\r\n\r\n    function updateJudoka(\r\n        string memory _firstName,\r\n        string memory _lastName,\r\n        string memory _email,\r\n        string memory _beltLevel,\r\n        string memory _promotionDate,\r\n        string memory _gym\r\n    ) public {\r\n        require(judokas[msg.sender].isRegistered, \"Judoka is not registered.\");\r\n        \r\n        judokas[msg.sender].firstName = _firstName;\r\n        judokas[msg.sender].lastName = _lastName;\r\n        judokas[msg.sender].email = _email;\r\n\r\n        Promotion memory newPromotion = Promotion({\r\n            beltLevel: _beltLevel,\r\n            promotionDate: _promotionDate,\r\n            gym: _gym\r\n        });\r\n\r\n        judokas[msg.sender].promotions.push(newPromotion);\r\n    }\r\n}\r\n",
  "sourcePath": "C:\\Users\\marti\\Documents\\projects\\judo-chain\\contracts\\JudokaRegistry.sol",
  "compiler": {
    "name": "solc",
    "version": "0.8.0+commit.c7dfd78e.Emscripten.clang"
  },
  "schemaVersion": "3.4.16",
  "updatedAt": "2024-06-18T09:18:26.887Z",
  "networkType": "ethereum",
  "devdoc": {
    "kind": "dev",
    "methods": {},
    "version": 1
  },
  "userdoc": {
    "kind": "user",
    "methods": {},
    "version": 1
  }
}