{
  "contractName": "JudokaRegistry",
  "abi": [
    {
      "inputs": [
        {
          "internalType": "address",
          "name": "",
          "type": "address"
        }
      ],
      "name": "judokas",
      "outputs": [
        {
          "internalType": "string",
          "name": "firstName",
          "type": "string"
        },
        {
          "internalType": "string",
          "name": "lastName",
          "type": "string"
        },
        {
          "internalType": "string",
          "name": "email",
          "type": "string"
        },
        {
          "internalType": "string",
          "name": "beltLevel",
          "type": "string"
        },
        {
          "internalType": "string",
          "name": "promotionDate",
          "type": "string"
        },
        {
          "internalType": "string",
          "name": "gym",
          "type": "string"
        },
        {
          "internalType": "bool",
          "name": "isRegistered",
          "type": "bool"
        }
      ],
      "stateMutability": "view",
      "type": "function",
      "constant": true
    },
    {
      "inputs": [
        {
          "internalType": "string",
          "name": "_firstName",
          "type": "string"
        },
        {
          "internalType": "string",
          "name": "_lastName",
          "type": "string"
        },
        {
          "internalType": "string",
          "name": "_email",
          "type": "string"
        },
        {
          "internalType": "string",
          "name": "_beltLevel",
          "type": "string"
        },
        {
          "internalType": "string",
          "name": "_promotionDate",
          "type": "string"
        },
        {
          "internalType": "string",
          "name": "_gym",
          "type": "string"
        }
      ],
      "name": "registerJudoka",
      "outputs": [],
      "stateMutability": "nonpayable",
      "type": "function"
    },
    {
      "inputs": [
        {
          "internalType": "address",
          "name": "_judokaAddress",
          "type": "address"
        }
      ],
      "name": "getJudoka",
      "outputs": [
        {
          "components": [
            {
              "internalType": "string",
              "name": "firstName",
              "type": "string"
            },
            {
              "internalType": "string",
              "name": "lastName",
              "type": "string"
            },
            {
              "internalType": "string",
              "name": "email",
              "type": "string"
            },
            {
              "internalType": "string",
              "name": "beltLevel",
              "type": "string"
            },
            {
              "internalType": "string",
              "name": "promotionDate",
              "type": "string"
            },
            {
              "internalType": "string",
              "name": "gym",
              "type": "string"
            },
            {
              "internalType": "bool",
              "name": "isRegistered",
              "type": "bool"
            }
          ],
          "internalType": "struct JudokaRegistry.Judoka",
          "name": "",
          "type": "tuple"
        }
      ],
      "stateMutability": "view",
      "type": "function",
      "constant": true
    },
    {
      "inputs": [
        {
          "internalType": "string",
          "name": "_firstName",
          "type": "string"
        },
        {
          "internalType": "string",
          "name": "_lastName",
          "type": "string"
        },
        {
          "internalType": "string",
          "name": "_email",
          "type": "string"
        },
        {
          "internalType": "string",
          "name": "_beltLevel",
          "type": "string"
        },
        {
          "internalType": "string",
          "name": "_promotionDate",
          "type": "string"
        },
        {
          "internalType": "string",
          "name": "_gym",
          "type": "string"
        }
      ],
      "name": "updateJudoka",
      "outputs": [],
      "stateMutability": "nonpayable",
      "type": "function"
    }
  ],
  "bytecode": "0x608060405234801561001057600080fd5b5061142a806100206000396000f3fe608060405234801561001057600080fd5b506004361061004c5760003560e01c80637d007f9f146100515780639747502314610087578063de922e91146100a3578063e19d1e2d146100bf575b600080fd5b61006b60048036038101906100669190610e22565b6100ef565b60405161007e9796959493929190611133565b60405180910390f35b6100a1600480360381019061009c9190610e4b565b61046e565b005b6100bd60048036038101906100b89190610e4b565b610708565b005b6100d960048036038101906100d49190610e22565b6108e4565b6040516100e6919061120c565b60405180910390f35b60006020528060005260406000206000915090508060000180546101129061133c565b80601f016020809104026020016040519081016040528092919081815260200182805461013e9061133c565b801561018b5780601f106101605761010080835404028352916020019161018b565b820191906000526020600020905b81548152906001019060200180831161016e57829003601f168201915b5050505050908060010180546101a09061133c565b80601f01602080910402602001604051908101604052809291908181526020018280546101cc9061133c565b80156102195780601f106101ee57610100808354040283529160200191610219565b820191906000526020600020905b8154815290600101906020018083116101fc57829003601f168201915b50505050509080600201805461022e9061133c565b80601f016020809104026020016040519081016040528092919081815260200182805461025a9061133c565b80156102a75780601f1061027c576101008083540402835291602001916102a7565b820191906000526020600020905b81548152906001019060200180831161028a57829003601f168201915b5050505050908060030180546102bc9061133c565b80601f01602080910402602001604051908101604052809291908181526020018280546102e89061133c565b80156103355780601f1061030a57610100808354040283529160200191610335565b820191906000526020600020905b81548152906001019060200180831161031857829003601f168201915b50505050509080600401805461034a9061133c565b80601f01602080910402602001604051908101604052809291908181526020018280546103769061133c565b80156103c35780601f10610398576101008083540402835291602001916103c3565b820191906000526020600020905b8154815290600101906020018083116103a657829003601f168201915b5050505050908060050180546103d89061133c565b80601f01602080910402602001604051908101604052809291908181526020018280546104049061133c565b80156104515780601f1061042657610100808354040283529160200191610451565b820191906000526020600020905b81548152906001019060200180831161043457829003601f168201915b5050505050908060060160009054906101000a900460ff16905087565b6000803373ffffffffffffffffffffffffffffffffffffffff1673ffffffffffffffffffffffffffffffffffffffff16815260200190815260200160002060060160009054906101000a900460ff166104fc576040517f08c379a00000000000000000000000000000000000000000000000000000000081526004016104f3906111ec565b60405180910390fd5b856000803373ffffffffffffffffffffffffffffffffffffffff1673ffffffffffffffffffffffffffffffffffffffff1681526020019081526020016000206000019080519060200190610551929190610cc3565b50846000803373ffffffffffffffffffffffffffffffffffffffff1673ffffffffffffffffffffffffffffffffffffffff16815260200190815260200160002060010190805190602001906105a7929190610cc3565b50836000803373ffffffffffffffffffffffffffffffffffffffff1673ffffffffffffffffffffffffffffffffffffffff16815260200190815260200160002060020190805190602001906105fd929190610cc3565b50826000803373ffffffffffffffffffffffffffffffffffffffff1673ffffffffffffffffffffffffffffffffffffffff1681526020019081526020016000206003019080519060200190610653929190610cc3565b50816000803373ffffffffffffffffffffffffffffffffffffffff1673ffffffffffffffffffffffffffffffffffffffff16815260200190815260200160002060040190805190602001906106a9929190610cc3565b50806000803373ffffffffffffffffffffffffffffffffffffffff1673ffffffffffffffffffffffffffffffffffffffff16815260200190815260200160002060050190805190602001906106ff929190610cc3565b50505050505050565b6000803373ffffffffffffffffffffffffffffffffffffffff1673ffffffffffffffffffffffffffffffffffffffff16815260200190815260200160002060060160009054906101000a900460ff1615610797576040517f08c379a000000000000000000000000000000000000000000000000000000000815260040161078e906111cc565b60405180910390fd5b6040518060e00160405280878152602001868152602001858152602001848152602001838152602001828152602001600115158152506000803373ffffffffffffffffffffffffffffffffffffffff1673ffffffffffffffffffffffffffffffffffffffff1681526020019081526020016000206000820151816000019080519060200190610827929190610cc3565b506020820151816001019080519060200190610844929190610cc3565b506040820151816002019080519060200190610861929190610cc3565b50606082015181600301908051906020019061087e929190610cc3565b50608082015181600401908051906020019061089b929190610cc3565b5060a08201518160050190805190602001906108b8929190610cc3565b5060c08201518160060160006101000a81548160ff021916908315150217905550905050505050505050565b6108ec610d49565b6000808373ffffffffffffffffffffffffffffffffffffffff1673ffffffffffffffffffffffffffffffffffffffff1681526020019081526020016000206040518060e00160405290816000820180546109459061133c565b80601f01602080910402602001604051908101604052809291908181526020018280546109719061133c565b80156109be5780601f10610993576101008083540402835291602001916109be565b820191906000526020600020905b8154815290600101906020018083116109a157829003601f168201915b505050505081526020016001820180546109d79061133c565b80601f0160208091040260200160405190810160405280929190818152602001828054610a039061133c565b8015610a505780601f10610a2557610100808354040283529160200191610a50565b820191906000526020600020905b815481529060010190602001808311610a3357829003601f168201915b50505050508152602001600282018054610a699061133c565b80601f0160208091040260200160405190810160405280929190818152602001828054610a959061133c565b8015610ae25780601f10610ab757610100808354040283529160200191610ae2565b820191906000526020600020905b815481529060010190602001808311610ac557829003601f168201915b50505050508152602001600382018054610afb9061133c565b80601f0160208091040260200160405190810160405280929190818152602001828054610b279061133c565b8015610b745780601f10610b4957610100808354040283529160200191610b74565b820191906000526020600020905b815481529060010190602001808311610b5757829003601f168201915b50505050508152602001600482018054610b8d9061133c565b80601f0160208091040260200160405190810160405280929190818152602001828054610bb99061133c565b8015610c065780601f10610bdb57610100808354040283529160200191610c06565b820191906000526020600020905b815481529060010190602001808311610be957829003601f168201915b50505050508152602001600582018054610c1f9061133c565b80601f0160208091040260200160405190810160405280929190818152602001828054610c4b9061133c565b8015610c985780601f10610c6d57610100808354040283529160200191610c98565b820191906000526020600020905b815481529060010190602001808311610c7b57829003601f168201915b505050505081526020016006820160009054906101000a900460ff1615151515815250509050919050565b828054610ccf9061133c565b90600052602060002090601f016020900481019282610cf15760008555610d38565b82601f10610d0a57805160ff1916838001178555610d38565b82800160010185558215610d38579182015b82811115610d37578251825591602001919060010190610d1c565b5b509050610d459190610d88565b5090565b6040518060e001604052806060815260200160608152602001606081526020016060815260200160608152602001606081526020016000151581525090565b5b80821115610da1576000816000905550600101610d89565b5090565b6000610db8610db38461125f565b61122e565b905082815260208101848484011115610dd057600080fd5b610ddb8482856112fa565b509392505050565b600081359050610df2816113dd565b92915050565b600082601f830112610e0957600080fd5b8135610e19848260208601610da5565b91505092915050565b600060208284031215610e3457600080fd5b6000610e4284828501610de3565b91505092915050565b60008060008060008060c08789031215610e6457600080fd5b600087013567ffffffffffffffff811115610e7e57600080fd5b610e8a89828a01610df8565b965050602087013567ffffffffffffffff811115610ea757600080fd5b610eb389828a01610df8565b955050604087013567ffffffffffffffff811115610ed057600080fd5b610edc89828a01610df8565b945050606087013567ffffffffffffffff811115610ef957600080fd5b610f0589828a01610df8565b935050608087013567ffffffffffffffff811115610f2257600080fd5b610f2e89828a01610df8565b92505060a087013567ffffffffffffffff811115610f4b57600080fd5b610f5789828a01610df8565b9150509295509295509295565b610f6d816112ce565b82525050565b610f7c816112ce565b82525050565b6000610f8d8261128f565b610f97818561129a565b9350610fa7818560208601611309565b610fb0816113cc565b840191505092915050565b6000610fc68261128f565b610fd081856112ab565b9350610fe0818560208601611309565b610fe9816113cc565b840191505092915050565b6000611001601d836112ab565b91507f4a75646f6b6120697320616c726561647920726567697374657265642e0000006000830152602082019050919050565b60006110416019836112ab565b91507f4a75646f6b61206973206e6f7420726567697374657265642e000000000000006000830152602082019050919050565b600060e08301600083015184820360008601526110918282610f82565b915050602083015184820360208601526110ab8282610f82565b915050604083015184820360408601526110c58282610f82565b915050606083015184820360608601526110df8282610f82565b915050608083015184820360808601526110f98282610f82565b91505060a083015184820360a08601526111138282610f82565b91505060c083015161112860c0860182610f64565b508091505092915050565b600060e082019050818103600083015261114d818a610fbb565b905081810360208301526111618189610fbb565b905081810360408301526111758188610fbb565b905081810360608301526111898187610fbb565b9050818103608083015261119d8186610fbb565b905081810360a08301526111b18185610fbb565b90506111c060c0830184610f73565b98975050505050505050565b600060208201905081810360008301526111e581610ff4565b9050919050565b6000602082019050818103600083015261120581611034565b9050919050565b600060208201905081810360008301526112268184611074565b905092915050565b6000604051905081810181811067ffffffffffffffff821117156112555761125461139d565b5b8060405250919050565b600067ffffffffffffffff82111561127a5761127961139d565b5b601f19601f8301169050602081019050919050565b600081519050919050565b600082825260208201905092915050565b600082825260208201905092915050565b60006112c7826112da565b9050919050565b60008115159050919050565b600073ffffffffffffffffffffffffffffffffffffffff82169050919050565b82818337600083830152505050565b60005b8381101561132757808201518184015260208101905061130c565b83811115611336576000848401525b50505050565b6000600282049050600182168061135457607f821691505b602082108114156113685761136761136e565b5b50919050565b7f4e487b7100000000000000000000000000000000000000000000000000000000600052602260045260246000fd5b7f4e487b7100000000000000000000000000000000000000000000000000000000600052604160045260246000fd5b6000601f19601f8301169050919050565b6113e6816112bc565b81146113f157600080fd5b5056fea26469706673582212202b3d392c5b1a7f69e15b7c108151040019a4a8c16ac3430d87c116bf7bb7e37e64736f6c63430008000033",
  "immutableReferences": {},
  "source": "// SPDX-License-Identifier: MIT\r\npragma solidity ^0.8.0;\r\n\r\ncontract JudokaRegistry {\r\n    struct Judoka {\r\n        string firstName;\r\n        string lastName;\r\n        string email;\r\n        string beltLevel;\r\n        string promotionDate; // store the date as a string\r\n        string gym;\r\n        bool isRegistered;\r\n    }\r\n\r\n    mapping(address => Judoka) public judokas;\r\n\r\n    function registerJudoka(\r\n        string memory _firstName,\r\n        string memory _lastName,\r\n        string memory _email,\r\n        string memory _beltLevel,\r\n        string memory _promotionDate,\r\n        string memory _gym\r\n    ) public {\r\n        require(!judokas[msg.sender].isRegistered, \"Judoka is already registered.\");\r\n\r\n        judokas[msg.sender] = Judoka({\r\n            firstName: _firstName,\r\n            lastName: _lastName,\r\n            email: _email,\r\n            beltLevel: _beltLevel,\r\n            promotionDate: _promotionDate,\r\n            gym: _gym,\r\n            isRegistered: true\r\n        });\r\n    }\r\n\r\n    function getJudoka(address _judokaAddress) public view returns (Judoka memory) {\r\n        return judokas[_judokaAddress];\r\n    }\r\n\r\n    function updateJudoka(\r\n        string memory _firstName,\r\n        string memory _lastName,\r\n        string memory _email,\r\n        string memory _beltLevel,\r\n        string memory _promotionDate,\r\n        string memory _gym\r\n    ) public {\r\n        require(judokas[msg.sender].isRegistered, \"Judoka is not registered.\");\r\n        \r\n        judokas[msg.sender].firstName = _firstName;\r\n        judokas[msg.sender].lastName = _lastName;\r\n        judokas[msg.sender].email = _email;\r\n        judokas[msg.sender].beltLevel = _beltLevel;\r\n        judokas[msg.sender].promotionDate = _promotionDate; // update the date as a string\r\n        judokas[msg.sender].gym = _gym;\r\n    }\r\n}\r\n",
  "sourcePath": "C:\\Users\\marti\\Documents\\projects\\judo-chain\\contracts\\JudokaRegistry.sol",
  "compiler": {
    "name": "solc",
    "version": "0.8.0+commit.c7dfd78e.Emscripten.clang"
  },
  "schemaVersion": "3.4.16",
  "updatedAt": "2024-06-17T09:32:51.287Z",
  "networkType": "ethereum",
  "devdoc": {
    "kind": "dev",
    "methods": {},
    "version": 1
  },
  "userdoc": {
    "kind": "user",
    "methods": {},
    "version": 1
  }
}