{
  "contractName": "JudokaRegistry",
  "abi": [
    {
      "inputs": [
        {
          "internalType": "address",
          "name": "",
          "type": "address"
        }
      ],
      "name": "judokas",
      "outputs": [
        {
          "internalType": "string",
          "name": "firstName",
          "type": "string"
        },
        {
          "internalType": "string",
          "name": "lastName",
          "type": "string"
        },
        {
          "internalType": "string",
          "name": "email",
          "type": "string"
        },
        {
          "internalType": "bool",
          "name": "isRegistered",
          "type": "bool"
        }
      ],
      "stateMutability": "view",
      "type": "function",
      "constant": true
    },
    {
      "inputs": [
        {
          "internalType": "string",
          "name": "_firstName",
          "type": "string"
        },
        {
          "internalType": "string",
          "name": "_lastName",
          "type": "string"
        },
        {
          "internalType": "string",
          "name": "_email",
          "type": "string"
        },
        {
          "internalType": "string",
          "name": "_beltLevel",
          "type": "string"
        },
        {
          "internalType": "string",
          "name": "_promotionDate",
          "type": "string"
        },
        {
          "internalType": "string",
          "name": "_gym",
          "type": "string"
        }
      ],
      "name": "registerJudoka",
      "outputs": [],
      "stateMutability": "nonpayable",
      "type": "function"
    },
    {
      "inputs": [
        {
          "internalType": "address",
          "name": "_judokaAddress",
          "type": "address"
        }
      ],
      "name": "getJudoka",
      "outputs": [
        {
          "components": [
            {
              "internalType": "string",
              "name": "firstName",
              "type": "string"
            },
            {
              "internalType": "string",
              "name": "lastName",
              "type": "string"
            },
            {
              "internalType": "string",
              "name": "email",
              "type": "string"
            },
            {
              "internalType": "bool",
              "name": "isRegistered",
              "type": "bool"
            },
            {
              "components": [
                {
                  "internalType": "string",
                  "name": "beltLevel",
                  "type": "string"
                },
                {
                  "internalType": "string",
                  "name": "promotionDate",
                  "type": "string"
                },
                {
                  "internalType": "string",
                  "name": "gym",
                  "type": "string"
                }
              ],
              "internalType": "struct JudokaRegistry.Promotion[]",
              "name": "promotions",
              "type": "tuple[]"
            }
          ],
          "internalType": "struct JudokaRegistry.Judoka",
          "name": "",
          "type": "tuple"
        }
      ],
      "stateMutability": "view",
      "type": "function",
      "constant": true
    },
    {
      "inputs": [
        {
          "internalType": "address",
          "name": "_judokaAddress",
          "type": "address"
        }
      ],
      "name": "getJudokaPromotions",
      "outputs": [
        {
          "components": [
            {
              "internalType": "string",
              "name": "beltLevel",
              "type": "string"
            },
            {
              "internalType": "string",
              "name": "promotionDate",
              "type": "string"
            },
            {
              "internalType": "string",
              "name": "gym",
              "type": "string"
            }
          ],
          "internalType": "struct JudokaRegistry.Promotion[]",
          "name": "",
          "type": "tuple[]"
        }
      ],
      "stateMutability": "view",
      "type": "function",
      "constant": true
    },
    {
      "inputs": [
        {
          "internalType": "string",
          "name": "_firstName",
          "type": "string"
        },
        {
          "internalType": "string",
          "name": "_lastName",
          "type": "string"
        },
        {
          "internalType": "string",
          "name": "_email",
          "type": "string"
        },
        {
          "internalType": "string",
          "name": "_beltLevel",
          "type": "string"
        },
        {
          "internalType": "string",
          "name": "_promotionDate",
          "type": "string"
        },
        {
          "internalType": "string",
          "name": "_gym",
          "type": "string"
        }
      ],
      "name": "updateJudoka",
      "outputs": [],
      "stateMutability": "nonpayable",
      "type": "function"
    }
  ],
  "bytecode": "0x608060405234801561001057600080fd5b506116a3806100206000396000f3fe608060405234801561001057600080fd5b50600436106100575760003560e01c80637d007f9f1461005c578063974750231461008f578063ab029db9146100ab578063de922e91146100db578063e19d1e2d146100f7575b600080fd5b61007660048036038101906100719190610f46565b610127565b60405161008694939291906113a1565b60405180910390f35b6100a960048036038101906100a49190610f6f565b6102fc565b005b6100c560048036038101906100c09190610f46565b610578565b6040516100d2919061137f565b60405180910390f35b6100f560048036038101906100f09190610f6f565b6107ce565b005b610111600480360381019061010c9190610f46565b6109b7565b60405161011e919061143b565b60405180910390f35b600060205280600052604060002060009150905080600001805461014a906115b5565b80601f0160208091040260200160405190810160405280929190818152602001828054610176906115b5565b80156101c35780601f10610198576101008083540402835291602001916101c3565b820191906000526020600020905b8154815290600101906020018083116101a657829003601f168201915b5050505050908060010180546101d8906115b5565b80601f0160208091040260200160405190810160405280929190818152602001828054610204906115b5565b80156102515780601f1061022657610100808354040283529160200191610251565b820191906000526020600020905b81548152906001019060200180831161023457829003601f168201915b505050505090806002018054610266906115b5565b80601f0160208091040260200160405190810160405280929190818152602001828054610292906115b5565b80156102df5780601f106102b4576101008083540402835291602001916102df565b820191906000526020600020905b8154815290600101906020018083116102c257829003601f168201915b5050505050908060030160009054906101000a900460ff16905084565b6000803373ffffffffffffffffffffffffffffffffffffffff1673ffffffffffffffffffffffffffffffffffffffff16815260200190815260200160002060030160009054906101000a900460ff1661038a576040517f08c379a00000000000000000000000000000000000000000000000000000000081526004016103819061141b565b60405180910390fd5b856000803373ffffffffffffffffffffffffffffffffffffffff1673ffffffffffffffffffffffffffffffffffffffff16815260200190815260200160002060000190805190602001906103df929190610df5565b50846000803373ffffffffffffffffffffffffffffffffffffffff1673ffffffffffffffffffffffffffffffffffffffff1681526020019081526020016000206001019080519060200190610435929190610df5565b50836000803373ffffffffffffffffffffffffffffffffffffffff1673ffffffffffffffffffffffffffffffffffffffff168152602001908152602001600020600201908051906020019061048b929190610df5565b50600060405180606001604052808581526020018481526020018381525090506000803373ffffffffffffffffffffffffffffffffffffffff1673ffffffffffffffffffffffffffffffffffffffff1681526020019081526020016000206004018190806001815401808255809150506001900390600052602060002090600302016000909190919091506000820151816000019080519060200190610532929190610df5565b50602082015181600101908051906020019061054f929190610df5565b50604082015181600201908051906020019061056c929190610df5565b50505050505050505050565b60606000808373ffffffffffffffffffffffffffffffffffffffff1673ffffffffffffffffffffffffffffffffffffffff168152602001908152602001600020600401805480602002602001604051908101604052809291908181526020016000905b828210156107c3578382906000526020600020906003020160405180606001604052908160008201805461060e906115b5565b80601f016020809104026020016040519081016040528092919081815260200182805461063a906115b5565b80156106875780601f1061065c57610100808354040283529160200191610687565b820191906000526020600020905b81548152906001019060200180831161066a57829003601f168201915b505050505081526020016001820180546106a0906115b5565b80601f01602080910402602001604051908101604052809291908181526020018280546106cc906115b5565b80156107195780601f106106ee57610100808354040283529160200191610719565b820191906000526020600020905b8154815290600101906020018083116106fc57829003601f168201915b50505050508152602001600282018054610732906115b5565b80601f016020809104026020016040519081016040528092919081815260200182805461075e906115b5565b80156107ab5780601f10610780576101008083540402835291602001916107ab565b820191906000526020600020905b81548152906001019060200180831161078e57829003601f168201915b505050505081525050815260200190600101906105db565b505050509050919050565b6000803373ffffffffffffffffffffffffffffffffffffffff1673ffffffffffffffffffffffffffffffffffffffff16815260200190815260200160002060030160009054906101000a900460ff161561085d576040517f08c379a0000000000000000000000000000000000000000000000000000000008152600401610854906113fb565b60405180910390fd5b6000604051806060016040528085815260200184815260200183815250905060008060003373ffffffffffffffffffffffffffffffffffffffff1673ffffffffffffffffffffffffffffffffffffffff1681526020019081526020016000209050878160000190805190602001906108d6929190610df5565b50868160010190805190602001906108ef929190610df5565b5085816002019080519060200190610908929190610df5565b5060018160030160006101000a81548160ff021916908315150217905550806004018290806001815401808255809150506001900390600052602060002090600302016000909190919091506000820151816000019080519060200190610970929190610df5565b50602082015181600101908051906020019061098d929190610df5565b5060408201518160020190805190602001906109aa929190610df5565b5050505050505050505050565b6109bf610e7b565b6000808373ffffffffffffffffffffffffffffffffffffffff1673ffffffffffffffffffffffffffffffffffffffff1681526020019081526020016000206040518060a0016040529081600082018054610a18906115b5565b80601f0160208091040260200160405190810160405280929190818152602001828054610a44906115b5565b8015610a915780601f10610a6657610100808354040283529160200191610a91565b820191906000526020600020905b815481529060010190602001808311610a7457829003601f168201915b50505050508152602001600182018054610aaa906115b5565b80601f0160208091040260200160405190810160405280929190818152602001828054610ad6906115b5565b8015610b235780601f10610af857610100808354040283529160200191610b23565b820191906000526020600020905b815481529060010190602001808311610b0657829003601f168201915b50505050508152602001600282018054610b3c906115b5565b80601f0160208091040260200160405190810160405280929190818152602001828054610b68906115b5565b8015610bb55780601f10610b8a57610100808354040283529160200191610bb5565b820191906000526020600020905b815481529060010190602001808311610b9857829003601f168201915b505050505081526020016003820160009054906101000a900460ff1615151515815260200160048201805480602002602001604051908101604052809291908181526020016000905b82821015610de65783829060005260206000209060030201604051806060016040529081600082018054610c31906115b5565b80601f0160208091040260200160405190810160405280929190818152602001828054610c5d906115b5565b8015610caa5780601f10610c7f57610100808354040283529160200191610caa565b820191906000526020600020905b815481529060010190602001808311610c8d57829003601f168201915b50505050508152602001600182018054610cc3906115b5565b80601f0160208091040260200160405190810160405280929190818152602001828054610cef906115b5565b8015610d3c5780601f10610d1157610100808354040283529160200191610d3c565b820191906000526020600020905b815481529060010190602001808311610d1f57829003601f168201915b50505050508152602001600282018054610d55906115b5565b80601f0160208091040260200160405190810160405280929190818152602001828054610d81906115b5565b8015610dce5780601f10610da357610100808354040283529160200191610dce565b820191906000526020600020905b815481529060010190602001808311610db157829003601f168201915b50505050508152505081526020019060010190610bfe565b50505050815250509050919050565b828054610e01906115b5565b90600052602060002090601f016020900481019282610e235760008555610e6a565b82601f10610e3c57805160ff1916838001178555610e6a565b82800160010185558215610e6a579182015b82811115610e69578251825591602001919060010190610e4e565b5b509050610e779190610eac565b5090565b6040518060a00160405280606081526020016060815260200160608152602001600015158152602001606081525090565b5b80821115610ec5576000816000905550600101610ead565b5090565b6000610edc610ed78461148e565b61145d565b905082815260208101848484011115610ef457600080fd5b610eff848285611573565b509392505050565b600081359050610f1681611656565b92915050565b600082601f830112610f2d57600080fd5b8135610f3d848260208601610ec9565b91505092915050565b600060208284031215610f5857600080fd5b6000610f6684828501610f07565b91505092915050565b60008060008060008060c08789031215610f8857600080fd5b600087013567ffffffffffffffff811115610fa257600080fd5b610fae89828a01610f1c565b965050602087013567ffffffffffffffff811115610fcb57600080fd5b610fd789828a01610f1c565b955050604087013567ffffffffffffffff811115610ff457600080fd5b61100089828a01610f1c565b945050606087013567ffffffffffffffff81111561101d57600080fd5b61102989828a01610f1c565b935050608087013567ffffffffffffffff81111561104657600080fd5b61105289828a01610f1c565b92505060a087013567ffffffffffffffff81111561106f57600080fd5b61107b89828a01610f1c565b9150509295509295509295565b60006110948383611321565b905092915050565b60006110a7826114ce565b6110b181856114f1565b9350836020820285016110c3856114be565b8060005b858110156110ff57848403895281516110e08582611088565b94506110eb836114e4565b925060208a019950506001810190506110c7565b50829750879550505050505092915050565b600061111c826114ce565b6111268185611502565b935083602082028501611138856114be565b8060005b8581101561117457848403895281516111558582611088565b9450611160836114e4565b925060208a0199505060018101905061113c565b50829750879550505050505092915050565b61118f81611547565b82525050565b61119e81611547565b82525050565b60006111af826114d9565b6111b98185611513565b93506111c9818560208601611582565b6111d281611645565b840191505092915050565b60006111e8826114d9565b6111f28185611524565b9350611202818560208601611582565b61120b81611645565b840191505092915050565b6000611223601d83611524565b91507f4a75646f6b6120697320616c726561647920726567697374657265642e0000006000830152602082019050919050565b6000611263601983611524565b91507f4a75646f6b61206973206e6f7420726567697374657265642e000000000000006000830152602082019050919050565b600060a08301600083015184820360008601526112b382826111a4565b915050602083015184820360208601526112cd82826111a4565b915050604083015184820360408601526112e782826111a4565b91505060608301516112fc6060860182611186565b5060808301518482036080860152611314828261109c565b9150508091505092915050565b6000606083016000830151848203600086015261133e82826111a4565b9150506020830151848203602086015261135882826111a4565b9150506040830151848203604086015261137282826111a4565b9150508091505092915050565b600060208201905081810360008301526113998184611111565b905092915050565b600060808201905081810360008301526113bb81876111dd565b905081810360208301526113cf81866111dd565b905081810360408301526113e381856111dd565b90506113f26060830184611195565b95945050505050565b6000602082019050818103600083015261141481611216565b9050919050565b6000602082019050818103600083015261143481611256565b9050919050565b600060208201905081810360008301526114558184611296565b905092915050565b6000604051905081810181811067ffffffffffffffff8211171561148457611483611616565b5b8060405250919050565b600067ffffffffffffffff8211156114a9576114a8611616565b5b601f19601f8301169050602081019050919050565b6000819050602082019050919050565b600081519050919050565b600081519050919050565b6000602082019050919050565b600082825260208201905092915050565b600082825260208201905092915050565b600082825260208201905092915050565b600082825260208201905092915050565b600061154082611553565b9050919050565b60008115159050919050565b600073ffffffffffffffffffffffffffffffffffffffff82169050919050565b82818337600083830152505050565b60005b838110156115a0578082015181840152602081019050611585565b838111156115af576000848401525b50505050565b600060028204905060018216806115cd57607f821691505b602082108114156115e1576115e06115e7565b5b50919050565b7f4e487b7100000000000000000000000000000000000000000000000000000000600052602260045260246000fd5b7f4e487b7100000000000000000000000000000000000000000000000000000000600052604160045260246000fd5b6000601f19601f8301169050919050565b61165f81611535565b811461166a57600080fd5b5056fea26469706673582212201aae00bc03cfbd3a97baf4fa5cccd89734af76a7404a8f0cf233fed17f314bd664736f6c63430008000033",
  "immutableReferences": {},
  "source": "// SPDX-License-Identifier: MIT\r\npragma solidity ^0.8.0;\r\n\r\ncontract JudokaRegistry {\r\n    struct Promotion {\r\n        string beltLevel;\r\n        string promotionDate;\r\n        string gym;\r\n    }\r\n\r\n    struct Judoka {\r\n        string firstName;\r\n        string lastName;\r\n        string email;\r\n        bool isRegistered;\r\n        Promotion[] promotions;\r\n    }\r\n\r\n    mapping(address => Judoka) public judokas;\r\n\r\n    function registerJudoka(\r\n        string memory _firstName,\r\n        string memory _lastName,\r\n        string memory _email,\r\n        string memory _beltLevel,\r\n        string memory _promotionDate,\r\n        string memory _gym\r\n    ) public {\r\n        require(!judokas[msg.sender].isRegistered, \"Judoka is already registered.\");\r\n\r\n        Promotion memory initialPromotion = Promotion({\r\n            beltLevel: _beltLevel,\r\n            promotionDate: _promotionDate,\r\n            gym: _gym\r\n        });\r\n\r\n        Judoka storage newJudoka = judokas[msg.sender];\r\n        newJudoka.firstName = _firstName;\r\n        newJudoka.lastName = _lastName;\r\n        newJudoka.email = _email;\r\n        newJudoka.isRegistered = true;\r\n        newJudoka.promotions.push(initialPromotion);\r\n    }\r\n\r\n    function getJudoka(address _judokaAddress) public view returns (Judoka memory) {\r\n        return judokas[_judokaAddress];\r\n    }\r\n\r\n    function getJudokaPromotions(address _judokaAddress) public view returns (Promotion[] memory) {\r\n        return judokas[_judokaAddress].promotions;\r\n    }\r\n\r\n    function updateJudoka(\r\n        string memory _firstName,\r\n        string memory _lastName,\r\n        string memory _email,\r\n        string memory _beltLevel,\r\n        string memory _promotionDate,\r\n        string memory _gym\r\n    ) public {\r\n        require(judokas[msg.sender].isRegistered, \"Judoka is not registered.\");\r\n        \r\n        judokas[msg.sender].firstName = _firstName;\r\n        judokas[msg.sender].lastName = _lastName;\r\n        judokas[msg.sender].email = _email;\r\n\r\n        Promotion memory newPromotion = Promotion({\r\n            beltLevel: _beltLevel,\r\n            promotionDate: _promotionDate,\r\n            gym: _gym\r\n        });\r\n\r\n        judokas[msg.sender].promotions.push(newPromotion);\r\n    }\r\n}\r\n",
  "sourcePath": "C:\\Users\\marti\\Documents\\projects\\judo-chain\\contracts\\JudokaRegistry.sol",
  "compiler": {
    "name": "solc",
    "version": "0.8.0+commit.c7dfd78e.Emscripten.clang"
  },
  "schemaVersion": "3.4.16",
  "updatedAt": "2024-06-17T14:06:41.781Z",
  "networkType": "ethereum",
  "devdoc": {
    "kind": "dev",
    "methods": {},
    "version": 1
  },
  "userdoc": {
    "kind": "user",
    "methods": {},
    "version": 1
  }
}