{
  "contractName": "JudokaRegistry",
  "abi": [
    {
      "inputs": [
        {
          "internalType": "address",
          "name": "",
          "type": "address"
        }
      ],
      "name": "judokas",
      "outputs": [
        {
          "internalType": "string",
          "name": "firstName",
          "type": "string"
        },
        {
          "internalType": "string",
          "name": "lastName",
          "type": "string"
        },
        {
          "internalType": "string",
          "name": "email",
          "type": "string"
        },
        {
          "internalType": "string",
          "name": "beltLevel",
          "type": "string"
        },
        {
          "internalType": "bool",
          "name": "isRegistered",
          "type": "bool"
        }
      ],
      "stateMutability": "view",
      "type": "function",
      "constant": true
    },
    {
      "inputs": [
        {
          "internalType": "string",
          "name": "_firstName",
          "type": "string"
        },
        {
          "internalType": "string",
          "name": "_lastName",
          "type": "string"
        },
        {
          "internalType": "string",
          "name": "_email",
          "type": "string"
        },
        {
          "internalType": "string",
          "name": "_beltLevel",
          "type": "string"
        }
      ],
      "name": "registerJudoka",
      "outputs": [],
      "stateMutability": "nonpayable",
      "type": "function"
    },
    {
      "inputs": [
        {
          "internalType": "address",
          "name": "_judokaAddress",
          "type": "address"
        }
      ],
      "name": "getJudoka",
      "outputs": [
        {
          "components": [
            {
              "internalType": "string",
              "name": "firstName",
              "type": "string"
            },
            {
              "internalType": "string",
              "name": "lastName",
              "type": "string"
            },
            {
              "internalType": "string",
              "name": "email",
              "type": "string"
            },
            {
              "internalType": "string",
              "name": "beltLevel",
              "type": "string"
            },
            {
              "internalType": "bool",
              "name": "isRegistered",
              "type": "bool"
            }
          ],
          "internalType": "struct JudokaRegistry.Judoka",
          "name": "",
          "type": "tuple"
        }
      ],
      "stateMutability": "view",
      "type": "function",
      "constant": true
    }
  ],
  "bytecode": "0x608060405234801561001057600080fd5b50610dbd806100206000396000f3fe608060405234801561001057600080fd5b50600436106100415760003560e01c80637d007f9f14610046578063d14152771461007a578063e19d1e2d14610096575b600080fd5b610060600480360381019061005b91906108c9565b6100c6565b604051610071959493929190610b10565b60405180910390f35b610094600480360381019061008f91906108f2565b610329565b005b6100b060048036038101906100ab91906108c9565b6104bd565b6040516100bd9190610b9f565b60405180910390f35b60006020528060005260406000206000915090508060000180546100e990610ccf565b80601f016020809104026020016040519081016040528092919081815260200182805461011590610ccf565b80156101625780601f1061013757610100808354040283529160200191610162565b820191906000526020600020905b81548152906001019060200180831161014557829003601f168201915b50505050509080600101805461017790610ccf565b80601f01602080910402602001604051908101604052809291908181526020018280546101a390610ccf565b80156101f05780601f106101c5576101008083540402835291602001916101f0565b820191906000526020600020905b8154815290600101906020018083116101d357829003601f168201915b50505050509080600201805461020590610ccf565b80601f016020809104026020016040519081016040528092919081815260200182805461023190610ccf565b801561027e5780601f106102535761010080835404028352916020019161027e565b820191906000526020600020905b81548152906001019060200180831161026157829003601f168201915b50505050509080600301805461029390610ccf565b80601f01602080910402602001604051908101604052809291908181526020018280546102bf90610ccf565b801561030c5780601f106102e15761010080835404028352916020019161030c565b820191906000526020600020905b8154815290600101906020018083116102ef57829003601f168201915b5050505050908060040160009054906101000a900460ff16905085565b6000803373ffffffffffffffffffffffffffffffffffffffff1673ffffffffffffffffffffffffffffffffffffffff16815260200190815260200160002060040160009054906101000a900460ff16156103b8576040517f08c379a00000000000000000000000000000000000000000000000000000000081526004016103af90610b7f565b60405180910390fd5b6040518060a00160405280858152602001848152602001838152602001828152602001600115158152506000803373ffffffffffffffffffffffffffffffffffffffff1673ffffffffffffffffffffffffffffffffffffffff168152602001908152602001600020600082015181600001908051906020019061043c929190610778565b506020820151816001019080519060200190610459929190610778565b506040820151816002019080519060200190610476929190610778565b506060820151816003019080519060200190610493929190610778565b5060808201518160040160006101000a81548160ff02191690831515021790555090505050505050565b6104c56107fe565b6000808373ffffffffffffffffffffffffffffffffffffffff1673ffffffffffffffffffffffffffffffffffffffff1681526020019081526020016000206040518060a001604052908160008201805461051e90610ccf565b80601f016020809104026020016040519081016040528092919081815260200182805461054a90610ccf565b80156105975780601f1061056c57610100808354040283529160200191610597565b820191906000526020600020905b81548152906001019060200180831161057a57829003601f168201915b505050505081526020016001820180546105b090610ccf565b80601f01602080910402602001604051908101604052809291908181526020018280546105dc90610ccf565b80156106295780601f106105fe57610100808354040283529160200191610629565b820191906000526020600020905b81548152906001019060200180831161060c57829003601f168201915b5050505050815260200160028201805461064290610ccf565b80601f016020809104026020016040519081016040528092919081815260200182805461066e90610ccf565b80156106bb5780601f10610690576101008083540402835291602001916106bb565b820191906000526020600020905b81548152906001019060200180831161069e57829003601f168201915b505050505081526020016003820180546106d490610ccf565b80601f016020809104026020016040519081016040528092919081815260200182805461070090610ccf565b801561074d5780601f106107225761010080835404028352916020019161074d565b820191906000526020600020905b81548152906001019060200180831161073057829003601f168201915b505050505081526020016004820160009054906101000a900460ff1615151515815250509050919050565b82805461078490610ccf565b90600052602060002090601f0160209004810192826107a657600085556107ed565b82601f106107bf57805160ff19168380011785556107ed565b828001600101855582156107ed579182015b828111156107ec5782518255916020019190600101906107d1565b5b5090506107fa919061082f565b5090565b6040518060a00160405280606081526020016060815260200160608152602001606081526020016000151581525090565b5b80821115610848576000816000905550600101610830565b5090565b600061085f61085a84610bf2565b610bc1565b90508281526020810184848401111561087757600080fd5b610882848285610c8d565b509392505050565b60008135905061089981610d70565b92915050565b600082601f8301126108b057600080fd5b81356108c084826020860161084c565b91505092915050565b6000602082840312156108db57600080fd5b60006108e98482850161088a565b91505092915050565b6000806000806080858703121561090857600080fd5b600085013567ffffffffffffffff81111561092257600080fd5b61092e8782880161089f565b945050602085013567ffffffffffffffff81111561094b57600080fd5b6109578782880161089f565b935050604085013567ffffffffffffffff81111561097457600080fd5b6109808782880161089f565b925050606085013567ffffffffffffffff81111561099d57600080fd5b6109a98782880161089f565b91505092959194509250565b6109be81610c61565b82525050565b6109cd81610c61565b82525050565b60006109de82610c22565b6109e88185610c2d565b93506109f8818560208601610c9c565b610a0181610d5f565b840191505092915050565b6000610a1782610c22565b610a218185610c3e565b9350610a31818560208601610c9c565b610a3a81610d5f565b840191505092915050565b6000610a52601d83610c3e565b91507f4a75646f6b6120697320616c726561647920726567697374657265642e0000006000830152602082019050919050565b600060a0830160008301518482036000860152610aa282826109d3565b91505060208301518482036020860152610abc82826109d3565b91505060408301518482036040860152610ad682826109d3565b91505060608301518482036060860152610af082826109d3565b9150506080830151610b0560808601826109b5565b508091505092915050565b600060a0820190508181036000830152610b2a8188610a0c565b90508181036020830152610b3e8187610a0c565b90508181036040830152610b528186610a0c565b90508181036060830152610b668185610a0c565b9050610b7560808301846109c4565b9695505050505050565b60006020820190508181036000830152610b9881610a45565b9050919050565b60006020820190508181036000830152610bb98184610a85565b905092915050565b6000604051905081810181811067ffffffffffffffff82111715610be857610be7610d30565b5b8060405250919050565b600067ffffffffffffffff821115610c0d57610c0c610d30565b5b601f19601f8301169050602081019050919050565b600081519050919050565b600082825260208201905092915050565b600082825260208201905092915050565b6000610c5a82610c6d565b9050919050565b60008115159050919050565b600073ffffffffffffffffffffffffffffffffffffffff82169050919050565b82818337600083830152505050565b60005b83811015610cba578082015181840152602081019050610c9f565b83811115610cc9576000848401525b50505050565b60006002820490506001821680610ce757607f821691505b60208210811415610cfb57610cfa610d01565b5b50919050565b7f4e487b7100000000000000000000000000000000000000000000000000000000600052602260045260246000fd5b7f4e487b7100000000000000000000000000000000000000000000000000000000600052604160045260246000fd5b6000601f19601f8301169050919050565b610d7981610c4f565b8114610d8457600080fd5b5056fea26469706673582212208d75d05c8432d65c6b9f55a48b54217be11ffcf94568e7068e9d2c01226e89a664736f6c63430008000033",
  "immutableReferences": {},
  "source": "// SPDX-License-Identifier: MIT\r\npragma solidity ^0.8.0;\r\n\r\ncontract JudokaRegistry {\r\n    struct Judoka {\r\n        string firstName;\r\n        string lastName;\r\n        string email;\r\n        string beltLevel;\r\n        bool isRegistered;\r\n    }\r\n\r\n    mapping(address => Judoka) public judokas;\r\n\r\n    function registerJudoka(\r\n        string memory _firstName,\r\n        string memory _lastName,\r\n        string memory _email,\r\n        string memory _beltLevel\r\n    ) public {\r\n        require(!judokas[msg.sender].isRegistered, \"Judoka is already registered.\");\r\n\r\n        judokas[msg.sender] = Judoka({\r\n            firstName: _firstName,\r\n            lastName: _lastName,\r\n            email: _email,\r\n            beltLevel: _beltLevel,\r\n            isRegistered: true\r\n        });\r\n    }\r\n\r\n    function getJudoka(address _judokaAddress) public view returns (Judoka memory) {\r\n        return judokas[_judokaAddress];\r\n    }\r\n}\r\n",
  "sourcePath": "C:\\Users\\marti\\Documents\\projects\\judo-chain\\contracts\\JudokaRegistry.sol",
  "compiler": {
    "name": "solc",
    "version": "0.8.0+commit.c7dfd78e.Emscripten.clang"
  },
  "schemaVersion": "3.4.16",
  "updatedAt": "2024-06-14T09:49:32.381Z",
  "networkType": "ethereum",
  "devdoc": {
    "kind": "dev",
    "methods": {},
    "version": 1
  },
  "userdoc": {
    "kind": "user",
    "methods": {},
    "version": 1
  }
}