{
  "contractName": "JudokaRegistry",
  "abi": [
    {
      "inputs": [
        {
          "internalType": "uint256",
          "name": "",
          "type": "uint256"
        }
      ],
      "name": "judokaAddresses",
      "outputs": [
        {
          "internalType": "address",
          "name": "",
          "type": "address"
        }
      ],
      "stateMutability": "view",
      "type": "function",
      "constant": true
    },
    {
      "inputs": [
        {
          "internalType": "address",
          "name": "",
          "type": "address"
        }
      ],
      "name": "judokas",
      "outputs": [
        {
          "internalType": "string",
          "name": "firstName",
          "type": "string"
        },
        {
          "internalType": "string",
          "name": "lastName",
          "type": "string"
        },
        {
          "internalType": "string",
          "name": "email",
          "type": "string"
        },
        {
          "internalType": "bool",
          "name": "isRegistered",
          "type": "bool"
        },
        {
          "internalType": "uint256",
          "name": "votingPower",
          "type": "uint256"
        }
      ],
      "stateMutability": "view",
      "type": "function",
      "constant": true
    },
    {
      "inputs": [
        {
          "internalType": "string",
          "name": "_firstName",
          "type": "string"
        },
        {
          "internalType": "string",
          "name": "_lastName",
          "type": "string"
        },
        {
          "internalType": "string",
          "name": "_email",
          "type": "string"
        },
        {
          "internalType": "string",
          "name": "_beltLevel",
          "type": "string"
        },
        {
          "internalType": "string",
          "name": "_promotionDate",
          "type": "string"
        },
        {
          "internalType": "string",
          "name": "_gym",
          "type": "string"
        }
      ],
      "name": "registerJudoka",
      "outputs": [],
      "stateMutability": "nonpayable",
      "type": "function"
    },
    {
      "inputs": [
        {
          "internalType": "string",
          "name": "_beltLevel",
          "type": "string"
        }
      ],
      "name": "getVotingPower",
      "outputs": [
        {
          "internalType": "uint256",
          "name": "",
          "type": "uint256"
        }
      ],
      "stateMutability": "pure",
      "type": "function",
      "constant": true
    },
    {
      "inputs": [
        {
          "internalType": "address",
          "name": "_judokaAddress",
          "type": "address"
        }
      ],
      "name": "getJudoka",
      "outputs": [
        {
          "components": [
            {
              "internalType": "string",
              "name": "firstName",
              "type": "string"
            },
            {
              "internalType": "string",
              "name": "lastName",
              "type": "string"
            },
            {
              "internalType": "string",
              "name": "email",
              "type": "string"
            },
            {
              "internalType": "bool",
              "name": "isRegistered",
              "type": "bool"
            },
            {
              "components": [
                {
                  "internalType": "string",
                  "name": "beltLevel",
                  "type": "string"
                },
                {
                  "internalType": "string",
                  "name": "promotionDate",
                  "type": "string"
                },
                {
                  "internalType": "string",
                  "name": "gym",
                  "type": "string"
                }
              ],
              "internalType": "struct JudokaRegistry.Promotion[]",
              "name": "promotions",
              "type": "tuple[]"
            },
            {
              "internalType": "uint256",
              "name": "votingPower",
              "type": "uint256"
            }
          ],
          "internalType": "struct JudokaRegistry.Judoka",
          "name": "",
          "type": "tuple"
        }
      ],
      "stateMutability": "view",
      "type": "function",
      "constant": true
    },
    {
      "inputs": [
        {
          "internalType": "address",
          "name": "_judokaAddress",
          "type": "address"
        }
      ],
      "name": "getJudokaPromotions",
      "outputs": [
        {
          "components": [
            {
              "internalType": "string",
              "name": "beltLevel",
              "type": "string"
            },
            {
              "internalType": "string",
              "name": "promotionDate",
              "type": "string"
            },
            {
              "internalType": "string",
              "name": "gym",
              "type": "string"
            }
          ],
          "internalType": "struct JudokaRegistry.Promotion[]",
          "name": "",
          "type": "tuple[]"
        }
      ],
      "stateMutability": "view",
      "type": "function",
      "constant": true
    },
    {
      "inputs": [],
      "name": "getAllJudokas",
      "outputs": [
        {
          "internalType": "address[]",
          "name": "",
          "type": "address[]"
        }
      ],
      "stateMutability": "view",
      "type": "function",
      "constant": true
    },
    {
      "inputs": [
        {
          "internalType": "string",
          "name": "_firstName",
          "type": "string"
        },
        {
          "internalType": "string",
          "name": "_lastName",
          "type": "string"
        },
        {
          "internalType": "string",
          "name": "_email",
          "type": "string"
        },
        {
          "internalType": "string",
          "name": "_beltLevel",
          "type": "string"
        },
        {
          "internalType": "string",
          "name": "_promotionDate",
          "type": "string"
        },
        {
          "internalType": "string",
          "name": "_gym",
          "type": "string"
        }
      ],
      "name": "updateJudoka",
      "outputs": [],
      "stateMutability": "nonpayable",
      "type": "function"
    }
  ],
  "bytecode": "0x608060405234801561001057600080fd5b50612618806100206000396000f3fe608060405234801561001057600080fd5b50600436106100885760003560e01c8063ab029db91161005b578063ab029db91461012b578063de922e911461015b578063e19d1e2d14610177578063fd509428146101a757610088565b80631c277dee1461008d5780637d007f9f146100ab57806380e9e17c146100df578063974750231461010f575b600080fd5b6100956101d7565b6040516100a29190612244565b60405180910390f35b6100c560048036038101906100c09190611729565b610265565b6040516100d6959493929190612288565b60405180910390f35b6100f960048036038101906100f49190611752565b610440565b6040516101069190612352565b60405180910390f35b61012960048036038101906101249190611793565b610a00565b005b61014560048036038101906101409190611729565b610c7c565b6040516101529190612266565b60405180910390f35b61017560048036038101906101709190611793565b610ed2565b005b610191600480360381019061018c9190611729565b611135565b60405161019e9190612330565b60405180910390f35b6101c160048036038101906101bc91906118ac565b61157d565b6040516101ce9190612229565b60405180910390f35b6060600180548060200260200160405190810160405280929190818152602001828054801561025b57602002820191906000526020600020905b8160009054906101000a900473ffffffffffffffffffffffffffffffffffffffff1673ffffffffffffffffffffffffffffffffffffffff1681526020019060010190808311610211575b5050505050905090565b600060205280600052604060002060009150905080600001805461028890612513565b80601f01602080910402602001604051908101604052809291908181526020018280546102b490612513565b80156103015780601f106102d657610100808354040283529160200191610301565b820191906000526020600020905b8154815290600101906020018083116102e457829003601f168201915b50505050509080600101805461031690612513565b80601f016020809104026020016040519081016040528092919081815260200182805461034290612513565b801561038f5780601f106103645761010080835404028352916020019161038f565b820191906000526020600020905b81548152906001019060200180831161037257829003601f168201915b5050505050908060020180546103a490612513565b80601f01602080910402602001604051908101604052809291908181526020018280546103d090612513565b801561041d5780601f106103f25761010080835404028352916020019161041d565b820191906000526020600020905b81548152906001019060200180831161040057829003601f168201915b5050505050908060030160009054906101000a900460ff16908060050154905085565b6000604051602001610451906121ea565b604051602081830303815290604052805190602001208260405160200161047891906120c2565b60405160208183030381529060405280519060200120141561049d57600090506109fb565b6040516020016104ac9061212d565b60405160208183030381529060405280519060200120826040516020016104d391906120c2565b6040516020818303038152906040528051906020012014156104f857600590506109fb565b604051602001610507906121ff565b604051602081830303815290604052805190602001208260405160200161052e91906120c2565b60405160208183030381529060405280519060200120141561055357600a90506109fb565b60405160200161056290612157565b604051602081830303815290604052805190602001208260405160200161058991906120c2565b6040516020818303038152906040528051906020012014156105ae57601490506109fb565b6040516020016105bd90612142565b60405160208183030381529060405280519060200120826040516020016105e491906120c2565b60405160208183030381529060405280519060200120141561060957603290506109fb565b604051602001610618906120ee565b604051602081830303815290604052805190602001208260405160200161063f91906120c2565b60405160208183030381529060405280519060200120141561066457606490506109fb565b604051602001610673906121d5565b604051602081830303815290604052805190602001208260405160200161069a91906120c2565b6040516020818303038152906040528051906020012014156106bf57607d90506109fb565b6040516020016106ce90612181565b60405160208183030381529060405280519060200120826040516020016106f591906120c2565b60405160208183030381529060405280519060200120141561071a57609690506109fb565b60405160200161072990612196565b604051602081830303815290604052805190602001208260405160200161075091906120c2565b6040516020818303038152906040528051906020012014156107755760af90506109fb565b604051602001610784906121c0565b60405160208183030381529060405280519060200120826040516020016107ab91906120c2565b6040516020818303038152906040528051906020012014156107d05760c890506109fb565b6040516020016107df90612118565b604051602081830303815290604052805190602001208260405160200161080691906120c2565b60405160208183030381529060405280519060200120141561082b5760e190506109fb565b60405160200161083a9061216c565b604051602081830303815290604052805190602001208260405160200161086191906120c2565b6040516020818303038152906040528051906020012014156108865760fa90506109fb565b60405160200161089590612103565b60405160208183030381529060405280519060200120826040516020016108bc91906120c2565b6040516020818303038152906040528051906020012014156108e25761011390506109fb565b6040516020016108f1906121ab565b604051602081830303815290604052805190602001208260405160200161091891906120c2565b60405160208183030381529060405280519060200120141561093e5761012c90506109fb565b60405160200161094d90612214565b604051602081830303815290604052805190602001208260405160200161097491906120c2565b60405160208183030381529060405280519060200120141561099a5761014590506109fb565b6040516020016109a9906120d9565b60405160208183030381529060405280519060200120826040516020016109d091906120c2565b6040516020818303038152906040528051906020012014156109f65761015e90506109fb565b600090505b919050565b6000803373ffffffffffffffffffffffffffffffffffffffff1673ffffffffffffffffffffffffffffffffffffffff16815260200190815260200160002060030160009054906101000a900460ff16610a8e576040517f08c379a0000000000000000000000000000000000000000000000000000000008152600401610a8590612310565b60405180910390fd5b856000803373ffffffffffffffffffffffffffffffffffffffff1673ffffffffffffffffffffffffffffffffffffffff1681526020019081526020016000206000019080519060200190610ae39291906115bc565b50846000803373ffffffffffffffffffffffffffffffffffffffff1673ffffffffffffffffffffffffffffffffffffffff1681526020019081526020016000206001019080519060200190610b399291906115bc565b50836000803373ffffffffffffffffffffffffffffffffffffffff1673ffffffffffffffffffffffffffffffffffffffff1681526020019081526020016000206002019080519060200190610b8f9291906115bc565b50600060405180606001604052808581526020018481526020018381525090506000803373ffffffffffffffffffffffffffffffffffffffff1673ffffffffffffffffffffffffffffffffffffffff1681526020019081526020016000206004018190806001815401808255809150506001900390600052602060002090600302016000909190919091506000820151816000019080519060200190610c369291906115bc565b506020820151816001019080519060200190610c539291906115bc565b506040820151816002019080519060200190610c709291906115bc565b50505050505050505050565b60606000808373ffffffffffffffffffffffffffffffffffffffff1673ffffffffffffffffffffffffffffffffffffffff168152602001908152602001600020600401805480602002602001604051908101604052809291908181526020016000905b82821015610ec75783829060005260206000209060030201604051806060016040529081600082018054610d1290612513565b80601f0160208091040260200160405190810160405280929190818152602001828054610d3e90612513565b8015610d8b5780601f10610d6057610100808354040283529160200191610d8b565b820191906000526020600020905b815481529060010190602001808311610d6e57829003601f168201915b50505050508152602001600182018054610da490612513565b80601f0160208091040260200160405190810160405280929190818152602001828054610dd090612513565b8015610e1d5780601f10610df257610100808354040283529160200191610e1d565b820191906000526020600020905b815481529060010190602001808311610e0057829003601f168201915b50505050508152602001600282018054610e3690612513565b80601f0160208091040260200160405190810160405280929190818152602001828054610e6290612513565b8015610eaf5780601f10610e8457610100808354040283529160200191610eaf565b820191906000526020600020905b815481529060010190602001808311610e9257829003601f168201915b50505050508152505081526020019060010190610cdf565b505050509050919050565b6000803373ffffffffffffffffffffffffffffffffffffffff1673ffffffffffffffffffffffffffffffffffffffff16815260200190815260200160002060030160009054906101000a900460ff1615610f61576040517f08c379a0000000000000000000000000000000000000000000000000000000008152600401610f58906122f0565b60405180910390fd5b6000610f6c84610440565b90506000604051806060016040528086815260200185815260200184815250905060008060003373ffffffffffffffffffffffffffffffffffffffff1673ffffffffffffffffffffffffffffffffffffffff168152602001908152602001600020905088816000019080519060200190610fe79291906115bc565b50878160010190805190602001906110009291906115bc565b50868160020190805190602001906110199291906115bc565b5060018160030160006101000a81548160ff02191690831515021790555082816005018190555080600401829080600181540180825580915050600190039060005260206000209060030201600090919091909150600082015181600001908051906020019061108a9291906115bc565b5060208201518160010190805190602001906110a79291906115bc565b5060408201518160020190805190602001906110c49291906115bc565b5050506001339080600181540180825580915050600190039060005260206000200160009091909190916101000a81548173ffffffffffffffffffffffffffffffffffffffff021916908373ffffffffffffffffffffffffffffffffffffffff160217905550505050505050505050565b61113d611642565b6000808373ffffffffffffffffffffffffffffffffffffffff1673ffffffffffffffffffffffffffffffffffffffff1681526020019081526020016000206040518060c001604052908160008201805461119690612513565b80601f01602080910402602001604051908101604052809291908181526020018280546111c290612513565b801561120f5780601f106111e45761010080835404028352916020019161120f565b820191906000526020600020905b8154815290600101906020018083116111f257829003601f168201915b5050505050815260200160018201805461122890612513565b80601f016020809104026020016040519081016040528092919081815260200182805461125490612513565b80156112a15780601f10611276576101008083540402835291602001916112a1565b820191906000526020600020905b81548152906001019060200180831161128457829003601f168201915b505050505081526020016002820180546112ba90612513565b80601f01602080910402602001604051908101604052809291908181526020018280546112e690612513565b80156113335780601f1061130857610100808354040283529160200191611333565b820191906000526020600020905b81548152906001019060200180831161131657829003601f168201915b505050505081526020016003820160009054906101000a900460ff1615151515815260200160048201805480602002602001604051908101604052809291908181526020016000905b8282101561156457838290600052602060002090600302016040518060600160405290816000820180546113af90612513565b80601f01602080910402602001604051908101604052809291908181526020018280546113db90612513565b80156114285780601f106113fd57610100808354040283529160200191611428565b820191906000526020600020905b81548152906001019060200180831161140b57829003601f168201915b5050505050815260200160018201805461144190612513565b80601f016020809104026020016040519081016040528092919081815260200182805461146d90612513565b80156114ba5780601f1061148f576101008083540402835291602001916114ba565b820191906000526020600020905b81548152906001019060200180831161149d57829003601f168201915b505050505081526020016002820180546114d390612513565b80601f01602080910402602001604051908101604052809291908181526020018280546114ff90612513565b801561154c5780601f106115215761010080835404028352916020019161154c565b820191906000526020600020905b81548152906001019060200180831161152f57829003601f168201915b5050505050815250508152602001906001019061137c565b5050505081526020016005820154815250509050919050565b6001818154811061158d57600080fd5b906000526020600020016000915054906101000a900473ffffffffffffffffffffffffffffffffffffffff1681565b8280546115c890612513565b90600052602060002090601f0160209004810192826115ea5760008555611631565b82601f1061160357805160ff1916838001178555611631565b82800160010185558215611631579182015b82811115611630578251825591602001919060010190611615565b5b50905061163e919061167a565b5090565b6040518060c0016040528060608152602001606081526020016060815260200160001515815260200160608152602001600081525090565b5b8082111561169357600081600090555060010161167b565b5090565b60006116aa6116a58461239e565b61236d565b9050828152602081018484840111156116c257600080fd5b6116cd8482856124d1565b509392505050565b6000813590506116e4816125b4565b92915050565b600082601f8301126116fb57600080fd5b813561170b848260208601611697565b91505092915050565b600081359050611723816125cb565b92915050565b60006020828403121561173b57600080fd5b6000611749848285016116d5565b91505092915050565b60006020828403121561176457600080fd5b600082013567ffffffffffffffff81111561177e57600080fd5b61178a848285016116ea565b91505092915050565b60008060008060008060c087890312156117ac57600080fd5b600087013567ffffffffffffffff8111156117c657600080fd5b6117d289828a016116ea565b965050602087013567ffffffffffffffff8111156117ef57600080fd5b6117fb89828a016116ea565b955050604087013567ffffffffffffffff81111561181857600080fd5b61182489828a016116ea565b945050606087013567ffffffffffffffff81111561184157600080fd5b61184d89828a016116ea565b935050608087013567ffffffffffffffff81111561186a57600080fd5b61187689828a016116ea565b92505060a087013567ffffffffffffffff81111561189357600080fd5b61189f89828a016116ea565b9150509295509295509295565b6000602082840312156118be57600080fd5b60006118cc84828501611714565b91505092915050565b60006118e18383611901565b60208301905092915050565b60006118f98383612046565b905092915050565b61190a81612489565b82525050565b61191981612489565b82525050565b600061192a826123ee565b6119348185612429565b935061193f836123ce565b8060005b8381101561197057815161195788826118d5565b97506119628361240f565b925050600181019050611943565b5085935050505092915050565b6000611988826123f9565b611992818561243a565b9350836020820285016119a4856123de565b8060005b858110156119e057848403895281516119c185826118ed565b94506119cc8361241c565b925060208a019950506001810190506119a8565b50829750879550505050505092915050565b60006119fd826123f9565b611a07818561244b565b935083602082028501611a19856123de565b8060005b85811015611a555784840389528151611a3685826118ed565b9450611a418361241c565b925060208a01995050600181019050611a1d565b50829750879550505050505092915050565b611a708161249b565b82525050565b611a7f8161249b565b82525050565b6000611a9082612404565b611a9a818561245c565b9350611aaa8185602086016124e0565b611ab3816125a3565b840191505092915050565b6000611ac982612404565b611ad3818561246d565b9350611ae38185602086016124e0565b611aec816125a3565b840191505092915050565b6000611b0282612404565b611b0c818561247e565b9350611b1c8185602086016124e0565b80840191505092915050565b6000611b3560108361247e565b91507f426c61636b2028313074682044616e29000000000000000000000000000000006000830152601082019050919050565b6000611b7560058361247e565b91507f42726f776e0000000000000000000000000000000000000000000000000000006000830152600582019050919050565b6000611bb5600f8361247e565b91507f426c61636b20283774682044616e2900000000000000000000000000000000006000830152600f82019050919050565b6000611bf5600f8361247e565b91507f426c61636b20283574682044616e2900000000000000000000000000000000006000830152600f82019050919050565b6000611c3560068361247e565b91507f59656c6c6f7700000000000000000000000000000000000000000000000000006000830152600682019050919050565b6000611c7560048361247e565b91507f426c7565000000000000000000000000000000000000000000000000000000006000830152600482019050919050565b6000611cb560058361247e565b91507f477265656e0000000000000000000000000000000000000000000000000000006000830152600582019050919050565b6000611cf5600f8361247e565b91507f426c61636b20283674682044616e2900000000000000000000000000000000006000830152600f82019050919050565b6000611d35600f8361247e565b91507f426c61636b2028326e642044616e2900000000000000000000000000000000006000830152600f82019050919050565b6000611d75600f8361247e565b91507f426c61636b20283372642044616e2900000000000000000000000000000000006000830152600f82019050919050565b6000611db5600f8361247e565b91507f426c61636b20283874682044616e2900000000000000000000000000000000006000830152600f82019050919050565b6000611df5600f8361247e565b91507f426c61636b20283474682044616e2900000000000000000000000000000000006000830152600f82019050919050565b6000611e35600f8361247e565b91507f426c61636b20283173742044616e2900000000000000000000000000000000006000830152600f82019050919050565b6000611e75601d8361246d565b91507f4a75646f6b6120697320616c726561647920726567697374657265642e0000006000830152602082019050919050565b6000611eb560058361247e565b91507f57686974650000000000000000000000000000000000000000000000000000006000830152600582019050919050565b6000611ef560198361246d565b91507f4a75646f6b61206973206e6f7420726567697374657265642e000000000000006000830152602082019050919050565b6000611f3560068361247e565b91507f4f72616e676500000000000000000000000000000000000000000000000000006000830152600682019050919050565b6000611f75600f8361247e565b91507f426c61636b20283974682044616e2900000000000000000000000000000000006000830152600f82019050919050565b600060c0830160008301518482036000860152611fc58282611a85565b91505060208301518482036020860152611fdf8282611a85565b91505060408301518482036040860152611ff98282611a85565b915050606083015161200e6060860182611a67565b5060808301518482036080860152612026828261197d565b91505060a083015161203b60a08601826120a4565b508091505092915050565b600060608301600083015184820360008601526120638282611a85565b9150506020830151848203602086015261207d8282611a85565b915050604083015184820360408601526120978282611a85565b9150508091505092915050565b6120ad816124c7565b82525050565b6120bc816124c7565b82525050565b60006120ce8284611af7565b915081905092915050565b60006120e482611b28565b9150819050919050565b60006120f982611b68565b9150819050919050565b600061210e82611ba8565b9150819050919050565b600061212382611be8565b9150819050919050565b600061213882611c28565b9150819050919050565b600061214d82611c68565b9150819050919050565b600061216282611ca8565b9150819050919050565b600061217782611ce8565b9150819050919050565b600061218c82611d28565b9150819050919050565b60006121a182611d68565b9150819050919050565b60006121b682611da8565b9150819050919050565b60006121cb82611de8565b9150819050919050565b60006121e082611e28565b9150819050919050565b60006121f582611ea8565b9150819050919050565b600061220a82611f28565b9150819050919050565b600061221f82611f68565b9150819050919050565b600060208201905061223e6000830184611910565b92915050565b6000602082019050818103600083015261225e818461191f565b905092915050565b6000602082019050818103600083015261228081846119f2565b905092915050565b600060a08201905081810360008301526122a28188611abe565b905081810360208301526122b68187611abe565b905081810360408301526122ca8186611abe565b90506122d96060830185611a76565b6122e660808301846120b3565b9695505050505050565b6000602082019050818103600083015261230981611e68565b9050919050565b6000602082019050818103600083015261232981611ee8565b9050919050565b6000602082019050818103600083015261234a8184611fa8565b905092915050565b600060208201905061236760008301846120b3565b92915050565b6000604051905081810181811067ffffffffffffffff8211171561239457612393612574565b5b8060405250919050565b600067ffffffffffffffff8211156123b9576123b8612574565b5b601f19601f8301169050602081019050919050565b6000819050602082019050919050565b6000819050602082019050919050565b600081519050919050565b600081519050919050565b600081519050919050565b6000602082019050919050565b6000602082019050919050565b600082825260208201905092915050565b600082825260208201905092915050565b600082825260208201905092915050565b600082825260208201905092915050565b600082825260208201905092915050565b600081905092915050565b6000612494826124a7565b9050919050565b60008115159050919050565b600073ffffffffffffffffffffffffffffffffffffffff82169050919050565b6000819050919050565b82818337600083830152505050565b60005b838110156124fe5780820151818401526020810190506124e3565b8381111561250d576000848401525b50505050565b6000600282049050600182168061252b57607f821691505b6020821081141561253f5761253e612545565b5b50919050565b7f4e487b7100000000000000000000000000000000000000000000000000000000600052602260045260246000fd5b7f4e487b7100000000000000000000000000000000000000000000000000000000600052604160045260246000fd5b6000601f19601f8301169050919050565b6125bd81612489565b81146125c857600080fd5b50565b6125d4816124c7565b81146125df57600080fd5b5056fea26469706673582212201a9d29989c9069f50fc1371e8217ad66cf7ea9621e02038f31e26ec1cbde628e64736f6c63430008000033",
  "immutableReferences": {},
  "source": "// SPDX-License-Identifier: MIT\r\npragma solidity ^0.8.0;\r\n\r\ncontract JudokaRegistry {\r\n    struct Promotion {\r\n        string beltLevel;\r\n        string promotionDate;\r\n        string gym;\r\n    }\r\n\r\n    struct Judoka {\r\n        string firstName;\r\n        string lastName;\r\n        string email;\r\n        bool isRegistered;\r\n        Promotion[] promotions;\r\n        uint256 votingPower;\r\n    }\r\n\r\n    mapping(address => Judoka) public judokas;\r\n    address[] public judokaAddresses;\r\n\r\n    function registerJudoka(\r\n        string memory _firstName,\r\n        string memory _lastName,\r\n        string memory _email,\r\n        string memory _beltLevel,\r\n        string memory _promotionDate,\r\n        string memory _gym\r\n    ) public {\r\n        require(!judokas[msg.sender].isRegistered, \"Judoka is already registered.\");\r\n\r\n        uint256 votingPower = getVotingPower(_beltLevel);\r\n\r\n        Promotion memory initialPromotion = Promotion({\r\n            beltLevel: _beltLevel,\r\n            promotionDate: _promotionDate,\r\n            gym: _gym\r\n        });\r\n\r\n        Judoka storage newJudoka = judokas[msg.sender];\r\n        newJudoka.firstName = _firstName;\r\n        newJudoka.lastName = _lastName;\r\n        newJudoka.email = _email;\r\n        newJudoka.isRegistered = true;\r\n        newJudoka.votingPower = votingPower;\r\n        newJudoka.promotions.push(initialPromotion);\r\n\r\n        judokaAddresses.push(msg.sender);\r\n    }\r\n\r\n    function getVotingPower(string memory _beltLevel) public pure returns (uint256) {\r\n        if (keccak256(abi.encodePacked((_beltLevel))) == keccak256(abi.encodePacked((\"White\")))) return 0;\r\n        if (keccak256(abi.encodePacked((_beltLevel))) == keccak256(abi.encodePacked((\"Yellow\")))) return 5;\r\n        if (keccak256(abi.encodePacked((_beltLevel))) == keccak256(abi.encodePacked((\"Orange\")))) return 10;\r\n        if (keccak256(abi.encodePacked((_beltLevel))) == keccak256(abi.encodePacked((\"Green\")))) return 20;\r\n        if (keccak256(abi.encodePacked((_beltLevel))) == keccak256(abi.encodePacked((\"Blue\")))) return 50;\r\n        if (keccak256(abi.encodePacked((_beltLevel))) == keccak256(abi.encodePacked((\"Brown\")))) return 100;\r\n        if (keccak256(abi.encodePacked((_beltLevel))) == keccak256(abi.encodePacked((\"Black (1st Dan)\")))) return 125;\r\n        if (keccak256(abi.encodePacked((_beltLevel))) == keccak256(abi.encodePacked((\"Black (2nd Dan)\")))) return 150;\r\n        if (keccak256(abi.encodePacked((_beltLevel))) == keccak256(abi.encodePacked((\"Black (3rd Dan)\")))) return 175;\r\n        if (keccak256(abi.encodePacked((_beltLevel))) == keccak256(abi.encodePacked((\"Black (4th Dan)\")))) return 200;\r\n        if (keccak256(abi.encodePacked((_beltLevel))) == keccak256(abi.encodePacked((\"Black (5th Dan)\")))) return 225;\r\n        if (keccak256(abi.encodePacked((_beltLevel))) == keccak256(abi.encodePacked((\"Black (6th Dan)\")))) return 250;\r\n        if (keccak256(abi.encodePacked((_beltLevel))) == keccak256(abi.encodePacked((\"Black (7th Dan)\")))) return 275;\r\n        if (keccak256(abi.encodePacked((_beltLevel))) == keccak256(abi.encodePacked((\"Black (8th Dan)\")))) return 300;\r\n        if (keccak256(abi.encodePacked((_beltLevel))) == keccak256(abi.encodePacked((\"Black (9th Dan)\")))) return 325;\r\n        if (keccak256(abi.encodePacked((_beltLevel))) == keccak256(abi.encodePacked((\"Black (10th Dan)\")))) return 350;\r\n        return 0;\r\n    }\r\n\r\n    function getJudoka(address _judokaAddress) public view returns (Judoka memory) {\r\n        return judokas[_judokaAddress];\r\n    }\r\n\r\n    function getJudokaPromotions(address _judokaAddress) public view returns (Promotion[] memory) {\r\n        return judokas[_judokaAddress].promotions;\r\n    }\r\n\r\n    function getAllJudokas() public view returns (address[] memory) {\r\n        return judokaAddresses;\r\n    }\r\n\r\n    function updateJudoka(\r\n        string memory _firstName,\r\n        string memory _lastName,\r\n        string memory _email,\r\n        string memory _beltLevel,\r\n        string memory _promotionDate,\r\n        string memory _gym\r\n    ) public {\r\n        require(judokas[msg.sender].isRegistered, \"Judoka is not registered.\");\r\n        \r\n        judokas[msg.sender].firstName = _firstName;\r\n        judokas[msg.sender].lastName = _lastName;\r\n        judokas[msg.sender].email = _email;\r\n\r\n        Promotion memory newPromotion = Promotion({\r\n            beltLevel: _beltLevel,\r\n            promotionDate: _promotionDate,\r\n            gym: _gym\r\n        });\r\n\r\n        judokas[msg.sender].promotions.push(newPromotion);\r\n    }\r\n}\r\n",
  "sourcePath": "C:\\Users\\marti\\Documents\\projects\\judo-chain\\contracts\\JudokaRegistry.sol",
  "compiler": {
    "name": "solc",
    "version": "0.8.0+commit.c7dfd78e.Emscripten.clang"
  },
  "schemaVersion": "3.4.16",
  "updatedAt": "2024-06-20T10:13:07.146Z",
  "networkType": "ethereum",
  "devdoc": {
    "kind": "dev",
    "methods": {},
    "version": 1
  },
  "userdoc": {
    "kind": "user",
    "methods": {},
    "version": 1
  }
}