{
  "contractName": "MessagingContract",
  "abi": [
    {
      "anonymous": false,
      "inputs": [
        {
          "indexed": true,
          "internalType": "address",
          "name": "requester",
          "type": "address"
        },
        {
          "indexed": true,
          "internalType": "address",
          "name": "receiver",
          "type": "address"
        }
      ],
      "name": "FriendRequestAccepted",
      "type": "event"
    },
    {
      "anonymous": false,
      "inputs": [
        {
          "indexed": true,
          "internalType": "address",
          "name": "requester",
          "type": "address"
        },
        {
          "indexed": true,
          "internalType": "address",
          "name": "receiver",
          "type": "address"
        },
        {
          "indexed": true,
          "internalType": "uint256",
          "name": "requestId",
          "type": "uint256"
        }
      ],
      "name": "FriendRequestSent",
      "type": "event"
    },
    {
      "anonymous": false,
      "inputs": [
        {
          "indexed": true,
          "internalType": "address",
          "name": "sender",
          "type": "address"
        },
        {
          "indexed": true,
          "internalType": "address",
          "name": "receiver",
          "type": "address"
        },
        {
          "indexed": true,
          "internalType": "uint256",
          "name": "messageId",
          "type": "uint256"
        }
      ],
      "name": "MessageSent",
      "type": "event"
    },
    {
      "inputs": [
        {
          "internalType": "uint256",
          "name": "",
          "type": "uint256"
        }
      ],
      "name": "friendRequests",
      "outputs": [
        {
          "internalType": "address",
          "name": "requester",
          "type": "address"
        },
        {
          "internalType": "address",
          "name": "receiver",
          "type": "address"
        }
      ],
      "stateMutability": "view",
      "type": "function",
      "constant": true
    },
    {
      "inputs": [
        {
          "internalType": "address",
          "name": "",
          "type": "address"
        },
        {
          "internalType": "uint256",
          "name": "",
          "type": "uint256"
        }
      ],
      "name": "friends",
      "outputs": [
        {
          "internalType": "address",
          "name": "",
          "type": "address"
        }
      ],
      "stateMutability": "view",
      "type": "function",
      "constant": true
    },
    {
      "inputs": [
        {
          "internalType": "uint256",
          "name": "",
          "type": "uint256"
        }
      ],
      "name": "messages",
      "outputs": [
        {
          "internalType": "address",
          "name": "sender",
          "type": "address"
        },
        {
          "internalType": "address",
          "name": "receiver",
          "type": "address"
        },
        {
          "internalType": "string",
          "name": "content",
          "type": "string"
        }
      ],
      "stateMutability": "view",
      "type": "function",
      "constant": true
    },
    {
      "inputs": [
        {
          "internalType": "address",
          "name": "",
          "type": "address"
        },
        {
          "internalType": "uint256",
          "name": "",
          "type": "uint256"
        }
      ],
      "name": "userFriendRequests",
      "outputs": [
        {
          "internalType": "uint256",
          "name": "",
          "type": "uint256"
        }
      ],
      "stateMutability": "view",
      "type": "function",
      "constant": true
    },
    {
      "inputs": [
        {
          "internalType": "address",
          "name": "",
          "type": "address"
        },
        {
          "internalType": "uint256",
          "name": "",
          "type": "uint256"
        }
      ],
      "name": "userMessages",
      "outputs": [
        {
          "internalType": "uint256",
          "name": "",
          "type": "uint256"
        }
      ],
      "stateMutability": "view",
      "type": "function",
      "constant": true
    },
    {
      "inputs": [
        {
          "internalType": "address",
          "name": "_receiver",
          "type": "address"
        },
        {
          "internalType": "string",
          "name": "_content",
          "type": "string"
        }
      ],
      "name": "sendMessage",
      "outputs": [],
      "stateMutability": "nonpayable",
      "type": "function"
    },
    {
      "inputs": [
        {
          "internalType": "uint256",
          "name": "_messageId",
          "type": "uint256"
        }
      ],
      "name": "getMessage",
      "outputs": [
        {
          "internalType": "address",
          "name": "",
          "type": "address"
        },
        {
          "internalType": "address",
          "name": "",
          "type": "address"
        },
        {
          "internalType": "string",
          "name": "",
          "type": "string"
        }
      ],
      "stateMutability": "view",
      "type": "function",
      "constant": true
    },
    {
      "inputs": [
        {
          "internalType": "address",
          "name": "_user",
          "type": "address"
        }
      ],
      "name": "getUserMessages",
      "outputs": [
        {
          "internalType": "uint256[]",
          "name": "",
          "type": "uint256[]"
        }
      ],
      "stateMutability": "view",
      "type": "function",
      "constant": true
    },
    {
      "inputs": [
        {
          "internalType": "address",
          "name": "_receiver",
          "type": "address"
        }
      ],
      "name": "sendFriendRequest",
      "outputs": [],
      "stateMutability": "nonpayable",
      "type": "function"
    },
    {
      "inputs": [
        {
          "internalType": "uint256",
          "name": "_requestId",
          "type": "uint256"
        }
      ],
      "name": "getFriendRequest",
      "outputs": [
        {
          "internalType": "address",
          "name": "",
          "type": "address"
        },
        {
          "internalType": "address",
          "name": "",
          "type": "address"
        }
      ],
      "stateMutability": "view",
      "type": "function",
      "constant": true
    },
    {
      "inputs": [
        {
          "internalType": "address",
          "name": "_user",
          "type": "address"
        }
      ],
      "name": "getUserFriendRequests",
      "outputs": [
        {
          "internalType": "uint256[]",
          "name": "",
          "type": "uint256[]"
        }
      ],
      "stateMutability": "view",
      "type": "function",
      "constant": true
    },
    {
      "inputs": [
        {
          "internalType": "uint256",
          "name": "_requestId",
          "type": "uint256"
        }
      ],
      "name": "acceptFriendRequest",
      "outputs": [],
      "stateMutability": "nonpayable",
      "type": "function"
    },
    {
      "inputs": [
        {
          "internalType": "address",
          "name": "_user",
          "type": "address"
        }
      ],
      "name": "getUserFriends",
      "outputs": [
        {
          "internalType": "address[]",
          "name": "",
          "type": "address[]"
        }
      ],
      "stateMutability": "view",
      "type": "function",
      "constant": true
    },
    {
      "inputs": [
        {
          "internalType": "address",
          "name": "_user",
          "type": "address"
        },
        {
          "internalType": "address",
          "name": "_friend",
          "type": "address"
        }
      ],
      "name": "isFriend",
      "outputs": [
        {
          "internalType": "bool",
          "name": "",
          "type": "bool"
        }
      ],
      "stateMutability": "view",
      "type": "function",
      "constant": true
    }
  ],
  "bytecode": "0x608060405234801561001057600080fd5b50611da1806100206000396000f3fe608060405234801561001057600080fd5b50600436106100ea5760003560e01c806386f79edb1161008c578063d226064111610066578063d2260641146102ac578063dc5bd536146102dc578063de6f24bb1461030d578063e386cf0f14610329576100ea565b806386f79edb1461021a5780639428cda31461024c57806398d63d3d1461027c576100ea565b80632da5d42e116100c85780632da5d42e1461016e5780634004bd9b1461019e57806367f58c09146101ce578063837b770a146101fe576100ea565b80630a1a0dcc146100ef5780630d80fefd146101205780632b5aeab714610152575b600080fd5b61010960048036038101906101049190611676565b610359565b604051610117929190611936565b60405180910390f35b61013a60048036038101906101359190611676565b610473565b6040516101499392919061195f565b60405180910390f35b61016c60048036038101906101679190611676565b610575565b005b610188600480360381019061018391906115aa565b610939565b60405161019591906119e1565b60405180910390f35b6101b860048036038101906101b39190611581565b610aad565b6040516101c5919061199d565b60405180910390f35b6101e860048036038101906101e3919061163a565b610b7a565b6040516101f59190611a5c565b60405180910390f35b61021860048036038101906102139190611581565b610bab565b005b610234600480360381019061022f9190611676565b610dcb565b6040516102439392919061195f565b60405180910390f35b6102666004803603810190610261919061163a565b610f81565b6040516102739190611a5c565b60405180910390f35b61029660048036038101906102919190611581565b610fb2565b6040516102a391906119bf565b60405180910390f35b6102c660048036038101906102c1919061163a565b611049565b6040516102d3919061191b565b60405180910390f35b6102f660048036038101906102f19190611676565b611097565b604051610304929190611936565b60405180910390f35b610327600480360381019061032291906115e6565b61110b565b005b610343600480360381019061033e9190611581565b6113b5565b60405161035091906119bf565b60405180910390f35b600080600060018481548110610398577f4e487b7100000000000000000000000000000000000000000000000000000000600052603260045260246000fd5b90600052602060002090600202016040518060400160405290816000820160009054906101000a900473ffffffffffffffffffffffffffffffffffffffff1673ffffffffffffffffffffffffffffffffffffffff1673ffffffffffffffffffffffffffffffffffffffff1681526020016001820160009054906101000a900473ffffffffffffffffffffffffffffffffffffffff1673ffffffffffffffffffffffffffffffffffffffff1673ffffffffffffffffffffffffffffffffffffffff16815250509050806000015181602001519250925050915091565b6000818154811061048357600080fd5b90600052602060002090600302016000915090508060000160009054906101000a900473ffffffffffffffffffffffffffffffffffffffff16908060010160009054906101000a900473ffffffffffffffffffffffffffffffffffffffff16908060020180546104f290611c24565b80601f016020809104026020016040519081016040528092919081815260200182805461051e90611c24565b801561056b5780601f106105405761010080835404028352916020019161056b565b820191906000526020600020905b81548152906001019060200180831161054e57829003601f168201915b5050505050905083565b6000600182815481106105b1577f4e487b7100000000000000000000000000000000000000000000000000000000600052603260045260246000fd5b90600052602060002090600202016040518060400160405290816000820160009054906101000a900473ffffffffffffffffffffffffffffffffffffffff1673ffffffffffffffffffffffffffffffffffffffff1673ffffffffffffffffffffffffffffffffffffffff1681526020016001820160009054906101000a900473ffffffffffffffffffffffffffffffffffffffff1673ffffffffffffffffffffffffffffffffffffffff1673ffffffffffffffffffffffffffffffffffffffff168152505090503373ffffffffffffffffffffffffffffffffffffffff16816020015173ffffffffffffffffffffffffffffffffffffffff16146106ea576040517f08c379a00000000000000000000000000000000000000000000000000000000081526004016106e190611a1c565b60405180910390fd5b60026000826000015173ffffffffffffffffffffffffffffffffffffffff1673ffffffffffffffffffffffffffffffffffffffff16815260200190815260200160002081602001519080600181540180825580915050600190039060005260206000200160009091909190916101000a81548173ffffffffffffffffffffffffffffffffffffffff021916908373ffffffffffffffffffffffffffffffffffffffff16021790555060026000826020015173ffffffffffffffffffffffffffffffffffffffff1673ffffffffffffffffffffffffffffffffffffffff16815260200190815260200160002081600001519080600181540180825580915050600190039060005260206000200160009091909190916101000a81548173ffffffffffffffffffffffffffffffffffffffff021916908373ffffffffffffffffffffffffffffffffffffffff16021790555060018281548110610874577f4e487b7100000000000000000000000000000000000000000000000000000000600052603260045260246000fd5b9060005260206000209060020201600080820160006101000a81549073ffffffffffffffffffffffffffffffffffffffff02191690556001820160006101000a81549073ffffffffffffffffffffffffffffffffffffffff02191690555050806020015173ffffffffffffffffffffffffffffffffffffffff16816000015173ffffffffffffffffffffffffffffffffffffffff167f4738efa342d2c6adcb0441cad1723818b7f5b5d6d846c0005945b21d6642e79d60405160405180910390a35050565b600080600260008573ffffffffffffffffffffffffffffffffffffffff1673ffffffffffffffffffffffffffffffffffffffff1681526020019081526020016000208054806020026020016040519081016040528092919081815260200182805480156109fb57602002820191906000526020600020905b8160009054906101000a900473ffffffffffffffffffffffffffffffffffffffff1673ffffffffffffffffffffffffffffffffffffffff16815260200190600101908083116109b1575b5050505050905060005b8151811015610aa0578373ffffffffffffffffffffffffffffffffffffffff16828281518110610a5e577f4e487b7100000000000000000000000000000000000000000000000000000000600052603260045260246000fd5b602002602001015173ffffffffffffffffffffffffffffffffffffffff161415610a8d57600192505050610aa7565b8080610a9890611c56565b915050610a05565b5060009150505b92915050565b6060600260008373ffffffffffffffffffffffffffffffffffffffff1673ffffffffffffffffffffffffffffffffffffffff168152602001908152602001600020805480602002602001604051908101604052809291908181526020018280548015610b6e57602002820191906000526020600020905b8160009054906101000a900473ffffffffffffffffffffffffffffffffffffffff1673ffffffffffffffffffffffffffffffffffffffff1681526020019060010190808311610b24575b50505050509050919050565b60046020528160005260406000208181548110610b9657600080fd5b90600052602060002001600091509150505481565b610bb53382610939565b15610bf5576040517f08c379a0000000000000000000000000000000000000000000000000000000008152600401610bec906119fc565b60405180910390fd5b600160405180604001604052803373ffffffffffffffffffffffffffffffffffffffff1681526020018373ffffffffffffffffffffffffffffffffffffffff16815250908060018154018082558091505060019003906000526020600020906002020160009091909190915060008201518160000160006101000a81548173ffffffffffffffffffffffffffffffffffffffff021916908373ffffffffffffffffffffffffffffffffffffffff16021790555060208201518160010160006101000a81548173ffffffffffffffffffffffffffffffffffffffff021916908373ffffffffffffffffffffffffffffffffffffffff1602179055505050600060018080549050610d049190611b66565b9050600460008373ffffffffffffffffffffffffffffffffffffffff1673ffffffffffffffffffffffffffffffffffffffff168152602001908152602001600020819080600181540180825580915050600190039060005260206000200160009091909190915055808273ffffffffffffffffffffffffffffffffffffffff163373ffffffffffffffffffffffffffffffffffffffff167fc674dc10458b51dbf879e578e49eda21dc2e722c2790719dba64f006243dc8d060405160405180910390a45050565b60008060606000808581548110610e0b577f4e487b7100000000000000000000000000000000000000000000000000000000600052603260045260246000fd5b90600052602060002090600302016040518060600160405290816000820160009054906101000a900473ffffffffffffffffffffffffffffffffffffffff1673ffffffffffffffffffffffffffffffffffffffff1673ffffffffffffffffffffffffffffffffffffffff1681526020016001820160009054906101000a900473ffffffffffffffffffffffffffffffffffffffff1673ffffffffffffffffffffffffffffffffffffffff1673ffffffffffffffffffffffffffffffffffffffff168152602001600282018054610ee090611c24565b80601f0160208091040260200160405190810160405280929190818152602001828054610f0c90611c24565b8015610f595780601f10610f2e57610100808354040283529160200191610f59565b820191906000526020600020905b815481529060010190602001808311610f3c57829003601f168201915b5050505050815250509050806000015181602001518260400151935093509350509193909250565b60036020528160005260406000208181548110610f9d57600080fd5b90600052602060002001600091509150505481565b6060600360008373ffffffffffffffffffffffffffffffffffffffff1673ffffffffffffffffffffffffffffffffffffffff16815260200190815260200160002080548060200260200160405190810160405280929190818152602001828054801561103d57602002820191906000526020600020905b815481526020019060010190808311611029575b50505050509050919050565b6002602052816000526040600020818154811061106557600080fd5b906000526020600020016000915091509054906101000a900473ffffffffffffffffffffffffffffffffffffffff1681565b600181815481106110a757600080fd5b90600052602060002090600202016000915090508060000160009054906101000a900473ffffffffffffffffffffffffffffffffffffffff16908060010160009054906101000a900473ffffffffffffffffffffffffffffffffffffffff16905082565b6111153383610939565b611154576040517f08c379a000000000000000000000000000000000000000000000000000000000815260040161114b90611a3c565b60405180910390fd5b600060405180606001604052803373ffffffffffffffffffffffffffffffffffffffff1681526020018473ffffffffffffffffffffffffffffffffffffffff16815260200183815250908060018154018082558091505060019003906000526020600020906003020160009091909190915060008201518160000160006101000a81548173ffffffffffffffffffffffffffffffffffffffff021916908373ffffffffffffffffffffffffffffffffffffffff16021790555060208201518160010160006101000a81548173ffffffffffffffffffffffffffffffffffffffff021916908373ffffffffffffffffffffffffffffffffffffffff160217905550604082015181600201908051906020019061127092919061144c565b505050600060016000805490506112879190611b66565b9050600360003373ffffffffffffffffffffffffffffffffffffffff1673ffffffffffffffffffffffffffffffffffffffff168152602001908152602001600020819080600181540180825580915050600190039060005260206000200160009091909190915055600360008473ffffffffffffffffffffffffffffffffffffffff1673ffffffffffffffffffffffffffffffffffffffff168152602001908152602001600020819080600181540180825580915050600190039060005260206000200160009091909190915055808373ffffffffffffffffffffffffffffffffffffffff163373ffffffffffffffffffffffffffffffffffffffff167f8e3ce0a37f42bfb0e85f8f02c440ff2843d1182d7f1fce9174f7980e5e9d130c60405160405180910390a4505050565b6060600460008373ffffffffffffffffffffffffffffffffffffffff1673ffffffffffffffffffffffffffffffffffffffff16815260200190815260200160002080548060200260200160405190810160405280929190818152602001828054801561144057602002820191906000526020600020905b81548152602001906001019080831161142c575b50505050509050919050565b82805461145890611c24565b90600052602060002090601f01602090048101928261147a57600085556114c1565b82601f1061149357805160ff19168380011785556114c1565b828001600101855582156114c1579182015b828111156114c05782518255916020019190600101906114a5565b5b5090506114ce91906114d2565b5090565b5b808211156114eb5760008160009055506001016114d3565b5090565b60006115026114fd84611aa8565b611a77565b90508281526020810184848401111561151a57600080fd5b611525848285611be2565b509392505050565b60008135905061153c81611d3d565b92915050565b600082601f83011261155357600080fd5b81356115638482602086016114ef565b91505092915050565b60008135905061157b81611d54565b92915050565b60006020828403121561159357600080fd5b60006115a18482850161152d565b91505092915050565b600080604083850312156115bd57600080fd5b60006115cb8582860161152d565b92505060206115dc8582860161152d565b9150509250929050565b600080604083850312156115f957600080fd5b60006116078582860161152d565b925050602083013567ffffffffffffffff81111561162457600080fd5b61163085828601611542565b9150509250929050565b6000806040838503121561164d57600080fd5b600061165b8582860161152d565b925050602061166c8582860161156c565b9150509250929050565b60006020828403121561168857600080fd5b60006116968482850161156c565b91505092915050565b60006116ab83836116cf565b60208301905092915050565b60006116c383836118fd565b60208301905092915050565b6116d881611b9a565b82525050565b6116e781611b9a565b82525050565b60006116f882611af8565b6117028185611b33565b935061170d83611ad8565b8060005b8381101561173e578151611725888261169f565b975061173083611b19565b925050600181019050611711565b5085935050505092915050565b600061175682611b03565b6117608185611b44565b935061176b83611ae8565b8060005b8381101561179c57815161178388826116b7565b975061178e83611b26565b92505060018101905061176f565b5085935050505092915050565b6117b281611bac565b82525050565b60006117c382611b0e565b6117cd8185611b55565b93506117dd818560208601611bf1565b6117e681611d2c565b840191505092915050565b60006117fe601883611b55565b91507f596f752061726520616c726561647920667269656e64732e00000000000000006000830152602082019050919050565b600061183e602f83611b55565b91507f4f6e6c79207468652072656365697665722063616e206163636570742074686560008301527f20667269656e64207265717565737400000000000000000000000000000000006020830152604082019050919050565b60006118a4602683611b55565b91507f596f752063616e206f6e6c792073656e64206d6573736167657320746f20667260008301527f69656e64732e00000000000000000000000000000000000000000000000000006020830152604082019050919050565b61190681611bd8565b82525050565b61191581611bd8565b82525050565b600060208201905061193060008301846116de565b92915050565b600060408201905061194b60008301856116de565b61195860208301846116de565b9392505050565b600060608201905061197460008301866116de565b61198160208301856116de565b818103604083015261199381846117b8565b9050949350505050565b600060208201905081810360008301526119b781846116ed565b905092915050565b600060208201905081810360008301526119d9818461174b565b905092915050565b60006020820190506119f660008301846117a9565b92915050565b60006020820190508181036000830152611a15816117f1565b9050919050565b60006020820190508181036000830152611a3581611831565b9050919050565b60006020820190508181036000830152611a5581611897565b9050919050565b6000602082019050611a71600083018461190c565b92915050565b6000604051905081810181811067ffffffffffffffff82111715611a9e57611a9d611cfd565b5b8060405250919050565b600067ffffffffffffffff821115611ac357611ac2611cfd565b5b601f19601f8301169050602081019050919050565b6000819050602082019050919050565b6000819050602082019050919050565b600081519050919050565b600081519050919050565b600081519050919050565b6000602082019050919050565b6000602082019050919050565b600082825260208201905092915050565b600082825260208201905092915050565b600082825260208201905092915050565b6000611b7182611bd8565b9150611b7c83611bd8565b925082821015611b8f57611b8e611c9f565b5b828203905092915050565b6000611ba582611bb8565b9050919050565b60008115159050919050565b600073ffffffffffffffffffffffffffffffffffffffff82169050919050565b6000819050919050565b82818337600083830152505050565b60005b83811015611c0f578082015181840152602081019050611bf4565b83811115611c1e576000848401525b50505050565b60006002820490506001821680611c3c57607f821691505b60208210811415611c5057611c4f611cce565b5b50919050565b6000611c6182611bd8565b91507fffffffffffffffffffffffffffffffffffffffffffffffffffffffffffffffff821415611c9457611c93611c9f565b5b600182019050919050565b7f4e487b7100000000000000000000000000000000000000000000000000000000600052601160045260246000fd5b7f4e487b7100000000000000000000000000000000000000000000000000000000600052602260045260246000fd5b7f4e487b7100000000000000000000000000000000000000000000000000000000600052604160045260246000fd5b6000601f19601f8301169050919050565b611d4681611b9a565b8114611d5157600080fd5b50565b611d5d81611bd8565b8114611d6857600080fd5b5056fea2646970667358221220deecf3f7f3c4cfb090f6fd8bebf4b58035de834119797afbe914df02c334b4f664736f6c63430008000033",
  "immutableReferences": {},
  "source": "// SPDX-License-Identifier: MIT\r\npragma solidity ^0.8.0;\r\n\r\ncontract MessagingContract {\r\n    struct Message {\r\n        address sender;\r\n        address receiver;\r\n        string content;\r\n    }\r\n\r\n    struct FriendRequest {\r\n        address requester;\r\n        address receiver;\r\n    }\r\n\r\n    Message[] public messages;\r\n    FriendRequest[] public friendRequests;\r\n    mapping(address => address[]) public friends;\r\n    mapping(address => uint256[]) public userMessages;\r\n    mapping(address => uint256[]) public userFriendRequests;\r\n\r\n    event MessageSent(address indexed sender, address indexed receiver, uint256 indexed messageId);\r\n    event FriendRequestSent(address indexed requester, address indexed receiver, uint256 indexed requestId);\r\n    event FriendRequestAccepted(address indexed requester, address indexed receiver);\r\n\r\n    function sendMessage(address _receiver, string memory _content) public {\r\n        require(isFriend(msg.sender, _receiver), \"You can only send messages to friends.\");\r\n        messages.push(Message(msg.sender, _receiver, _content));\r\n        uint256 messageId = messages.length - 1;\r\n        userMessages[msg.sender].push(messageId);\r\n        userMessages[_receiver].push(messageId);\r\n\r\n        emit MessageSent(msg.sender, _receiver, messageId);\r\n    }\r\n\r\n    function getMessage(uint256 _messageId) public view returns (address, address, string memory) {\r\n        Message memory message = messages[_messageId];\r\n        return (message.sender, message.receiver, message.content);\r\n    }\r\n\r\n    function getUserMessages(address _user) public view returns (uint256[] memory) {\r\n        return userMessages[_user];\r\n    }\r\n\r\n    function sendFriendRequest(address _receiver) public {\r\n        require(!isFriend(msg.sender, _receiver), \"You are already friends.\");\r\n        friendRequests.push(FriendRequest(msg.sender, _receiver));\r\n        uint256 requestId = friendRequests.length - 1;\r\n        userFriendRequests[_receiver].push(requestId);\r\n\r\n        emit FriendRequestSent(msg.sender, _receiver, requestId);\r\n    }\r\n\r\n    function getFriendRequest(uint256 _requestId) public view returns (address, address) {\r\n        FriendRequest memory request = friendRequests[_requestId];\r\n        return (request.requester, request.receiver);\r\n    }\r\n\r\n    function getUserFriendRequests(address _user) public view returns (uint256[] memory) {\r\n        return userFriendRequests[_user];\r\n    }\r\n\r\n    function acceptFriendRequest(uint256 _requestId) public {\r\n        FriendRequest memory request = friendRequests[_requestId];\r\n        require(request.receiver == msg.sender, \"Only the receiver can accept the friend request\");\r\n\r\n        friends[request.requester].push(request.receiver);\r\n        friends[request.receiver].push(request.requester);\r\n\r\n        delete friendRequests[_requestId];\r\n\r\n        emit FriendRequestAccepted(request.requester, request.receiver);\r\n    }\r\n\r\n    function getUserFriends(address _user) public view returns (address[] memory) {\r\n        return friends[_user];\r\n    }\r\n\r\n    function isFriend(address _user, address _friend) public view returns (bool) {\r\n        address[] memory userFriends = friends[_user];\r\n        for (uint256 i = 0; i < userFriends.length; i++) {\r\n            if (userFriends[i] == _friend) {\r\n                return true;\r\n            }\r\n        }\r\n        return false;\r\n    }\r\n}\r\n",
  "sourcePath": "C:\\Users\\marti\\Documents\\projects\\judo-chain\\contracts\\MessagingContract.sol",
  "compiler": {
    "name": "solc",
    "version": "0.8.0+commit.c7dfd78e.Emscripten.clang"
  },
  "schemaVersion": "3.4.16",
  "updatedAt": "2024-07-05T10:31:15.612Z",
  "networkType": "ethereum",
  "devdoc": {
    "kind": "dev",
    "methods": {},
    "version": 1
  },
  "userdoc": {
    "kind": "user",
    "methods": {},
    "version": 1
  }
}