{
  "contractName": "ProfileManagement",
  "abi": [
    {
      "inputs": [],
      "name": "getAllJudokas",
      "outputs": [
        {
          "internalType": "address[]",
          "name": "",
          "type": "address[]"
        }
      ],
      "stateMutability": "view",
      "type": "function",
      "constant": true
    },
    {
      "inputs": [
        {
          "internalType": "address",
          "name": "_judokaAddress",
          "type": "address"
        }
      ],
      "name": "getJudoka",
      "outputs": [
        {
          "components": [
            {
              "internalType": "string",
              "name": "firstName",
              "type": "string"
            },
            {
              "internalType": "string",
              "name": "lastName",
              "type": "string"
            },
            {
              "internalType": "string",
              "name": "email",
              "type": "string"
            },
            {
              "internalType": "bool",
              "name": "isRegistered",
              "type": "bool"
            },
            {
              "components": [
                {
                  "internalType": "string",
                  "name": "beltLevel",
                  "type": "string"
                },
                {
                  "internalType": "string",
                  "name": "promotionDate",
                  "type": "string"
                },
                {
                  "internalType": "string",
                  "name": "gym",
                  "type": "string"
                }
              ],
              "internalType": "struct JudokaRegistry.Promotion[]",
              "name": "promotions",
              "type": "tuple[]"
            },
            {
              "internalType": "uint256",
              "name": "votingPower",
              "type": "uint256"
            },
            {
              "internalType": "uint256",
              "name": "points",
              "type": "uint256"
            }
          ],
          "internalType": "struct JudokaRegistry.Judoka",
          "name": "",
          "type": "tuple"
        }
      ],
      "stateMutability": "view",
      "type": "function",
      "constant": true
    },
    {
      "inputs": [
        {
          "internalType": "address",
          "name": "_judokaAddress",
          "type": "address"
        }
      ],
      "name": "getJudokaPromotions",
      "outputs": [
        {
          "components": [
            {
              "internalType": "string",
              "name": "beltLevel",
              "type": "string"
            },
            {
              "internalType": "string",
              "name": "promotionDate",
              "type": "string"
            },
            {
              "internalType": "string",
              "name": "gym",
              "type": "string"
            }
          ],
          "internalType": "struct JudokaRegistry.Promotion[]",
          "name": "",
          "type": "tuple[]"
        }
      ],
      "stateMutability": "view",
      "type": "function",
      "constant": true
    },
    {
      "inputs": [
        {
          "internalType": "string",
          "name": "_beltLevel",
          "type": "string"
        }
      ],
      "name": "getVotingPower",
      "outputs": [
        {
          "internalType": "uint256",
          "name": "",
          "type": "uint256"
        }
      ],
      "stateMutability": "pure",
      "type": "function",
      "constant": true
    },
    {
      "inputs": [
        {
          "internalType": "uint256",
          "name": "",
          "type": "uint256"
        }
      ],
      "name": "judokaAddresses",
      "outputs": [
        {
          "internalType": "address",
          "name": "",
          "type": "address"
        }
      ],
      "stateMutability": "view",
      "type": "function",
      "constant": true
    },
    {
      "inputs": [
        {
          "internalType": "address",
          "name": "",
          "type": "address"
        }
      ],
      "name": "judokas",
      "outputs": [
        {
          "internalType": "string",
          "name": "firstName",
          "type": "string"
        },
        {
          "internalType": "string",
          "name": "lastName",
          "type": "string"
        },
        {
          "internalType": "string",
          "name": "email",
          "type": "string"
        },
        {
          "internalType": "bool",
          "name": "isRegistered",
          "type": "bool"
        },
        {
          "internalType": "uint256",
          "name": "votingPower",
          "type": "uint256"
        },
        {
          "internalType": "uint256",
          "name": "points",
          "type": "uint256"
        }
      ],
      "stateMutability": "view",
      "type": "function",
      "constant": true
    },
    {
      "inputs": [
        {
          "internalType": "address",
          "name": "",
          "type": "address"
        }
      ],
      "name": "profiles",
      "outputs": [
        {
          "components": [
            {
              "internalType": "string",
              "name": "middleName",
              "type": "string"
            },
            {
              "internalType": "string",
              "name": "birthday",
              "type": "string"
            },
            {
              "internalType": "bool",
              "name": "makePublic",
              "type": "bool"
            },
            {
              "internalType": "string",
              "name": "sex",
              "type": "string"
            },
            {
              "internalType": "string",
              "name": "state",
              "type": "string"
            },
            {
              "internalType": "string",
              "name": "city",
              "type": "string"
            },
            {
              "internalType": "string",
              "name": "country",
              "type": "string"
            },
            {
              "internalType": "string",
              "name": "description",
              "type": "string"
            }
          ],
          "internalType": "struct ProfileManagement.ProfileInfo",
          "name": "personalInfo",
          "type": "tuple"
        },
        {
          "internalType": "string",
          "name": "profilePicture",
          "type": "string"
        },
        {
          "internalType": "string",
          "name": "academy",
          "type": "string"
        },
        {
          "components": [
            {
              "internalType": "string",
              "name": "instagram",
              "type": "string"
            },
            {
              "internalType": "string",
              "name": "facebook",
              "type": "string"
            },
            {
              "internalType": "string",
              "name": "youtube",
              "type": "string"
            }
          ],
          "internalType": "struct ProfileManagement.SocialMedia",
          "name": "socialMedia",
          "type": "tuple"
        }
      ],
      "stateMutability": "view",
      "type": "function",
      "constant": true
    },
    {
      "inputs": [
        {
          "internalType": "string",
          "name": "_firstName",
          "type": "string"
        },
        {
          "internalType": "string",
          "name": "_lastName",
          "type": "string"
        },
        {
          "internalType": "string",
          "name": "_email",
          "type": "string"
        },
        {
          "internalType": "string",
          "name": "_beltLevel",
          "type": "string"
        },
        {
          "internalType": "string",
          "name": "_promotionDate",
          "type": "string"
        },
        {
          "internalType": "string",
          "name": "_gym",
          "type": "string"
        }
      ],
      "name": "registerJudoka",
      "outputs": [],
      "stateMutability": "nonpayable",
      "type": "function"
    },
    {
      "inputs": [
        {
          "internalType": "string",
          "name": "_firstName",
          "type": "string"
        },
        {
          "internalType": "string",
          "name": "_lastName",
          "type": "string"
        },
        {
          "internalType": "string",
          "name": "_email",
          "type": "string"
        },
        {
          "internalType": "string",
          "name": "_beltLevel",
          "type": "string"
        },
        {
          "internalType": "string",
          "name": "_promotionDate",
          "type": "string"
        },
        {
          "internalType": "string",
          "name": "_gym",
          "type": "string"
        }
      ],
      "name": "updateJudoka",
      "outputs": [],
      "stateMutability": "nonpayable",
      "type": "function"
    },
    {
      "inputs": [
        {
          "internalType": "address",
          "name": "_judokaAddress",
          "type": "address"
        },
        {
          "internalType": "uint256",
          "name": "newPoints",
          "type": "uint256"
        }
      ],
      "name": "updateJudokaPoints",
      "outputs": [],
      "stateMutability": "nonpayable",
      "type": "function"
    },
    {
      "inputs": [
        {
          "internalType": "string",
          "name": "middleName",
          "type": "string"
        }
      ],
      "name": "updateMiddleName",
      "outputs": [],
      "stateMutability": "nonpayable",
      "type": "function"
    },
    {
      "inputs": [
        {
          "internalType": "string",
          "name": "birthday",
          "type": "string"
        }
      ],
      "name": "updateBirthday",
      "outputs": [],
      "stateMutability": "nonpayable",
      "type": "function"
    },
    {
      "inputs": [
        {
          "internalType": "bool",
          "name": "makePublic",
          "type": "bool"
        }
      ],
      "name": "updateMakePublic",
      "outputs": [],
      "stateMutability": "nonpayable",
      "type": "function"
    },
    {
      "inputs": [
        {
          "internalType": "string",
          "name": "sex",
          "type": "string"
        }
      ],
      "name": "updateSex",
      "outputs": [],
      "stateMutability": "nonpayable",
      "type": "function"
    },
    {
      "inputs": [
        {
          "internalType": "string",
          "name": "state",
          "type": "string"
        }
      ],
      "name": "updateState",
      "outputs": [],
      "stateMutability": "nonpayable",
      "type": "function"
    },
    {
      "inputs": [
        {
          "internalType": "string",
          "name": "city",
          "type": "string"
        }
      ],
      "name": "updateCity",
      "outputs": [],
      "stateMutability": "nonpayable",
      "type": "function"
    },
    {
      "inputs": [
        {
          "internalType": "string",
          "name": "country",
          "type": "string"
        }
      ],
      "name": "updateCountry",
      "outputs": [],
      "stateMutability": "nonpayable",
      "type": "function"
    },
    {
      "inputs": [
        {
          "internalType": "string",
          "name": "description",
          "type": "string"
        }
      ],
      "name": "updateDescription",
      "outputs": [],
      "stateMutability": "nonpayable",
      "type": "function"
    },
    {
      "inputs": [
        {
          "internalType": "string",
          "name": "profilePicture",
          "type": "string"
        }
      ],
      "name": "uploadProfilePicture",
      "outputs": [],
      "stateMutability": "nonpayable",
      "type": "function"
    },
    {
      "inputs": [
        {
          "internalType": "string",
          "name": "instagram",
          "type": "string"
        },
        {
          "internalType": "string",
          "name": "facebook",
          "type": "string"
        },
        {
          "internalType": "string",
          "name": "youtube",
          "type": "string"
        }
      ],
      "name": "updateSocialMedia",
      "outputs": [],
      "stateMutability": "nonpayable",
      "type": "function"
    },
    {
      "inputs": [
        {
          "internalType": "string",
          "name": "academy",
          "type": "string"
        }
      ],
      "name": "updateAcademyAffiliation",
      "outputs": [],
      "stateMutability": "nonpayable",
      "type": "function"
    }
  ],
  "bytecode": "0x608060405234801561001057600080fd5b506137a5806100206000396000f3fe608060405234801561001057600080fd5b50600436106101375760003560e01c806382169cda116100b8578063db476ceb1161007c578063db476ceb1461033a578063de922e9114610356578063e17ebe3814610372578063e19d1e2d1461038e578063e735b48a146103be578063fd509428146103da57610137565b806382169cda14610283578063974750231461029f578063ab029db9146102bb578063b173c541146102eb578063bbe156271461030757610137565b80635af9ed2d116100ff5780635af9ed2d146101ca5780635dae10cf146101e657806379ff2e6d146102025780637d007f9f1461021e57806380e9e17c1461025357610137565b8063046b658d1461013c5780631c277dee14610158578063201b3ca71461017657806336cfc1e614610192578063391cda59146101ae575b600080fd5b6101566004803603810190610151919061264e565b61040a565b005b61016061046a565b60405161016d919061334b565b60405180910390f35b610190600480360381019061018b9190612677565b6104f8565b005b6101ac60048036038101906101a791906126b8565b610552565b005b6101c860048036038101906101c39190612677565b61060e565b005b6101e460048036038101906101df9190612677565b61066b565b005b61020060048036038101906101fb9190612612565b6106c8565b005b61021c60048036038101906102179190612677565b6107a0565b005b610238600480360381019061023391906125e9565b6107fd565b60405161024a9695949392919061338f565b60405180910390f35b61026d60048036038101906102689190612677565b6109de565b60405161027a91906134c8565b60405180910390f35b61029d60048036038101906102989190612677565b610f9e565b005b6102b960048036038101906102b4919061274f565b610ffb565b005b6102d560048036038101906102d091906125e9565b611277565b6040516102e2919061336d565b60405180910390f35b61030560048036038101906103009190612677565b6114cd565b005b610321600480360381019061031c91906125e9565b611527565b6040516103319493929190613467565b60405180910390f35b610354600480360381019061034f9190612677565b611c4b565b005b610370600480360381019061036b919061274f565b611ca8565b005b61038c60048036038101906103879190612677565b611f15565b005b6103a860048036038101906103a391906125e9565b611f72565b6040516103b59190613445565b60405180910390f35b6103d860048036038101906103d39190612677565b6123c4565b005b6103f460048036038101906103ef9190612868565b612421565b6040516104019190613330565b60405180910390f35b80600260003373ffffffffffffffffffffffffffffffffffffffff1673ffffffffffffffffffffffffffffffffffffffff16815260200190815260200160002060000160020160006101000a81548160ff02191690831515021790555050565b606060018054806020026020016040519081016040528092919081815260200182805480156104ee57602002820191906000526020600020905b8160009054906101000a900473ffffffffffffffffffffffffffffffffffffffff1673ffffffffffffffffffffffffffffffffffffffff16815260200190600101908083116104a4575b5050505050905090565b80600260003373ffffffffffffffffffffffffffffffffffffffff1673ffffffffffffffffffffffffffffffffffffffff168152602001908152602001600020600901908051906020019061054e929190612460565b5050565b604051806060016040528084815260200183815260200182815250600260003373ffffffffffffffffffffffffffffffffffffffff1673ffffffffffffffffffffffffffffffffffffffff168152602001908152602001600020600a0160008201518160000190805190602001906105cb929190612460565b5060208201518160010190805190602001906105e8929190612460565b506040820151816002019080519060200190610605929190612460565b50905050505050565b80600260003373ffffffffffffffffffffffffffffffffffffffff1673ffffffffffffffffffffffffffffffffffffffff1681526020019081526020016000206000016001019080519060200190610667929190612460565b5050565b80600260003373ffffffffffffffffffffffffffffffffffffffff1673ffffffffffffffffffffffffffffffffffffffff16815260200190815260200160002060000160030190805190602001906106c4929190612460565b5050565b6000808373ffffffffffffffffffffffffffffffffffffffff1673ffffffffffffffffffffffffffffffffffffffff16815260200190815260200160002060030160009054906101000a900460ff16610756576040517f08c379a000000000000000000000000000000000000000000000000000000000815260040161074d90613425565b60405180910390fd5b806000808473ffffffffffffffffffffffffffffffffffffffff1673ffffffffffffffffffffffffffffffffffffffff168152602001908152602001600020600601819055505050565b80600260003373ffffffffffffffffffffffffffffffffffffffff1673ffffffffffffffffffffffffffffffffffffffff16815260200190815260200160002060000160040190805190602001906107f9929190612460565b5050565b600060205280600052604060002060009150905080600001805461082090613689565b80601f016020809104026020016040519081016040528092919081815260200182805461084c90613689565b80156108995780601f1061086e57610100808354040283529160200191610899565b820191906000526020600020905b81548152906001019060200180831161087c57829003601f168201915b5050505050908060010180546108ae90613689565b80601f01602080910402602001604051908101604052809291908181526020018280546108da90613689565b80156109275780601f106108fc57610100808354040283529160200191610927565b820191906000526020600020905b81548152906001019060200180831161090a57829003601f168201915b50505050509080600201805461093c90613689565b80601f016020809104026020016040519081016040528092919081815260200182805461096890613689565b80156109b55780601f1061098a576101008083540402835291602001916109b5565b820191906000526020600020905b81548152906001019060200180831161099857829003601f168201915b5050505050908060030160009054906101000a900460ff16908060050154908060060154905086565b60006040516020016109ef906132f1565b6040516020818303038152906040528051906020012082604051602001610a1691906131c9565b604051602081830303815290604052805190602001201415610a3b5760009050610f99565b604051602001610a4a90613234565b6040516020818303038152906040528051906020012082604051602001610a7191906131c9565b604051602081830303815290604052805190602001201415610a965760059050610f99565b604051602001610aa590613306565b6040516020818303038152906040528051906020012082604051602001610acc91906131c9565b604051602081830303815290604052805190602001201415610af157600a9050610f99565b604051602001610b009061325e565b6040516020818303038152906040528051906020012082604051602001610b2791906131c9565b604051602081830303815290604052805190602001201415610b4c5760149050610f99565b604051602001610b5b90613249565b6040516020818303038152906040528051906020012082604051602001610b8291906131c9565b604051602081830303815290604052805190602001201415610ba75760329050610f99565b604051602001610bb6906131f5565b6040516020818303038152906040528051906020012082604051602001610bdd91906131c9565b604051602081830303815290604052805190602001201415610c025760649050610f99565b604051602001610c11906132dc565b6040516020818303038152906040528051906020012082604051602001610c3891906131c9565b604051602081830303815290604052805190602001201415610c5d57607d9050610f99565b604051602001610c6c90613288565b6040516020818303038152906040528051906020012082604051602001610c9391906131c9565b604051602081830303815290604052805190602001201415610cb85760969050610f99565b604051602001610cc79061329d565b6040516020818303038152906040528051906020012082604051602001610cee91906131c9565b604051602081830303815290604052805190602001201415610d135760af9050610f99565b604051602001610d22906132c7565b6040516020818303038152906040528051906020012082604051602001610d4991906131c9565b604051602081830303815290604052805190602001201415610d6e5760c89050610f99565b604051602001610d7d9061321f565b6040516020818303038152906040528051906020012082604051602001610da491906131c9565b604051602081830303815290604052805190602001201415610dc95760e19050610f99565b604051602001610dd890613273565b6040516020818303038152906040528051906020012082604051602001610dff91906131c9565b604051602081830303815290604052805190602001201415610e245760fa9050610f99565b604051602001610e339061320a565b6040516020818303038152906040528051906020012082604051602001610e5a91906131c9565b604051602081830303815290604052805190602001201415610e80576101139050610f99565b604051602001610e8f906132b2565b6040516020818303038152906040528051906020012082604051602001610eb691906131c9565b604051602081830303815290604052805190602001201415610edc5761012c9050610f99565b604051602001610eeb9061331b565b6040516020818303038152906040528051906020012082604051602001610f1291906131c9565b604051602081830303815290604052805190602001201415610f38576101459050610f99565b604051602001610f47906131e0565b6040516020818303038152906040528051906020012082604051602001610f6e91906131c9565b604051602081830303815290604052805190602001201415610f945761015e9050610f99565b600090505b919050565b80600260003373ffffffffffffffffffffffffffffffffffffffff1673ffffffffffffffffffffffffffffffffffffffff1681526020019081526020016000206000016006019080519060200190610ff7929190612460565b5050565b6000803373ffffffffffffffffffffffffffffffffffffffff1673ffffffffffffffffffffffffffffffffffffffff16815260200190815260200160002060030160009054906101000a900460ff16611089576040517f08c379a000000000000000000000000000000000000000000000000000000000815260040161108090613425565b60405180910390fd5b856000803373ffffffffffffffffffffffffffffffffffffffff1673ffffffffffffffffffffffffffffffffffffffff16815260200190815260200160002060000190805190602001906110de929190612460565b50846000803373ffffffffffffffffffffffffffffffffffffffff1673ffffffffffffffffffffffffffffffffffffffff1681526020019081526020016000206001019080519060200190611134929190612460565b50836000803373ffffffffffffffffffffffffffffffffffffffff1673ffffffffffffffffffffffffffffffffffffffff168152602001908152602001600020600201908051906020019061118a929190612460565b50600060405180606001604052808581526020018481526020018381525090506000803373ffffffffffffffffffffffffffffffffffffffff1673ffffffffffffffffffffffffffffffffffffffff1681526020019081526020016000206004018190806001815401808255809150506001900390600052602060002090600302016000909190919091506000820151816000019080519060200190611231929190612460565b50602082015181600101908051906020019061124e929190612460565b50604082015181600201908051906020019061126b929190612460565b50505050505050505050565b60606000808373ffffffffffffffffffffffffffffffffffffffff1673ffffffffffffffffffffffffffffffffffffffff168152602001908152602001600020600401805480602002602001604051908101604052809291908181526020016000905b828210156114c2578382906000526020600020906003020160405180606001604052908160008201805461130d90613689565b80601f016020809104026020016040519081016040528092919081815260200182805461133990613689565b80156113865780601f1061135b57610100808354040283529160200191611386565b820191906000526020600020905b81548152906001019060200180831161136957829003601f168201915b5050505050815260200160018201805461139f90613689565b80601f01602080910402602001604051908101604052809291908181526020018280546113cb90613689565b80156114185780601f106113ed57610100808354040283529160200191611418565b820191906000526020600020905b8154815290600101906020018083116113fb57829003601f168201915b5050505050815260200160028201805461143190613689565b80601f016020809104026020016040519081016040528092919081815260200182805461145d90613689565b80156114aa5780601f1061147f576101008083540402835291602001916114aa565b820191906000526020600020905b81548152906001019060200180831161148d57829003601f168201915b505050505081525050815260200190600101906112da565b505050509050919050565b80600260003373ffffffffffffffffffffffffffffffffffffffff1673ffffffffffffffffffffffffffffffffffffffff1681526020019081526020016000206008019080519060200190611523929190612460565b5050565b6002602052806000526040600020600091509050806000016040518061010001604052908160008201805461155b90613689565b80601f016020809104026020016040519081016040528092919081815260200182805461158790613689565b80156115d45780601f106115a9576101008083540402835291602001916115d4565b820191906000526020600020905b8154815290600101906020018083116115b757829003601f168201915b505050505081526020016001820180546115ed90613689565b80601f016020809104026020016040519081016040528092919081815260200182805461161990613689565b80156116665780601f1061163b57610100808354040283529160200191611666565b820191906000526020600020905b81548152906001019060200180831161164957829003601f168201915b505050505081526020016002820160009054906101000a900460ff1615151515815260200160038201805461169a90613689565b80601f01602080910402602001604051908101604052809291908181526020018280546116c690613689565b80156117135780601f106116e857610100808354040283529160200191611713565b820191906000526020600020905b8154815290600101906020018083116116f657829003601f168201915b5050505050815260200160048201805461172c90613689565b80601f016020809104026020016040519081016040528092919081815260200182805461175890613689565b80156117a55780601f1061177a576101008083540402835291602001916117a5565b820191906000526020600020905b81548152906001019060200180831161178857829003601f168201915b505050505081526020016005820180546117be90613689565b80601f01602080910402602001604051908101604052809291908181526020018280546117ea90613689565b80156118375780601f1061180c57610100808354040283529160200191611837565b820191906000526020600020905b81548152906001019060200180831161181a57829003601f168201915b5050505050815260200160068201805461185090613689565b80601f016020809104026020016040519081016040528092919081815260200182805461187c90613689565b80156118c95780601f1061189e576101008083540402835291602001916118c9565b820191906000526020600020905b8154815290600101906020018083116118ac57829003601f168201915b505050505081526020016007820180546118e290613689565b80601f016020809104026020016040519081016040528092919081815260200182805461190e90613689565b801561195b5780601f106119305761010080835404028352916020019161195b565b820191906000526020600020905b81548152906001019060200180831161193e57829003601f168201915b5050505050815250509080600801805461197490613689565b80601f01602080910402602001604051908101604052809291908181526020018280546119a090613689565b80156119ed5780601f106119c2576101008083540402835291602001916119ed565b820191906000526020600020905b8154815290600101906020018083116119d057829003601f168201915b505050505090806009018054611a0290613689565b80601f0160208091040260200160405190810160405280929190818152602001828054611a2e90613689565b8015611a7b5780601f10611a5057610100808354040283529160200191611a7b565b820191906000526020600020905b815481529060010190602001808311611a5e57829003601f168201915b50505050509080600a01604051806060016040529081600082018054611aa090613689565b80601f0160208091040260200160405190810160405280929190818152602001828054611acc90613689565b8015611b195780601f10611aee57610100808354040283529160200191611b19565b820191906000526020600020905b815481529060010190602001808311611afc57829003601f168201915b50505050508152602001600182018054611b3290613689565b80601f0160208091040260200160405190810160405280929190818152602001828054611b5e90613689565b8015611bab5780601f10611b8057610100808354040283529160200191611bab565b820191906000526020600020905b815481529060010190602001808311611b8e57829003601f168201915b50505050508152602001600282018054611bc490613689565b80601f0160208091040260200160405190810160405280929190818152602001828054611bf090613689565b8015611c3d5780601f10611c1257610100808354040283529160200191611c3d565b820191906000526020600020905b815481529060010190602001808311611c2057829003601f168201915b505050505081525050905084565b80600260003373ffffffffffffffffffffffffffffffffffffffff1673ffffffffffffffffffffffffffffffffffffffff1681526020019081526020016000206000016000019080519060200190611ca4929190612460565b5050565b6000803373ffffffffffffffffffffffffffffffffffffffff1673ffffffffffffffffffffffffffffffffffffffff16815260200190815260200160002060030160009054906101000a900460ff1615611d37576040517f08c379a0000000000000000000000000000000000000000000000000000000008152600401611d2e90613405565b60405180910390fd5b6000611d42846109de565b90506000604051806060016040528086815260200185815260200184815250905060008060003373ffffffffffffffffffffffffffffffffffffffff1673ffffffffffffffffffffffffffffffffffffffff168152602001908152602001600020905088816000019080519060200190611dbd929190612460565b5087816001019080519060200190611dd6929190612460565b5086816002019080519060200190611def929190612460565b5060018160030160006101000a81548160ff02191690831515021790555082816005018190555060008160060181905550806004018290806001815401808255809150506001900390600052602060002090600302016000909190919091506000820151816000019080519060200190611e6a929190612460565b506020820151816001019080519060200190611e87929190612460565b506040820151816002019080519060200190611ea4929190612460565b5050506001339080600181540180825580915050600190039060005260206000200160009091909190916101000a81548173ffffffffffffffffffffffffffffffffffffffff021916908373ffffffffffffffffffffffffffffffffffffffff160217905550505050505050505050565b80600260003373ffffffffffffffffffffffffffffffffffffffff1673ffffffffffffffffffffffffffffffffffffffff1681526020019081526020016000206000016005019080519060200190611f6e929190612460565b5050565b611f7a6124e6565b6000808373ffffffffffffffffffffffffffffffffffffffff1673ffffffffffffffffffffffffffffffffffffffff1681526020019081526020016000206040518060e0016040529081600082018054611fd390613689565b80601f0160208091040260200160405190810160405280929190818152602001828054611fff90613689565b801561204c5780601f106120215761010080835404028352916020019161204c565b820191906000526020600020905b81548152906001019060200180831161202f57829003601f168201915b5050505050815260200160018201805461206590613689565b80601f016020809104026020016040519081016040528092919081815260200182805461209190613689565b80156120de5780601f106120b3576101008083540402835291602001916120de565b820191906000526020600020905b8154815290600101906020018083116120c157829003601f168201915b505050505081526020016002820180546120f790613689565b80601f016020809104026020016040519081016040528092919081815260200182805461212390613689565b80156121705780601f1061214557610100808354040283529160200191612170565b820191906000526020600020905b81548152906001019060200180831161215357829003601f168201915b505050505081526020016003820160009054906101000a900460ff1615151515815260200160048201805480602002602001604051908101604052809291908181526020016000905b828210156123a157838290600052602060002090600302016040518060600160405290816000820180546121ec90613689565b80601f016020809104026020016040519081016040528092919081815260200182805461221890613689565b80156122655780601f1061223a57610100808354040283529160200191612265565b820191906000526020600020905b81548152906001019060200180831161224857829003601f168201915b5050505050815260200160018201805461227e90613689565b80601f01602080910402602001604051908101604052809291908181526020018280546122aa90613689565b80156122f75780601f106122cc576101008083540402835291602001916122f7565b820191906000526020600020905b8154815290600101906020018083116122da57829003601f168201915b5050505050815260200160028201805461231090613689565b80601f016020809104026020016040519081016040528092919081815260200182805461233c90613689565b80156123895780601f1061235e57610100808354040283529160200191612389565b820191906000526020600020905b81548152906001019060200180831161236c57829003601f168201915b505050505081525050815260200190600101906121b9565b505050508152602001600582015481526020016006820154815250509050919050565b80600260003373ffffffffffffffffffffffffffffffffffffffff1673ffffffffffffffffffffffffffffffffffffffff168152602001908152602001600020600001600701908051906020019061241d929190612460565b5050565b6001818154811061243157600080fd5b906000526020600020016000915054906101000a900473ffffffffffffffffffffffffffffffffffffffff1681565b82805461246c90613689565b90600052602060002090601f01602090048101928261248e57600085556124d5565b82601f106124a757805160ff19168380011785556124d5565b828001600101855582156124d5579182015b828111156124d45782518255916020019190600101906124b9565b5b5090506124e29190612525565b5090565b6040518060e001604052806060815260200160608152602001606081526020016000151581526020016060815260200160008152602001600081525090565b5b8082111561253e576000816000905550600101612526565b5090565b600061255561255084613514565b6134e3565b90508281526020810184848401111561256d57600080fd5b612578848285613647565b509392505050565b60008135905061258f8161372a565b92915050565b6000813590506125a481613741565b92915050565b600082601f8301126125bb57600080fd5b81356125cb848260208601612542565b91505092915050565b6000813590506125e381613758565b92915050565b6000602082840312156125fb57600080fd5b600061260984828501612580565b91505092915050565b6000806040838503121561262557600080fd5b600061263385828601612580565b9250506020612644858286016125d4565b9150509250929050565b60006020828403121561266057600080fd5b600061266e84828501612595565b91505092915050565b60006020828403121561268957600080fd5b600082013567ffffffffffffffff8111156126a357600080fd5b6126af848285016125aa565b91505092915050565b6000806000606084860312156126cd57600080fd5b600084013567ffffffffffffffff8111156126e757600080fd5b6126f3868287016125aa565b935050602084013567ffffffffffffffff81111561271057600080fd5b61271c868287016125aa565b925050604084013567ffffffffffffffff81111561273957600080fd5b612745868287016125aa565b9150509250925092565b60008060008060008060c0878903121561276857600080fd5b600087013567ffffffffffffffff81111561278257600080fd5b61278e89828a016125aa565b965050602087013567ffffffffffffffff8111156127ab57600080fd5b6127b789828a016125aa565b955050604087013567ffffffffffffffff8111156127d457600080fd5b6127e089828a016125aa565b945050606087013567ffffffffffffffff8111156127fd57600080fd5b61280989828a016125aa565b935050608087013567ffffffffffffffff81111561282657600080fd5b61283289828a016125aa565b92505060a087013567ffffffffffffffff81111561284f57600080fd5b61285b89828a016125aa565b9150509295509295509295565b60006020828403121561287a57600080fd5b6000612888848285016125d4565b91505092915050565b600061289d83836128bd565b60208301905092915050565b60006128b583836130ef565b905092915050565b6128c6816135ff565b82525050565b6128d5816135ff565b82525050565b60006128e682613564565b6128f0818561359f565b93506128fb83613544565b8060005b8381101561292c5781516129138882612891565b975061291e83613585565b9250506001810190506128ff565b5085935050505092915050565b60006129448261356f565b61294e81856135b0565b93508360208202850161296085613554565b8060005b8581101561299c578484038952815161297d85826128a9565b945061298883613592565b925060208a01995050600181019050612964565b50829750879550505050505092915050565b60006129b98261356f565b6129c381856135c1565b9350836020820285016129d585613554565b8060005b85811015612a1157848403895281516129f285826128a9565b94506129fd83613592565b925060208a019950506001810190506129d9565b50829750879550505050505092915050565b612a2c81613611565b82525050565b612a3b81613611565b82525050565b6000612a4c8261357a565b612a5681856135d2565b9350612a66818560208601613656565b612a6f81613719565b840191505092915050565b6000612a858261357a565b612a8f81856135e3565b9350612a9f818560208601613656565b612aa881613719565b840191505092915050565b6000612abe8261357a565b612ac881856135f4565b9350612ad8818560208601613656565b80840191505092915050565b6000612af16010836135f4565b91507f426c61636b2028313074682044616e29000000000000000000000000000000006000830152601082019050919050565b6000612b316005836135f4565b91507f42726f776e0000000000000000000000000000000000000000000000000000006000830152600582019050919050565b6000612b71600f836135f4565b91507f426c61636b20283774682044616e2900000000000000000000000000000000006000830152600f82019050919050565b6000612bb1600f836135f4565b91507f426c61636b20283574682044616e2900000000000000000000000000000000006000830152600f82019050919050565b6000612bf16006836135f4565b91507f59656c6c6f7700000000000000000000000000000000000000000000000000006000830152600682019050919050565b6000612c316004836135f4565b91507f426c7565000000000000000000000000000000000000000000000000000000006000830152600482019050919050565b6000612c716005836135f4565b91507f477265656e0000000000000000000000000000000000000000000000000000006000830152600582019050919050565b6000612cb1600f836135f4565b91507f426c61636b20283674682044616e2900000000000000000000000000000000006000830152600f82019050919050565b6000612cf1600f836135f4565b91507f426c61636b2028326e642044616e2900000000000000000000000000000000006000830152600f82019050919050565b6000612d31600f836135f4565b91507f426c61636b20283372642044616e2900000000000000000000000000000000006000830152600f82019050919050565b6000612d71600f836135f4565b91507f426c61636b20283874682044616e2900000000000000000000000000000000006000830152600f82019050919050565b6000612db1600f836135f4565b91507f426c61636b20283474682044616e2900000000000000000000000000000000006000830152600f82019050919050565b6000612df1600f836135f4565b91507f426c61636b20283173742044616e2900000000000000000000000000000000006000830152600f82019050919050565b6000612e31601d836135e3565b91507f4a75646f6b6120697320616c726561647920726567697374657265642e0000006000830152602082019050919050565b6000612e716005836135f4565b91507f57686974650000000000000000000000000000000000000000000000000000006000830152600582019050919050565b6000612eb16019836135e3565b91507f4a75646f6b61206973206e6f7420726567697374657265642e000000000000006000830152602082019050919050565b6000612ef16006836135f4565b91507f4f72616e676500000000000000000000000000000000000000000000000000006000830152600682019050919050565b6000612f31600f836135f4565b91507f426c61636b20283974682044616e2900000000000000000000000000000000006000830152600f82019050919050565b600060e0830160008301518482036000860152612f818282612a41565b91505060208301518482036020860152612f9b8282612a41565b91505060408301518482036040860152612fb58282612a41565b9150506060830151612fca6060860182612a23565b5060808301518482036080860152612fe28282612939565b91505060a0830151612ff760a08601826131ab565b5060c083015161300a60c08601826131ab565b508091505092915050565b60006101008301600083015184820360008601526130338282612a41565b9150506020830151848203602086015261304d8282612a41565b91505060408301516130626040860182612a23565b506060830151848203606086015261307a8282612a41565b915050608083015184820360808601526130948282612a41565b91505060a083015184820360a08601526130ae8282612a41565b91505060c083015184820360c08601526130c88282612a41565b91505060e083015184820360e08601526130e28282612a41565b9150508091505092915050565b6000606083016000830151848203600086015261310c8282612a41565b915050602083015184820360208601526131268282612a41565b915050604083015184820360408601526131408282612a41565b9150508091505092915050565b6000606083016000830151848203600086015261316a8282612a41565b915050602083015184820360208601526131848282612a41565b9150506040830151848203604086015261319e8282612a41565b9150508091505092915050565b6131b48161363d565b82525050565b6131c38161363d565b82525050565b60006131d58284612ab3565b915081905092915050565b60006131eb82612ae4565b9150819050919050565b600061320082612b24565b9150819050919050565b600061321582612b64565b9150819050919050565b600061322a82612ba4565b9150819050919050565b600061323f82612be4565b9150819050919050565b600061325482612c24565b9150819050919050565b600061326982612c64565b9150819050919050565b600061327e82612ca4565b9150819050919050565b600061329382612ce4565b9150819050919050565b60006132a882612d24565b9150819050919050565b60006132bd82612d64565b9150819050919050565b60006132d282612da4565b9150819050919050565b60006132e782612de4565b9150819050919050565b60006132fc82612e64565b9150819050919050565b600061331182612ee4565b9150819050919050565b600061332682612f24565b9150819050919050565b600060208201905061334560008301846128cc565b92915050565b6000602082019050818103600083015261336581846128db565b905092915050565b6000602082019050818103600083015261338781846129ae565b905092915050565b600060c08201905081810360008301526133a98189612a7a565b905081810360208301526133bd8188612a7a565b905081810360408301526133d18187612a7a565b90506133e06060830186612a32565b6133ed60808301856131ba565b6133fa60a08301846131ba565b979650505050505050565b6000602082019050818103600083015261341e81612e24565b9050919050565b6000602082019050818103600083015261343e81612ea4565b9050919050565b6000602082019050818103600083015261345f8184612f64565b905092915050565b600060808201905081810360008301526134818187613015565b905081810360208301526134958186612a7a565b905081810360408301526134a98185612a7a565b905081810360608301526134bd818461314d565b905095945050505050565b60006020820190506134dd60008301846131ba565b92915050565b6000604051905081810181811067ffffffffffffffff8211171561350a576135096136ea565b5b8060405250919050565b600067ffffffffffffffff82111561352f5761352e6136ea565b5b601f19601f8301169050602081019050919050565b6000819050602082019050919050565b6000819050602082019050919050565b600081519050919050565b600081519050919050565b600081519050919050565b6000602082019050919050565b6000602082019050919050565b600082825260208201905092915050565b600082825260208201905092915050565b600082825260208201905092915050565b600082825260208201905092915050565b600082825260208201905092915050565b600081905092915050565b600061360a8261361d565b9050919050565b60008115159050919050565b600073ffffffffffffffffffffffffffffffffffffffff82169050919050565b6000819050919050565b82818337600083830152505050565b60005b83811015613674578082015181840152602081019050613659565b83811115613683576000848401525b50505050565b600060028204905060018216806136a157607f821691505b602082108114156136b5576136b46136bb565b5b50919050565b7f4e487b7100000000000000000000000000000000000000000000000000000000600052602260045260246000fd5b7f4e487b7100000000000000000000000000000000000000000000000000000000600052604160045260246000fd5b6000601f19601f8301169050919050565b613733816135ff565b811461373e57600080fd5b50565b61374a81613611565b811461375557600080fd5b50565b6137618161363d565b811461376c57600080fd5b5056fea2646970667358221220c9f7b7960bc978ebd4f26e77236d9cdb087f0ff153ad6a491358becb50468c3c64736f6c63430008000033",
  "immutableReferences": {},
  "source": "// SPDX-License-Identifier: MIT\r\npragma solidity ^0.8.0;\r\n\r\nimport \"./JudokaRegistry.sol\";\r\n\r\ncontract ProfileManagement is JudokaRegistry {\r\n    struct SocialMedia {\r\n        string instagram;\r\n        string facebook;\r\n        string youtube;\r\n    }\r\n\r\n    struct ProfileInfo {\r\n        string middleName;\r\n        string birthday;\r\n        bool makePublic;\r\n        string sex;\r\n        string state;\r\n        string city;\r\n        string country;\r\n        string description;\r\n    }\r\n\r\n    struct Profile {\r\n        ProfileInfo personalInfo;\r\n        string profilePicture;\r\n        string academy;\r\n        SocialMedia socialMedia;\r\n    }\r\n\r\n    mapping(address => Profile) public profiles;\r\n\r\n    function updateMiddleName(string memory middleName) public {\r\n        profiles[msg.sender].personalInfo.middleName = middleName;\r\n    }\r\n\r\n    function updateBirthday(string memory birthday) public {\r\n        profiles[msg.sender].personalInfo.birthday = birthday;\r\n    }\r\n\r\n    function updateMakePublic(bool makePublic) public {\r\n        profiles[msg.sender].personalInfo.makePublic = makePublic;\r\n    }\r\n\r\n    function updateSex(string memory sex) public {\r\n        profiles[msg.sender].personalInfo.sex = sex;\r\n    }\r\n\r\n    function updateState(string memory state) public {\r\n        profiles[msg.sender].personalInfo.state = state;\r\n    }\r\n\r\n    function updateCity(string memory city) public {\r\n        profiles[msg.sender].personalInfo.city = city;\r\n    }\r\n\r\n    function updateCountry(string memory country) public {\r\n        profiles[msg.sender].personalInfo.country = country;\r\n    }\r\n\r\n    function updateDescription(string memory description) public {\r\n        profiles[msg.sender].personalInfo.description = description;\r\n    }\r\n\r\n    function uploadProfilePicture(string memory profilePicture) public {\r\n        profiles[msg.sender].profilePicture = profilePicture;\r\n    }\r\n\r\n    function updateSocialMedia(\r\n        string memory instagram,\r\n        string memory facebook,\r\n        string memory youtube\r\n    ) public {\r\n        profiles[msg.sender].socialMedia = SocialMedia({\r\n            instagram: instagram,\r\n            facebook: facebook,\r\n            youtube: youtube\r\n        });\r\n    }\r\n\r\n    function updateAcademyAffiliation(string memory academy) public {\r\n        profiles[msg.sender].academy = academy;\r\n    }\r\n}\r\n",
  "sourcePath": "C:\\Users\\marti\\Documents\\projects\\judo-chain\\contracts\\ProfileManagement.sol",
  "compiler": {
    "name": "solc",
    "version": "0.8.0+commit.c7dfd78e.Emscripten.clang"
  },
  "schemaVersion": "3.4.16",
  "updatedAt": "2024-07-05T10:31:15.540Z",
  "networkType": "ethereum",
  "devdoc": {
    "kind": "dev",
    "methods": {},
    "version": 1
  },
  "userdoc": {
    "kind": "user",
    "methods": {},
    "version": 1
  }
}