{
  "contractName": "Verification",
  "abi": [
    {
      "inputs": [
        {
          "internalType": "address",
          "name": "",
          "type": "address"
        }
      ],
      "name": "verificationRequests",
      "outputs": [
        {
          "internalType": "address",
          "name": "user",
          "type": "address"
        },
        {
          "internalType": "string",
          "name": "documentHash",
          "type": "string"
        },
        {
          "internalType": "bool",
          "name": "isVerified",
          "type": "bool"
        }
      ],
      "stateMutability": "view",
      "type": "function",
      "constant": true
    },
    {
      "inputs": [
        {
          "internalType": "string",
          "name": "documentHash",
          "type": "string"
        }
      ],
      "name": "submitVerificationRequest",
      "outputs": [],
      "stateMutability": "nonpayable",
      "type": "function"
    },
    {
      "inputs": [
        {
          "internalType": "address",
          "name": "user",
          "type": "address"
        }
      ],
      "name": "approveVerification",
      "outputs": [],
      "stateMutability": "nonpayable",
      "type": "function"
    },
    {
      "inputs": [
        {
          "internalType": "address",
          "name": "user",
          "type": "address"
        }
      ],
      "name": "isVerified",
      "outputs": [
        {
          "internalType": "bool",
          "name": "",
          "type": "bool"
        }
      ],
      "stateMutability": "view",
      "type": "function",
      "constant": true
    }
  ],
  "bytecode": "0x608060405234801561001057600080fd5b506108cf806100206000396000f3fe608060405234801561001057600080fd5b506004361061004c5760003560e01c806320376f1014610051578063287e3d6b146100835780633f7fb53b1461009f578063b9209e33146100bb575b600080fd5b61006b6004803603810190610066919061056a565b6100eb565b60405161007a9392919061066b565b60405180910390f35b61009d60048036038101906100989190610593565b6101ca565b005b6100b960048036038101906100b4919061056a565b6102c6565b005b6100d560048036038101906100d0919061056a565b6103f2565b6040516100e291906106a9565b60405180910390f35b60006020528060005260406000206000915090508060000160009054906101000a900473ffffffffffffffffffffffffffffffffffffffff1690806001018054610134906107e1565b80601f0160208091040260200160405190810160405280929190818152602001828054610160906107e1565b80156101ad5780601f10610182576101008083540402835291602001916101ad565b820191906000526020600020905b81548152906001019060200180831161019057829003601f168201915b5050505050908060020160009054906101000a900460ff16905083565b60405180606001604052803373ffffffffffffffffffffffffffffffffffffffff168152602001828152602001600015158152506000803373ffffffffffffffffffffffffffffffffffffffff1673ffffffffffffffffffffffffffffffffffffffff16815260200190815260200160002060008201518160000160006101000a81548173ffffffffffffffffffffffffffffffffffffffff021916908373ffffffffffffffffffffffffffffffffffffffff160217905550602082015181600101908051906020019061029f92919061044a565b5060408201518160020160006101000a81548160ff02191690831515021790555090505050565b8073ffffffffffffffffffffffffffffffffffffffff166000808373ffffffffffffffffffffffffffffffffffffffff1673ffffffffffffffffffffffffffffffffffffffff16815260200190815260200160002060000160009054906101000a900473ffffffffffffffffffffffffffffffffffffffff1673ffffffffffffffffffffffffffffffffffffffff1614610395576040517f08c379a000000000000000000000000000000000000000000000000000000000815260040161038c906106c4565b60405180910390fd5b60016000808373ffffffffffffffffffffffffffffffffffffffff1673ffffffffffffffffffffffffffffffffffffffff16815260200190815260200160002060020160006101000a81548160ff02191690831515021790555050565b60008060008373ffffffffffffffffffffffffffffffffffffffff1673ffffffffffffffffffffffffffffffffffffffff16815260200190815260200160002060020160009054906101000a900460ff169050919050565b828054610456906107e1565b90600052602060002090601f01602090048101928261047857600085556104bf565b82601f1061049157805160ff19168380011785556104bf565b828001600101855582156104bf579182015b828111156104be5782518255916020019190600101906104a3565b5b5090506104cc91906104d0565b5090565b5b808211156104e95760008160009055506001016104d1565b5090565b60006105006104fb84610715565b6106e4565b90508281526020810184848401111561051857600080fd5b61052384828561079f565b509392505050565b60008135905061053a81610882565b92915050565b600082601f83011261055157600080fd5b81356105618482602086016104ed565b91505092915050565b60006020828403121561057c57600080fd5b600061058a8482850161052b565b91505092915050565b6000602082840312156105a557600080fd5b600082013567ffffffffffffffff8111156105bf57600080fd5b6105cb84828501610540565b91505092915050565b6105dd81610761565b82525050565b6105ec81610773565b82525050565b60006105fd82610745565b6106078185610750565b93506106178185602086016107ae565b61062081610871565b840191505092915050565b6000610638600c83610750565b91507f496e76616c6964207573657200000000000000000000000000000000000000006000830152602082019050919050565b600060608201905061068060008301866105d4565b818103602083015261069281856105f2565b90506106a160408301846105e3565b949350505050565b60006020820190506106be60008301846105e3565b92915050565b600060208201905081810360008301526106dd8161062b565b9050919050565b6000604051905081810181811067ffffffffffffffff8211171561070b5761070a610842565b5b8060405250919050565b600067ffffffffffffffff8211156107305761072f610842565b5b601f19601f8301169050602081019050919050565b600081519050919050565b600082825260208201905092915050565b600061076c8261077f565b9050919050565b60008115159050919050565b600073ffffffffffffffffffffffffffffffffffffffff82169050919050565b82818337600083830152505050565b60005b838110156107cc5780820151818401526020810190506107b1565b838111156107db576000848401525b50505050565b600060028204905060018216806107f957607f821691505b6020821081141561080d5761080c610813565b5b50919050565b7f4e487b7100000000000000000000000000000000000000000000000000000000600052602260045260246000fd5b7f4e487b7100000000000000000000000000000000000000000000000000000000600052604160045260246000fd5b6000601f19601f8301169050919050565b61088b81610761565b811461089657600080fd5b5056fea26469706673582212202993a121082519f413a98c81f64aadc6581d335139c3125b07f0eb1894d8798b64736f6c63430008000033",
  "immutableReferences": {},
  "source": "// SPDX-License-Identifier: MIT\r\npragma solidity ^0.8.0;\r\n\r\ncontract Verification {\r\n    struct VerificationRequest {\r\n        address user;\r\n        string documentHash;\r\n        bool isVerified;\r\n    }\r\n\r\n    mapping(address => VerificationRequest) public verificationRequests;\r\n\r\n    function submitVerificationRequest(string memory documentHash) public {\r\n        verificationRequests[msg.sender] = VerificationRequest({\r\n            user: msg.sender,\r\n            documentHash: documentHash,\r\n            isVerified: false\r\n        });\r\n    }\r\n\r\n    function approveVerification(address user) public {\r\n        require(verificationRequests[user].user == user, \"Invalid user\");\r\n        verificationRequests[user].isVerified = true;\r\n    }\r\n\r\n    function isVerified(address user) public view returns (bool) {\r\n        return verificationRequests[user].isVerified;\r\n    }\r\n}\r\n",
  "sourcePath": "C:\\Users\\marti\\Documents\\projects\\judo-chain\\contracts\\Verification.sol",
  "compiler": {
    "name": "solc",
    "version": "0.8.0+commit.c7dfd78e.Emscripten.clang"
  },
  "schemaVersion": "3.4.16",
  "updatedAt": "2024-07-05T10:31:15.574Z",
  "networkType": "ethereum",
  "devdoc": {
    "kind": "dev",
    "methods": {},
    "version": 1
  },
  "userdoc": {
    "kind": "user",
    "methods": {},
    "version": 1
  }
}