{
  "contractName": "VotingContract",
  "abi": [
    {
      "inputs": [
        {
          "internalType": "address",
          "name": "judokaRegistryAddress",
          "type": "address"
        }
      ],
      "stateMutability": "nonpayable",
      "type": "constructor"
    },
    {
      "inputs": [],
      "name": "judokaRegistry",
      "outputs": [
        {
          "internalType": "contract JudokaRegistry",
          "name": "",
          "type": "address"
        }
      ],
      "stateMutability": "view",
      "type": "function",
      "constant": true
    },
    {
      "inputs": [
        {
          "internalType": "string",
          "name": "_beltLevel",
          "type": "string"
        }
      ],
      "name": "getRequiredPointsForBelt",
      "outputs": [
        {
          "internalType": "uint256",
          "name": "",
          "type": "uint256"
        }
      ],
      "stateMutability": "pure",
      "type": "function",
      "constant": true
    },
    {
      "inputs": [
        {
          "internalType": "address",
          "name": "user",
          "type": "address"
        }
      ],
      "name": "getUserVotePoints",
      "outputs": [
        {
          "internalType": "uint256",
          "name": "",
          "type": "uint256"
        }
      ],
      "stateMutability": "view",
      "type": "function",
      "constant": true
    }
  ],
  "bytecode": "0x608060405234801561001057600080fd5b50604051610d63380380610d638339818101604052810190610032919061008d565b806000806101000a81548173ffffffffffffffffffffffffffffffffffffffff021916908373ffffffffffffffffffffffffffffffffffffffff160217905550506100ff565b600081519050610087816100e8565b92915050565b60006020828403121561009f57600080fd5b60006100ad84828501610078565b91505092915050565b60006100c1826100c8565b9050919050565b600073ffffffffffffffffffffffffffffffffffffffff82169050919050565b6100f1816100b6565b81146100fc57600080fd5b50565b610c558061010e6000396000f3fe608060405234801561001057600080fd5b50600436106100415760003560e01c80634257ad42146100465780635dced10914610076578063ceb02b0914610094575b600080fd5b610060600480360381019061005b9190610696565b6100c4565b60405161006d9190610a3f565b60405180910390f35b61007e610184565b60405161008b9190610a24565b60405180910390f35b6100ae60048036038101906100a991906106bf565b6101a8565b6040516100bb9190610a3f565b60405180910390f35b60008060008054906101000a900473ffffffffffffffffffffffffffffffffffffffff1673ffffffffffffffffffffffffffffffffffffffff1663e19d1e2d846040518263ffffffff1660e01b81526004016101209190610a09565b60006040518083038186803b15801561013857600080fd5b505afa15801561014c573d6000803e3d6000fd5b505050506040513d6000823e3d601f19601f820116820180604052508101906101759190610700565b90508060a00151915050919050565b60008054906101000a900473ffffffffffffffffffffffffffffffffffffffff1681565b600080826040516020016101bc919061095f565b6040516020818303038152906040528051906020012090506040516020016101e3906109df565b6040516020818303038152906040528051906020012081141561020a576000915050610357565b6040516020016102199061098b565b60405160208183030381529060405280519060200120811415610240576064915050610357565b60405160200161024f906109f4565b60405160208183030381529060405280519060200120811415610276576096915050610357565b604051602001610285906109b5565b604051602081830303815290604052805190602001208114156102ac5760c8915050610357565b6040516020016102bb906109a0565b604051602081830303815290604052805190602001208114156102e357610190915050610357565b6040516020016102f290610976565b6040516020818303038152906040528051906020012081141561031a576102bc915050610357565b604051602001610329906109ca565b60405160208183030381529060405280519060200120811415610351576103e8915050610357565b60009150505b919050565b600061036f61036a84610a8b565b610a5a565b9050808382526020820190508260005b858110156103af578151850161039588826105d9565b84526020840193506020830192505060018101905061037f565b5050509392505050565b60006103cc6103c784610ab7565b610a5a565b9050828152602081018484840111156103e457600080fd5b6103ef848285610b69565b509392505050565b600061040a61040584610ab7565b610a5a565b90508281526020810184848401111561042257600080fd5b61042d848285610b78565b509392505050565b60008135905061044481610bda565b92915050565b600082601f83011261045b57600080fd5b815161046b84826020860161035c565b91505092915050565b60008151905061048381610bf1565b92915050565b600082601f83011261049a57600080fd5b81356104aa8482602086016103b9565b91505092915050565b600082601f8301126104c457600080fd5b81516104d48482602086016103f7565b91505092915050565b600060c082840312156104ef57600080fd5b6104f960c0610a5a565b9050600082015167ffffffffffffffff81111561051557600080fd5b610521848285016104b3565b600083015250602082015167ffffffffffffffff81111561054157600080fd5b61054d848285016104b3565b602083015250604082015167ffffffffffffffff81111561056d57600080fd5b610579848285016104b3565b604083015250606061058d84828501610474565b606083015250608082015167ffffffffffffffff8111156105ad57600080fd5b6105b98482850161044a565b60808301525060a06105cd84828501610681565b60a08301525092915050565b6000606082840312156105eb57600080fd5b6105f56060610a5a565b9050600082015167ffffffffffffffff81111561061157600080fd5b61061d848285016104b3565b600083015250602082015167ffffffffffffffff81111561063d57600080fd5b610649848285016104b3565b602083015250604082015167ffffffffffffffff81111561066957600080fd5b610675848285016104b3565b60408301525092915050565b60008151905061069081610c08565b92915050565b6000602082840312156106a857600080fd5b60006106b684828501610435565b91505092915050565b6000602082840312156106d157600080fd5b600082013567ffffffffffffffff8111156106eb57600080fd5b6106f784828501610489565b91505092915050565b60006020828403121561071257600080fd5b600082015167ffffffffffffffff81111561072c57600080fd5b610738848285016104dd565b91505092915050565b61074a81610afd565b82525050565b61075981610b45565b82525050565b600061076a82610ae7565b6107748185610af2565b9350610784818560208601610b78565b80840191505092915050565b600061079d600583610af2565b91507f42726f776e0000000000000000000000000000000000000000000000000000006000830152600582019050919050565b60006107dd600683610af2565b91507f59656c6c6f7700000000000000000000000000000000000000000000000000006000830152600682019050919050565b600061081d600483610af2565b91507f426c7565000000000000000000000000000000000000000000000000000000006000830152600482019050919050565b600061085d600583610af2565b91507f477265656e0000000000000000000000000000000000000000000000000000006000830152600582019050919050565b600061089d600f83610af2565b91507f426c61636b20283173742044616e2900000000000000000000000000000000006000830152600f82019050919050565b60006108dd600583610af2565b91507f57686974650000000000000000000000000000000000000000000000000000006000830152600582019050919050565b600061091d600683610af2565b91507f4f72616e676500000000000000000000000000000000000000000000000000006000830152600682019050919050565b61095981610b3b565b82525050565b600061096b828461075f565b915081905092915050565b600061098182610790565b9150819050919050565b6000610996826107d0565b9150819050919050565b60006109ab82610810565b9150819050919050565b60006109c082610850565b9150819050919050565b60006109d582610890565b9150819050919050565b60006109ea826108d0565b9150819050919050565b60006109ff82610910565b9150819050919050565b6000602082019050610a1e6000830184610741565b92915050565b6000602082019050610a396000830184610750565b92915050565b6000602082019050610a546000830184610950565b92915050565b6000604051905081810181811067ffffffffffffffff82111715610a8157610a80610bab565b5b8060405250919050565b600067ffffffffffffffff821115610aa657610aa5610bab565b5b602082029050602081019050919050565b600067ffffffffffffffff821115610ad257610ad1610bab565b5b601f19601f8301169050602081019050919050565b600081519050919050565b600081905092915050565b6000610b0882610b1b565b9050919050565b60008115159050919050565b600073ffffffffffffffffffffffffffffffffffffffff82169050919050565b6000819050919050565b6000610b5082610b57565b9050919050565b6000610b6282610b1b565b9050919050565b82818337600083830152505050565b60005b83811015610b96578082015181840152602081019050610b7b565b83811115610ba5576000848401525b50505050565b7f4e487b7100000000000000000000000000000000000000000000000000000000600052604160045260246000fd5b610be381610afd565b8114610bee57600080fd5b50565b610bfa81610b0f565b8114610c0557600080fd5b50565b610c1181610b3b565b8114610c1c57600080fd5b5056fea26469706673582212200a59fb51ecac8641a94268358b5f69082a317e8d4faab7b24427536ec09571dd64736f6c63430008000033",
  "immutableReferences": {},
  "source": "// SPDX-License-Identifier: MIT\r\npragma solidity ^0.8.0;\r\n\r\nimport \"./JudokaRegistry.sol\";\r\n\r\ncontract VotingContract {\r\n    JudokaRegistry public judokaRegistry;\r\n\r\n    constructor(address judokaRegistryAddress) {\r\n        judokaRegistry = JudokaRegistry(judokaRegistryAddress);\r\n    }\r\n\r\n    // Function to get the required points for a specific belt level\r\n    function getRequiredPointsForBelt(string memory _beltLevel) public pure returns (uint) {\r\n        bytes32 beltHash = keccak256(abi.encodePacked(_beltLevel));\r\n        if (beltHash == keccak256(abi.encodePacked(\"White\"))) return 0;\r\n        if (beltHash == keccak256(abi.encodePacked(\"Yellow\"))) return 100;\r\n        if (beltHash == keccak256(abi.encodePacked(\"Orange\"))) return 150;\r\n        if (beltHash == keccak256(abi.encodePacked(\"Green\"))) return 200;\r\n        if (beltHash == keccak256(abi.encodePacked(\"Blue\"))) return 400;\r\n        if (beltHash == keccak256(abi.encodePacked(\"Brown\"))) return 700;\r\n        if (beltHash == keccak256(abi.encodePacked(\"Black (1st Dan)\"))) return 1000;\r\n        return 0;\r\n    }\r\n\r\n    // Function to get the current points of a judoka\r\n    function getUserVotePoints(address user) public view returns (uint) {\r\n        JudokaRegistry.Judoka memory judoka = judokaRegistry.getJudoka(user);\r\n        return judoka.votingPower;\r\n    }\r\n}\r\n",
  "sourcePath": "C:\\Users\\marti\\Documents\\projects\\judo-chain\\contracts\\VotingContract.sol",
  "compiler": {
    "name": "solc",
    "version": "0.8.0+commit.c7dfd78e.Emscripten.clang"
  },
  "schemaVersion": "3.4.16",
  "updatedAt": "2024-06-20T09:46:27.507Z",
  "networkType": "ethereum",
  "devdoc": {
    "kind": "dev",
    "methods": {},
    "version": 1
  },
  "userdoc": {
    "kind": "user",
    "methods": {},
    "version": 1
  }
}