{
  "contractName": "VotingContract",
  "abi": [
    {
      "inputs": [
        {
          "internalType": "address",
          "name": "judokaRegistryAddress",
          "type": "address"
        }
      ],
      "stateMutability": "nonpayable",
      "type": "constructor"
    },
    {
      "inputs": [],
      "name": "judokaRegistry",
      "outputs": [
        {
          "internalType": "contract JudokaRegistry",
          "name": "",
          "type": "address"
        }
      ],
      "stateMutability": "view",
      "type": "function",
      "constant": true
    },
    {
      "inputs": [
        {
          "internalType": "uint256",
          "name": "",
          "type": "uint256"
        }
      ],
      "name": "promotionRequests",
      "outputs": [
        {
          "internalType": "address",
          "name": "userAddress",
          "type": "address"
        },
        {
          "internalType": "string",
          "name": "beltLevel",
          "type": "string"
        },
        {
          "internalType": "uint256",
          "name": "points",
          "type": "uint256"
        },
        {
          "internalType": "bool",
          "name": "verified",
          "type": "bool"
        }
      ],
      "stateMutability": "view",
      "type": "function",
      "constant": true
    },
    {
      "inputs": [
        {
          "internalType": "string",
          "name": "_beltLevel",
          "type": "string"
        }
      ],
      "name": "requestPromotion",
      "outputs": [],
      "stateMutability": "nonpayable",
      "type": "function"
    },
    {
      "inputs": [
        {
          "internalType": "uint256",
          "name": "requestId",
          "type": "uint256"
        }
      ],
      "name": "voteForPromotion",
      "outputs": [],
      "stateMutability": "nonpayable",
      "type": "function"
    },
    {
      "inputs": [
        {
          "internalType": "string",
          "name": "_beltLevel",
          "type": "string"
        }
      ],
      "name": "getRequiredPointsForBelt",
      "outputs": [
        {
          "internalType": "uint256",
          "name": "",
          "type": "uint256"
        }
      ],
      "stateMutability": "pure",
      "type": "function",
      "constant": true
    },
    {
      "inputs": [
        {
          "internalType": "address",
          "name": "user",
          "type": "address"
        }
      ],
      "name": "getUserVotePoints",
      "outputs": [
        {
          "internalType": "uint256",
          "name": "",
          "type": "uint256"
        }
      ],
      "stateMutability": "view",
      "type": "function",
      "constant": true
    },
    {
      "inputs": [
        {
          "internalType": "address",
          "name": "user",
          "type": "address"
        }
      ],
      "name": "getReceivedVotePoints",
      "outputs": [
        {
          "internalType": "uint256",
          "name": "",
          "type": "uint256"
        }
      ],
      "stateMutability": "view",
      "type": "function",
      "constant": true
    }
  ],
  "bytecode": "0x60806040523480156200001157600080fd5b5060405162001c0638038062001c06833981810160405281019062000037919062000095565b806000806101000a81548173ffffffffffffffffffffffffffffffffffffffff021916908373ffffffffffffffffffffffffffffffffffffffff160217905550506200010f565b6000815190506200008f81620000f5565b92915050565b600060208284031215620000a857600080fd5b6000620000b8848285016200007e565b91505092915050565b6000620000ce82620000d5565b9050919050565b600073ffffffffffffffffffffffffffffffffffffffff82169050919050565b6200010081620000c1565b81146200010c57600080fd5b50565b611ae7806200011f6000396000f3fe608060405234801561001057600080fd5b506004361061007d5760003560e01c80639580a0d01161005b5780639580a0d0146100ec5780639af7593514610108578063c0ba283d1461013b578063ceb02b091461016b5761007d565b80634257ad42146100825780635dced109146100b257806371b9b34c146100d0575b600080fd5b61009c6004803603810190610097919061119a565b61019b565b6040516100a99190611780565b60405180910390f35b6100ba6103c7565b6040516100c791906116e5565b60405180910390f35b6100ea60048036038101906100e59190611245565b6103eb565b005b610106600480360381019061010191906111c3565b610758565b005b610122600480360381019061011d9190611245565b6108fa565b6040516101329493929190611699565b60405180910390f35b6101556004803603810190610150919061119a565b6109ef565b6040516101629190611780565b60405180910390f35b610185600480360381019061018091906111c3565b610b1c565b6040516101929190611780565b60405180910390f35b6000806000905060005b6001805490508110156103bd5760005b600182815481106101ef577f4e487b7100000000000000000000000000000000000000000000000000000000600052603260045260246000fd5b9060005260206000209060050201600401805490508110156103a9578473ffffffffffffffffffffffffffffffffffffffff166001838154811061025c577f4e487b7100000000000000000000000000000000000000000000000000000000600052603260045260246000fd5b906000526020600020906005020160040182815481106102a5577f4e487b7100000000000000000000000000000000000000000000000000000000600052603260045260246000fd5b906000526020600020906002020160000160009054906101000a900473ffffffffffffffffffffffffffffffffffffffff1673ffffffffffffffffffffffffffffffffffffffff161415610396576001828154811061032d577f4e487b7100000000000000000000000000000000000000000000000000000000600052603260045260246000fd5b90600052602060002090600502016004018181548110610376577f4e487b7100000000000000000000000000000000000000000000000000000000600052603260045260246000fd5b90600052602060002090600202016001015483610393919061184f565b92505b80806103a190611985565b9150506101b5565b5080806103b590611985565b9150506101a5565b5080915050919050565b60008054906101000a900473ffffffffffffffffffffffffffffffffffffffff1681565b6001805490508110610432576040517f08c379a000000000000000000000000000000000000000000000000000000000815260040161042990611760565b60405180910390fd5b60006001828154811061046e577f4e487b7100000000000000000000000000000000000000000000000000000000600052603260045260246000fd5b906000526020600020906005020190508060030160009054906101000a900460ff16156104d0576040517f08c379a00000000000000000000000000000000000000000000000000000000081526004016104c790611740565b60405180910390fd5b60008060009054906101000a900473ffffffffffffffffffffffffffffffffffffffff1673ffffffffffffffffffffffffffffffffffffffff1663e19d1e2d336040518263ffffffff1660e01b815260040161052c919061167e565b60006040518083038186803b15801561054457600080fd5b505afa158015610558573d6000803e3d6000fd5b505050506040513d6000823e3d601f19601f820116820180604052508101906105819190611204565b905060008160a001519050600081116105cf576040517f08c379a00000000000000000000000000000000000000000000000000000000081526004016105c690611700565b60405180910390fd5b808360020160008282546105e3919061184f565b925050819055508260040160405180604001604052803373ffffffffffffffffffffffffffffffffffffffff16815260200183815250908060018154018082558091505060019003906000526020600020906002020160009091909190915060008201518160000160006101000a81548173ffffffffffffffffffffffffffffffffffffffff021916908373ffffffffffffffffffffffffffffffffffffffff16021790555060208201518160010155505061072a8360010180546106a790611953565b80601f01602080910402602001604051908101604052809291908181526020018280546106d390611953565b80156107205780601f106106f557610100808354040283529160200191610720565b820191906000526020600020905b81548152906001019060200180831161070357829003601f168201915b5050505050610b1c565b8360020154106107525760018360030160006101000a81548160ff0219169083151502179055505b50505050565b60008060009054906101000a900473ffffffffffffffffffffffffffffffffffffffff1673ffffffffffffffffffffffffffffffffffffffff1663e19d1e2d336040518263ffffffff1660e01b81526004016107b4919061167e565b60006040518083038186803b1580156107cc57600080fd5b505afa1580156107e0573d6000803e3d6000fd5b505050506040513d6000823e3d601f19601f820116820180604052508101906108099190611204565b9050806060015161084f576040517f08c379a000000000000000000000000000000000000000000000000000000000815260040161084690611720565b60405180910390fd5b6000600180816001815401808255809150500390600052602060002090600502019050338160000160006101000a81548173ffffffffffffffffffffffffffffffffffffffff021916908373ffffffffffffffffffffffffffffffffffffffff160217905550828160010190805190602001906108cd929190610da8565b506000816002018190555060008160030160006101000a81548160ff021916908315150217905550505050565b6001818154811061090a57600080fd5b90600052602060002090600502016000915090508060000160009054906101000a900473ffffffffffffffffffffffffffffffffffffffff169080600101805461095390611953565b80601f016020809104026020016040519081016040528092919081815260200182805461097f90611953565b80156109cc5780601f106109a1576101008083540402835291602001916109cc565b820191906000526020600020905b8154815290600101906020018083116109af57829003601f168201915b5050505050908060020154908060030160009054906101000a900460ff16905084565b6000806000905060005b600180549050811015610b12578373ffffffffffffffffffffffffffffffffffffffff1660018281548110610a57577f4e487b7100000000000000000000000000000000000000000000000000000000600052603260045260246000fd5b906000526020600020906005020160000160009054906101000a900473ffffffffffffffffffffffffffffffffffffffff1673ffffffffffffffffffffffffffffffffffffffff161415610aff5760018181548110610adf577f4e487b7100000000000000000000000000000000000000000000000000000000600052603260045260246000fd5b90600052602060002090600502016002015482610afc919061184f565b91505b8080610b0a90611985565b9150506109f9565b5080915050919050565b6000604051602001610b2d90611654565b6040516020818303038152906040528051906020012082604051602001610b5491906115d4565b604051602081830303815290604052805190602001201415610b795760009050610da3565b604051602001610b8890611600565b6040516020818303038152906040528051906020012082604051602001610baf91906115d4565b604051602081830303815290604052805190602001201415610bd45760649050610da3565b604051602001610be390611669565b6040516020818303038152906040528051906020012082604051602001610c0a91906115d4565b604051602081830303815290604052805190602001201415610c2f5760969050610da3565b604051602001610c3e9061162a565b6040516020818303038152906040528051906020012082604051602001610c6591906115d4565b604051602081830303815290604052805190602001201415610c8a5760c89050610da3565b604051602001610c9990611615565b6040516020818303038152906040528051906020012082604051602001610cc091906115d4565b604051602081830303815290604052805190602001201415610ce6576101909050610da3565b604051602001610cf5906115eb565b6040516020818303038152906040528051906020012082604051602001610d1c91906115d4565b604051602081830303815290604052805190602001201415610d42576102bc9050610da3565b604051602001610d519061163f565b6040516020818303038152906040528051906020012082604051602001610d7891906115d4565b604051602081830303815290604052805190602001201415610d9e576103e89050610da3565b600090505b919050565b828054610db490611953565b90600052602060002090601f016020900481019282610dd65760008555610e1d565b82601f10610def57805160ff1916838001178555610e1d565b82800160010185558215610e1d579182015b82811115610e1c578251825591602001919060010190610e01565b5b509050610e2a9190610e2e565b5090565b5b80821115610e47576000816000905550600101610e2f565b5090565b6000610e5e610e59846117cc565b61179b565b9050808382526020820190508260005b85811015610e9e5781518501610e8488826110c8565b845260208401935060208301925050600181019050610e6e565b5050509392505050565b6000610ebb610eb6846117f8565b61179b565b905082815260208101848484011115610ed357600080fd5b610ede848285611911565b509392505050565b6000610ef9610ef4846117f8565b61179b565b905082815260208101848484011115610f1157600080fd5b610f1c848285611920565b509392505050565b600081359050610f3381611a6c565b92915050565b600082601f830112610f4a57600080fd5b8151610f5a848260208601610e4b565b91505092915050565b600081519050610f7281611a83565b92915050565b600082601f830112610f8957600080fd5b8135610f99848260208601610ea8565b91505092915050565b600082601f830112610fb357600080fd5b8151610fc3848260208601610ee6565b91505092915050565b600060c08284031215610fde57600080fd5b610fe860c061179b565b9050600082015167ffffffffffffffff81111561100457600080fd5b61101084828501610fa2565b600083015250602082015167ffffffffffffffff81111561103057600080fd5b61103c84828501610fa2565b602083015250604082015167ffffffffffffffff81111561105c57600080fd5b61106884828501610fa2565b604083015250606061107c84828501610f63565b606083015250608082015167ffffffffffffffff81111561109c57600080fd5b6110a884828501610f39565b60808301525060a06110bc84828501611185565b60a08301525092915050565b6000606082840312156110da57600080fd5b6110e4606061179b565b9050600082015167ffffffffffffffff81111561110057600080fd5b61110c84828501610fa2565b600083015250602082015167ffffffffffffffff81111561112c57600080fd5b61113884828501610fa2565b602083015250604082015167ffffffffffffffff81111561115857600080fd5b61116484828501610fa2565b60408301525092915050565b60008135905061117f81611a9a565b92915050565b60008151905061119481611a9a565b92915050565b6000602082840312156111ac57600080fd5b60006111ba84828501610f24565b91505092915050565b6000602082840312156111d557600080fd5b600082013567ffffffffffffffff8111156111ef57600080fd5b6111fb84828501610f78565b91505092915050565b60006020828403121561121657600080fd5b600082015167ffffffffffffffff81111561123057600080fd5b61123c84828501610fcc565b91505092915050565b60006020828403121561125757600080fd5b600061126584828501611170565b91505092915050565b611277816118a5565b82525050565b611286816118b7565b82525050565b611295816118ed565b82525050565b60006112a682611828565b6112b08185611833565b93506112c0818560208601611920565b6112c981611a5b565b840191505092915050565b60006112df82611828565b6112e98185611844565b93506112f9818560208601611920565b80840191505092915050565b6000611312600583611844565b91507f42726f776e0000000000000000000000000000000000000000000000000000006000830152600582019050919050565b6000611352600f83611833565b91507f4e6f20766f74696e6720706f77657200000000000000000000000000000000006000830152602082019050919050565b6000611392600683611844565b91507f59656c6c6f7700000000000000000000000000000000000000000000000000006000830152600682019050919050565b60006113d2600483611844565b91507f426c7565000000000000000000000000000000000000000000000000000000006000830152600482019050919050565b6000611412600583611844565b91507f477265656e0000000000000000000000000000000000000000000000000000006000830152600582019050919050565b6000611452601683611833565b91507f55736572206973206e6f742072656769737465726564000000000000000000006000830152602082019050919050565b6000611492601a83611833565b91507f50726f6d6f74696f6e20616c72656164792076657269666965640000000000006000830152602082019050919050565b60006114d2600f83611844565b91507f426c61636b20283173742044616e2900000000000000000000000000000000006000830152600f82019050919050565b6000611512600583611844565b91507f57686974650000000000000000000000000000000000000000000000000000006000830152600582019050919050565b6000611552600683611844565b91507f4f72616e676500000000000000000000000000000000000000000000000000006000830152600682019050919050565b6000611592601283611833565b91507f496e76616c6964207265717565737420494400000000000000000000000000006000830152602082019050919050565b6115ce816118e3565b82525050565b60006115e082846112d4565b915081905092915050565b60006115f682611305565b9150819050919050565b600061160b82611385565b9150819050919050565b6000611620826113c5565b9150819050919050565b600061163582611405565b9150819050919050565b600061164a826114c5565b9150819050919050565b600061165f82611505565b9150819050919050565b600061167482611545565b9150819050919050565b6000602082019050611693600083018461126e565b92915050565b60006080820190506116ae600083018761126e565b81810360208301526116c0818661129b565b90506116cf60408301856115c5565b6116dc606083018461127d565b95945050505050565b60006020820190506116fa600083018461128c565b92915050565b6000602082019050818103600083015261171981611345565b9050919050565b6000602082019050818103600083015261173981611445565b9050919050565b6000602082019050818103600083015261175981611485565b9050919050565b6000602082019050818103600083015261177981611585565b9050919050565b600060208201905061179560008301846115c5565b92915050565b6000604051905081810181811067ffffffffffffffff821117156117c2576117c1611a2c565b5b8060405250919050565b600067ffffffffffffffff8211156117e7576117e6611a2c565b5b602082029050602081019050919050565b600067ffffffffffffffff82111561181357611812611a2c565b5b601f19601f8301169050602081019050919050565b600081519050919050565b600082825260208201905092915050565b600081905092915050565b600061185a826118e3565b9150611865836118e3565b9250827fffffffffffffffffffffffffffffffffffffffffffffffffffffffffffffffff0382111561189a576118996119ce565b5b828201905092915050565b60006118b0826118c3565b9050919050565b60008115159050919050565b600073ffffffffffffffffffffffffffffffffffffffff82169050919050565b6000819050919050565b60006118f8826118ff565b9050919050565b600061190a826118c3565b9050919050565b82818337600083830152505050565b60005b8381101561193e578082015181840152602081019050611923565b8381111561194d576000848401525b50505050565b6000600282049050600182168061196b57607f821691505b6020821081141561197f5761197e6119fd565b5b50919050565b6000611990826118e3565b91507fffffffffffffffffffffffffffffffffffffffffffffffffffffffffffffffff8214156119c3576119c26119ce565b5b600182019050919050565b7f4e487b7100000000000000000000000000000000000000000000000000000000600052601160045260246000fd5b7f4e487b7100000000000000000000000000000000000000000000000000000000600052602260045260246000fd5b7f4e487b7100000000000000000000000000000000000000000000000000000000600052604160045260246000fd5b6000601f19601f8301169050919050565b611a75816118a5565b8114611a8057600080fd5b50565b611a8c816118b7565b8114611a9757600080fd5b50565b611aa3816118e3565b8114611aae57600080fd5b5056fea2646970667358221220ba76805694bf31513e3cb3ca3c8116a558643b8c2ab4919eaa4c51555d5cb8fd64736f6c63430008000033",
  "immutableReferences": {},
  "source": "// SPDX-License-Identifier: MIT\r\npragma solidity ^0.8.0;\r\n\r\nimport \"./JudokaRegistry.sol\";\r\n\r\ncontract VotingContract {\r\n    JudokaRegistry public judokaRegistry;\r\n\r\n    struct Vote {\r\n        address voter;\r\n        uint points;\r\n    }\r\n\r\n    struct PromotionRequest {\r\n        address userAddress;\r\n        string beltLevel;\r\n        uint points;\r\n        bool verified;\r\n        Vote[] votes;\r\n    }\r\n\r\n    PromotionRequest[] public promotionRequests;\r\n\r\n    constructor(address judokaRegistryAddress) {\r\n        judokaRegistry = JudokaRegistry(judokaRegistryAddress);\r\n    }\r\n\r\n    function requestPromotion(string memory _beltLevel) public {\r\n        JudokaRegistry.Judoka memory judoka = judokaRegistry.getJudoka(msg.sender);\r\n        require(judoka.isRegistered, \"User is not registered\");\r\n\r\n        PromotionRequest storage newRequest = promotionRequests.push();\r\n        newRequest.userAddress = msg.sender;\r\n        newRequest.beltLevel = _beltLevel;\r\n        newRequest.points = 0;\r\n        newRequest.verified = false;\r\n    }\r\n\r\n    function voteForPromotion(uint requestId) public {\r\n        require(requestId < promotionRequests.length, \"Invalid request ID\");\r\n        PromotionRequest storage request = promotionRequests[requestId];\r\n        require(!request.verified, \"Promotion already verified\");\r\n\r\n        JudokaRegistry.Judoka memory judoka = judokaRegistry.getJudoka(msg.sender);\r\n        uint votingPower = judoka.votingPower;\r\n        require(votingPower > 0, \"No voting power\");\r\n\r\n        request.points += votingPower;\r\n        request.votes.push(Vote({voter: msg.sender, points: votingPower}));\r\n\r\n        if (request.points >= getRequiredPointsForBelt(request.beltLevel)) {\r\n            request.verified = true;\r\n        }\r\n    }\r\n\r\n    function getRequiredPointsForBelt(string memory _beltLevel) public pure returns (uint) {\r\n        if (keccak256(abi.encodePacked(_beltLevel)) == keccak256(abi.encodePacked(\"White\"))) return 0;\r\n        if (keccak256(abi.encodePacked(_beltLevel)) == keccak256(abi.encodePacked(\"Yellow\"))) return 100;\r\n        if (keccak256(abi.encodePacked(_beltLevel)) == keccak256(abi.encodePacked(\"Orange\"))) return 150;\r\n        if (keccak256(abi.encodePacked(_beltLevel)) == keccak256(abi.encodePacked(\"Green\"))) return 200;\r\n        if (keccak256(abi.encodePacked(_beltLevel)) == keccak256(abi.encodePacked(\"Blue\"))) return 400;\r\n        if (keccak256(abi.encodePacked(_beltLevel)) == keccak256(abi.encodePacked(\"Brown\"))) return 700;\r\n        if (keccak256(abi.encodePacked(_beltLevel)) == keccak256(abi.encodePacked(\"Black (1st Dan)\"))) return 1000;\r\n        return 0;\r\n    }\r\n\r\n    function getUserVotePoints(address user) public view returns (uint) {\r\n        uint totalPoints = 0;\r\n        for (uint i = 0; i < promotionRequests.length; i++) {\r\n            for (uint j = 0; j < promotionRequests[i].votes.length; j++) {\r\n                if (promotionRequests[i].votes[j].voter == user) {\r\n                    totalPoints += promotionRequests[i].votes[j].points;\r\n                }\r\n            }\r\n        }\r\n        return totalPoints;\r\n    }\r\n\r\n    function getReceivedVotePoints(address user) public view returns (uint) {\r\n        uint receivedPoints = 0;\r\n        for (uint i = 0; i < promotionRequests.length; i++) {\r\n            if (promotionRequests[i].userAddress == user) {\r\n                receivedPoints += promotionRequests[i].points;\r\n            }\r\n        }\r\n        return receivedPoints;\r\n    }\r\n}\r\n",
  "sourcePath": "C:\\Users\\marti\\Documents\\projects\\judo-chain\\contracts\\VotingContract.sol",
  "compiler": {
    "name": "solc",
    "version": "0.8.0+commit.c7dfd78e.Emscripten.clang"
  },
  "schemaVersion": "3.4.16",
  "updatedAt": "2024-06-20T10:13:07.163Z",
  "networkType": "ethereum",
  "devdoc": {
    "kind": "dev",
    "methods": {},
    "version": 1
  },
  "userdoc": {
    "kind": "user",
    "methods": {},
    "version": 1
  }
}