{
  "contractName": "VotingContract",
  "abi": [
    {
      "inputs": [
        {
          "internalType": "address",
          "name": "_judokaRegistry",
          "type": "address"
        }
      ],
      "stateMutability": "nonpayable",
      "type": "constructor"
    },
    {
      "inputs": [],
      "name": "judokaRegistry",
      "outputs": [
        {
          "internalType": "contract JudokaRegistry",
          "name": "",
          "type": "address"
        }
      ],
      "stateMutability": "view",
      "type": "function",
      "constant": true
    },
    {
      "inputs": [
        {
          "internalType": "address",
          "name": "",
          "type": "address"
        }
      ],
      "name": "voteCounts",
      "outputs": [
        {
          "internalType": "uint256",
          "name": "",
          "type": "uint256"
        }
      ],
      "stateMutability": "view",
      "type": "function",
      "constant": true
    },
    {
      "inputs": [
        {
          "internalType": "address",
          "name": "",
          "type": "address"
        },
        {
          "internalType": "uint256",
          "name": "",
          "type": "uint256"
        }
      ],
      "name": "votes",
      "outputs": [
        {
          "internalType": "address",
          "name": "voter",
          "type": "address"
        },
        {
          "internalType": "uint256",
          "name": "points",
          "type": "uint256"
        }
      ],
      "stateMutability": "view",
      "type": "function",
      "constant": true
    },
    {
      "inputs": [
        {
          "internalType": "address",
          "name": "_judokaAddress",
          "type": "address"
        }
      ],
      "name": "vote",
      "outputs": [],
      "stateMutability": "nonpayable",
      "type": "function"
    },
    {
      "inputs": [
        {
          "internalType": "address",
          "name": "_judokaAddress",
          "type": "address"
        }
      ],
      "name": "getRequiredPoints",
      "outputs": [
        {
          "internalType": "uint256",
          "name": "",
          "type": "uint256"
        }
      ],
      "stateMutability": "view",
      "type": "function",
      "constant": true
    },
    {
      "inputs": [
        {
          "internalType": "address",
          "name": "_judokaAddress",
          "type": "address"
        }
      ],
      "name": "getVotes",
      "outputs": [
        {
          "components": [
            {
              "internalType": "address",
              "name": "voter",
              "type": "address"
            },
            {
              "internalType": "uint256",
              "name": "points",
              "type": "uint256"
            }
          ],
          "internalType": "struct VotingContract.Vote[]",
          "name": "",
          "type": "tuple[]"
        }
      ],
      "stateMutability": "view",
      "type": "function",
      "constant": true
    },
    {
      "inputs": [
        {
          "internalType": "address",
          "name": "_judokaAddress",
          "type": "address"
        }
      ],
      "name": "getVoteCount",
      "outputs": [
        {
          "internalType": "uint256",
          "name": "",
          "type": "uint256"
        }
      ],
      "stateMutability": "view",
      "type": "function",
      "constant": true
    }
  ],
  "bytecode": "0x60806040523480156200001157600080fd5b506040516200185e3803806200185e833981810160405281019062000037919062000095565b806000806101000a81548173ffffffffffffffffffffffffffffffffffffffff021916908373ffffffffffffffffffffffffffffffffffffffff160217905550506200010f565b6000815190506200008f81620000f5565b92915050565b600060208284031215620000a857600080fd5b6000620000b8848285016200007e565b91505092915050565b6000620000ce82620000d5565b9050919050565b600073ffffffffffffffffffffffffffffffffffffffff82169050919050565b6200010081620000c1565b81146200010c57600080fd5b50565b61173f806200011f6000396000f3fe608060405234801561001057600080fd5b506004361061007d5760003560e01c80636dd7d8ea1161005b5780636dd7d8ea146101005780639ab24eb01461011c5780639f2524ee1461014c578063e652f4cc1461017d5761007d565b8063202b40c7146100825780635dced109146100b257806366a267a9146100d0575b600080fd5b61009c60048036038101906100979190610ded565b6101ad565b6040516100a99190611424565b60405180910390f35b6100ba610550565b6040516100c791906113a7565b60405180910390f35b6100ea60048036038101906100e59190610ded565b610574565b6040516100f79190611424565b60405180910390f35b61011a60048036038101906101159190610ded565b61058c565b005b61013660048036038101906101319190610ded565b61095e565b6040516101439190611385565b60405180910390f35b61016660048036038101906101619190610e16565b610a5c565b60405161017492919061135c565b60405180910390f35b61019760048036038101906101929190610ded565b610abd565b6040516101a49190611424565b60405180910390f35b60008060008054906101000a900473ffffffffffffffffffffffffffffffffffffffff1673ffffffffffffffffffffffffffffffffffffffff1663ab029db9846040518263ffffffff1660e01b81526004016102099190611341565b60006040518083038186803b15801561022157600080fd5b505afa158015610235573d6000803e3d6000fd5b505050506040513d6000823e3d601f19601f8201168201806040525081019061025e9190610e52565b9050600081600183516102719190611582565b815181106102a8577f4e487b7100000000000000000000000000000000000000000000000000000000600052603260045260246000fd5b60200260200101516000015190506040516020016102c590611317565b60405160208183030381529060405280519060200120816040516020016102ec9190611297565b6040516020818303038152906040528051906020012014156103135760009250505061054b565b604051602001610322906112c3565b60405160208183030381529060405280519060200120816040516020016103499190611297565b6040516020818303038152906040528051906020012014156103705760649250505061054b565b60405160200161037f9061132c565b60405160208183030381529060405280519060200120816040516020016103a69190611297565b6040516020818303038152906040528051906020012014156103cd5760969250505061054b565b6040516020016103dc906112ed565b60405160208183030381529060405280519060200120816040516020016104039190611297565b60405160208183030381529060405280519060200120141561042a5760c89250505061054b565b604051602001610439906112d8565b60405160208183030381529060405280519060200120816040516020016104609190611297565b604051602081830303815290604052805190602001201415610488576101909250505061054b565b604051602001610497906112ae565b60405160208183030381529060405280519060200120816040516020016104be9190611297565b6040516020818303038152906040528051906020012014156104e6576102bc9250505061054b565b6040516020016104f590611302565b604051602081830303815290604052805190602001208160405160200161051c9190611297565b604051602081830303815290604052805190602001201415610544576103e89250505061054b565b6000925050505b919050565b60008054906101000a900473ffffffffffffffffffffffffffffffffffffffff1681565b60026020528060005260406000206000915090505481565b60008060009054906101000a900473ffffffffffffffffffffffffffffffffffffffff1673ffffffffffffffffffffffffffffffffffffffff1663e19d1e2d336040518263ffffffff1660e01b81526004016105e89190611341565b60006040518083038186803b15801561060057600080fd5b505afa158015610614573d6000803e3d6000fd5b505050506040513d6000823e3d601f19601f8201168201806040525081019061063d9190610e93565b90508060600151610683576040517f08c379a000000000000000000000000000000000000000000000000000000000815260040161067a90611404565b60405180910390fd5b60008060009054906101000a900473ffffffffffffffffffffffffffffffffffffffff1673ffffffffffffffffffffffffffffffffffffffff166380e9e17c836080015160018560800151516106d99190611582565b81518110610710577f4e487b7100000000000000000000000000000000000000000000000000000000600052603260045260246000fd5b6020026020010151600001516040518263ffffffff1660e01b815260040161073891906113c2565b60206040518083038186803b15801561075057600080fd5b505afa158015610764573d6000803e3d6000fd5b505050506040513d601f19601f820116820180604052508101906107889190610ed4565b9050600081116107cd576040517f08c379a00000000000000000000000000000000000000000000000000000000081526004016107c4906113e4565b60405180910390fd5b600160008473ffffffffffffffffffffffffffffffffffffffff1673ffffffffffffffffffffffffffffffffffffffff16815260200190815260200160002060405180604001604052803373ffffffffffffffffffffffffffffffffffffffff16815260200183815250908060018154018082558091505060019003906000526020600020906002020160009091909190915060008201518160000160006101000a81548173ffffffffffffffffffffffffffffffffffffffff021916908373ffffffffffffffffffffffffffffffffffffffff16021790555060208201518160010155505080600260008573ffffffffffffffffffffffffffffffffffffffff1673ffffffffffffffffffffffffffffffffffffffff1681526020019081526020016000206000828254610902919061152c565b925050819055506000610914846101ad565b905080600260008673ffffffffffffffffffffffffffffffffffffffff1673ffffffffffffffffffffffffffffffffffffffff168152602001908152602001600020505050505050565b6060600160008373ffffffffffffffffffffffffffffffffffffffff1673ffffffffffffffffffffffffffffffffffffffff168152602001908152602001600020805480602002602001604051908101604052809291908181526020016000905b82821015610a5157838290600052602060002090600202016040518060400160405290816000820160009054906101000a900473ffffffffffffffffffffffffffffffffffffffff1673ffffffffffffffffffffffffffffffffffffffff1673ffffffffffffffffffffffffffffffffffffffff168152602001600182015481525050815260200190600101906109bf565b505050509050919050565b60016020528160005260406000208181548110610a7857600080fd5b9060005260206000209060020201600091509150508060000160009054906101000a900473ffffffffffffffffffffffffffffffffffffffff16908060010154905082565b6000600260008373ffffffffffffffffffffffffffffffffffffffff1673ffffffffffffffffffffffffffffffffffffffff168152602001908152602001600020549050919050565b6000610b19610b1484611470565b61143f565b9050808382526020820190508260005b85811015610b595781518501610b3f8882610d1b565b845260208401935060208301925050600181019050610b29565b5050509392505050565b6000610b76610b718461149c565b61143f565b905082815260208101848484011115610b8e57600080fd5b610b99848285611622565b509392505050565b600081359050610bb0816116c4565b92915050565b600082601f830112610bc757600080fd5b8151610bd7848260208601610b06565b91505092915050565b600081519050610bef816116db565b92915050565b600082601f830112610c0657600080fd5b8151610c16848260208601610b63565b91505092915050565b600060c08284031215610c3157600080fd5b610c3b60c061143f565b9050600082015167ffffffffffffffff811115610c5757600080fd5b610c6384828501610bf5565b600083015250602082015167ffffffffffffffff811115610c8357600080fd5b610c8f84828501610bf5565b602083015250604082015167ffffffffffffffff811115610caf57600080fd5b610cbb84828501610bf5565b6040830152506060610ccf84828501610be0565b606083015250608082015167ffffffffffffffff811115610cef57600080fd5b610cfb84828501610bb6565b60808301525060a0610d0f84828501610dd8565b60a08301525092915050565b600060608284031215610d2d57600080fd5b610d37606061143f565b9050600082015167ffffffffffffffff811115610d5357600080fd5b610d5f84828501610bf5565b600083015250602082015167ffffffffffffffff811115610d7f57600080fd5b610d8b84828501610bf5565b602083015250604082015167ffffffffffffffff811115610dab57600080fd5b610db784828501610bf5565b60408301525092915050565b600081359050610dd2816116f2565b92915050565b600081519050610de7816116f2565b92915050565b600060208284031215610dff57600080fd5b6000610e0d84828501610ba1565b91505092915050565b60008060408385031215610e2957600080fd5b6000610e3785828601610ba1565b9250506020610e4885828601610dc3565b9150509250929050565b600060208284031215610e6457600080fd5b600082015167ffffffffffffffff811115610e7e57600080fd5b610e8a84828501610bb6565b91505092915050565b600060208284031215610ea557600080fd5b600082015167ffffffffffffffff811115610ebf57600080fd5b610ecb84828501610c1f565b91505092915050565b600060208284031215610ee657600080fd5b6000610ef484828501610dd8565b91505092915050565b6000610f09838361124a565b60408301905092915050565b610f1e816115b6565b82525050565b610f2d816115b6565b82525050565b6000610f3e826114dc565b610f4881856114ff565b9350610f53836114cc565b8060005b83811015610f84578151610f6b8882610efd565b9750610f76836114f2565b925050600181019050610f57565b5085935050505092915050565b610f9a816115fe565b82525050565b6000610fab826114e7565b610fb58185611510565b9350610fc5818560208601611622565b610fce816116b3565b840191505092915050565b6000610fe4826114e7565b610fee8185611521565b9350610ffe818560208601611622565b80840191505092915050565b6000611017600583611521565b91507f42726f776e0000000000000000000000000000000000000000000000000000006000830152600582019050919050565b6000611057600683611521565b91507f59656c6c6f7700000000000000000000000000000000000000000000000000006000830152600682019050919050565b6000611097600483611521565b91507f426c7565000000000000000000000000000000000000000000000000000000006000830152600482019050919050565b60006110d7600583611521565b91507f477265656e0000000000000000000000000000000000000000000000000000006000830152600582019050919050565b6000611117601a83611510565b91507f566f74657220686173206e6f20766f74696e6720706f7765722e0000000000006000830152602082019050919050565b6000611157601883611510565b91507f566f746572206973206e6f7420726567697374657265642e00000000000000006000830152602082019050919050565b6000611197600f83611521565b91507f426c61636b20283173742044616e2900000000000000000000000000000000006000830152600f82019050919050565b60006111d7600583611521565b91507f57686974650000000000000000000000000000000000000000000000000000006000830152600582019050919050565b6000611217600683611521565b91507f4f72616e676500000000000000000000000000000000000000000000000000006000830152600682019050919050565b6040820160008201516112606000850182610f15565b5060208201516112736020850182611279565b50505050565b611282816115f4565b82525050565b611291816115f4565b82525050565b60006112a38284610fd9565b915081905092915050565b60006112b98261100a565b9150819050919050565b60006112ce8261104a565b9150819050919050565b60006112e38261108a565b9150819050919050565b60006112f8826110ca565b9150819050919050565b600061130d8261118a565b9150819050919050565b6000611322826111ca565b9150819050919050565b60006113378261120a565b9150819050919050565b60006020820190506113566000830184610f24565b92915050565b60006040820190506113716000830185610f24565b61137e6020830184611288565b9392505050565b6000602082019050818103600083015261139f8184610f33565b905092915050565b60006020820190506113bc6000830184610f91565b92915050565b600060208201905081810360008301526113dc8184610fa0565b905092915050565b600060208201905081810360008301526113fd8161110a565b9050919050565b6000602082019050818103600083015261141d8161114a565b9050919050565b60006020820190506114396000830184611288565b92915050565b6000604051905081810181811067ffffffffffffffff8211171561146657611465611684565b5b8060405250919050565b600067ffffffffffffffff82111561148b5761148a611684565b5b602082029050602081019050919050565b600067ffffffffffffffff8211156114b7576114b6611684565b5b601f19601f8301169050602081019050919050565b6000819050602082019050919050565b600081519050919050565b600081519050919050565b6000602082019050919050565b600082825260208201905092915050565b600082825260208201905092915050565b600081905092915050565b6000611537826115f4565b9150611542836115f4565b9250827fffffffffffffffffffffffffffffffffffffffffffffffffffffffffffffffff0382111561157757611576611655565b5b828201905092915050565b600061158d826115f4565b9150611598836115f4565b9250828210156115ab576115aa611655565b5b828203905092915050565b60006115c1826115d4565b9050919050565b60008115159050919050565b600073ffffffffffffffffffffffffffffffffffffffff82169050919050565b6000819050919050565b600061160982611610565b9050919050565b600061161b826115d4565b9050919050565b60005b83811015611640578082015181840152602081019050611625565b8381111561164f576000848401525b50505050565b7f4e487b7100000000000000000000000000000000000000000000000000000000600052601160045260246000fd5b7f4e487b7100000000000000000000000000000000000000000000000000000000600052604160045260246000fd5b6000601f19601f8301169050919050565b6116cd816115b6565b81146116d857600080fd5b50565b6116e4816115c8565b81146116ef57600080fd5b50565b6116fb816115f4565b811461170657600080fd5b5056fea26469706673582212201710b575138fd3f9957ec95fa6a9d0bb6035a4d5bc68cb4072e7384f3c526a1764736f6c63430008000033",
  "immutableReferences": {},
  "source": "// SPDX-License-Identifier: MIT\r\npragma solidity ^0.8.0;\r\n\r\nimport \"./JudokaRegistry.sol\";\r\n\r\ncontract VotingContract {\r\n    JudokaRegistry public judokaRegistry;\r\n\r\n    struct Vote {\r\n        address voter;\r\n        uint256 points;\r\n    }\r\n\r\n    mapping(address => Vote[]) public votes;\r\n    mapping(address => uint256) public voteCounts;\r\n\r\n    constructor(address _judokaRegistry) {\r\n        judokaRegistry = JudokaRegistry(_judokaRegistry);\r\n    }\r\n\r\n    function vote(address _judokaAddress) public {\r\n        JudokaRegistry.Judoka memory voter = judokaRegistry.getJudoka(msg.sender);\r\n        require(voter.isRegistered, \"Voter is not registered.\");\r\n        uint256 points = judokaRegistry.getVotingPower(voter.promotions[voter.promotions.length - 1].beltLevel);\r\n        require(points > 0, \"Voter has no voting power.\");\r\n\r\n        votes[_judokaAddress].push(Vote({\r\n            voter: msg.sender,\r\n            points: points\r\n        }));\r\n\r\n        voteCounts[_judokaAddress] += points;\r\n\r\n        // Check if the judoka has enough points for verification\r\n        uint256 requiredPoints = getRequiredPoints(_judokaAddress);\r\n        if (voteCounts[_judokaAddress] >= requiredPoints) {\r\n            // Update the judoka's verified status\r\n            // judokaRegistry.verifyJudoka(_judokaAddress);\r\n        }\r\n    }\r\n\r\n    function getRequiredPoints(address _judokaAddress) public view returns (uint256) {\r\n        JudokaRegistry.Promotion[] memory promotions = judokaRegistry.getJudokaPromotions(_judokaAddress);\r\n        string memory currentBelt = promotions[promotions.length - 1].beltLevel;\r\n\r\n        if (keccak256(abi.encodePacked((currentBelt))) == keccak256(abi.encodePacked((\"White\")))) return 0;\r\n        if (keccak256(abi.encodePacked((currentBelt))) == keccak256(abi.encodePacked((\"Yellow\")))) return 100;\r\n        if (keccak256(abi.encodePacked((currentBelt))) == keccak256(abi.encodePacked((\"Orange\")))) return 150;\r\n        if (keccak256(abi.encodePacked((currentBelt))) == keccak256(abi.encodePacked((\"Green\")))) return 200;\r\n        if (keccak256(abi.encodePacked((currentBelt))) == keccak256(abi.encodePacked((\"Blue\")))) return 400;\r\n        if (keccak256(abi.encodePacked((currentBelt))) == keccak256(abi.encodePacked((\"Brown\")))) return 700;\r\n        if (keccak256(abi.encodePacked((currentBelt))) == keccak256(abi.encodePacked((\"Black (1st Dan)\")))) return 1000;\r\n        return 0;\r\n    }\r\n\r\n    function getVotes(address _judokaAddress) public view returns (Vote[] memory) {\r\n        return votes[_judokaAddress];\r\n    }\r\n\r\n    function getVoteCount(address _judokaAddress) public view returns (uint256) {\r\n        return voteCounts[_judokaAddress];\r\n    }\r\n}\r\n",
  "sourcePath": "C:\\Users\\marti\\Documents\\projects\\judo-chain\\contracts\\VotingContract.sol",
  "compiler": {
    "name": "solc",
    "version": "0.8.0+commit.c7dfd78e.Emscripten.clang"
  },
  "schemaVersion": "3.4.16",
  "updatedAt": "2024-06-18T14:34:53.809Z",
  "networkType": "ethereum",
  "devdoc": {
    "kind": "dev",
    "methods": {},
    "version": 1
  },
  "userdoc": {
    "kind": "user",
    "methods": {},
    "version": 1
  }
}