{
  "contractName": "VotingContract",
  "abi": [
    {
      "inputs": [
        {
          "internalType": "address",
          "name": "judokaRegistryAddress",
          "type": "address"
        }
      ],
      "stateMutability": "nonpayable",
      "type": "constructor"
    },
    {
      "inputs": [],
      "name": "judokaRegistry",
      "outputs": [
        {
          "internalType": "contract JudokaRegistry",
          "name": "",
          "type": "address"
        }
      ],
      "stateMutability": "view",
      "type": "function",
      "constant": true
    },
    {
      "inputs": [
        {
          "internalType": "address",
          "name": "",
          "type": "address"
        }
      ],
      "name": "receivedVotePoints",
      "outputs": [
        {
          "internalType": "uint256",
          "name": "",
          "type": "uint256"
        }
      ],
      "stateMutability": "view",
      "type": "function",
      "constant": true
    },
    {
      "inputs": [
        {
          "internalType": "address",
          "name": "",
          "type": "address"
        },
        {
          "internalType": "uint256",
          "name": "",
          "type": "uint256"
        }
      ],
      "name": "votesForUser",
      "outputs": [
        {
          "internalType": "address",
          "name": "voter",
          "type": "address"
        },
        {
          "internalType": "bool",
          "name": "isVerified",
          "type": "bool"
        }
      ],
      "stateMutability": "view",
      "type": "function",
      "constant": true
    },
    {
      "inputs": [
        {
          "internalType": "address",
          "name": "user",
          "type": "address"
        },
        {
          "internalType": "bool",
          "name": "isVerified",
          "type": "bool"
        }
      ],
      "name": "voteForUser",
      "outputs": [],
      "stateMutability": "nonpayable",
      "type": "function"
    },
    {
      "inputs": [
        {
          "internalType": "address",
          "name": "user",
          "type": "address"
        }
      ],
      "name": "getReceivedVotePoints",
      "outputs": [
        {
          "internalType": "uint256",
          "name": "",
          "type": "uint256"
        }
      ],
      "stateMutability": "view",
      "type": "function",
      "constant": true
    },
    {
      "inputs": [
        {
          "internalType": "address",
          "name": "user",
          "type": "address"
        }
      ],
      "name": "getVotesForUser",
      "outputs": [
        {
          "components": [
            {
              "internalType": "address",
              "name": "voter",
              "type": "address"
            },
            {
              "internalType": "bool",
              "name": "isVerified",
              "type": "bool"
            }
          ],
          "internalType": "struct VotingContract.Vote[]",
          "name": "",
          "type": "tuple[]"
        }
      ],
      "stateMutability": "view",
      "type": "function",
      "constant": true
    },
    {
      "inputs": [
        {
          "internalType": "string",
          "name": "_beltLevel",
          "type": "string"
        }
      ],
      "name": "getRequiredPointsForBelt",
      "outputs": [
        {
          "internalType": "uint256",
          "name": "",
          "type": "uint256"
        }
      ],
      "stateMutability": "pure",
      "type": "function",
      "constant": true
    },
    {
      "inputs": [
        {
          "internalType": "string",
          "name": "_beltLevel",
          "type": "string"
        }
      ],
      "name": "getVotingPower",
      "outputs": [
        {
          "internalType": "uint256",
          "name": "",
          "type": "uint256"
        }
      ],
      "stateMutability": "pure",
      "type": "function",
      "constant": true
    }
  ],
  "bytecode": "0x60806040523480156200001157600080fd5b506040516200216f3803806200216f833981810160405281019062000037919062000095565b806000806101000a81548173ffffffffffffffffffffffffffffffffffffffff021916908373ffffffffffffffffffffffffffffffffffffffff160217905550506200010f565b6000815190506200008f81620000f5565b92915050565b600060208284031215620000a857600080fd5b6000620000b8848285016200007e565b91505092915050565b6000620000ce82620000d5565b9050919050565b600073ffffffffffffffffffffffffffffffffffffffff82169050919050565b6200010081620000c1565b81146200010c57600080fd5b50565b612050806200011f6000396000f3fe608060405234801561001057600080fd5b50600436106100885760003560e01c8063bcdfec401161005b578063bcdfec401461013c578063c0ba283d14610158578063ceb02b0914610188578063f15bd5a0146101b857610088565b80635dced1091461008d57806362b98ba4146100ab57806380e9e17c146100db5780638ed7ee041461010b575b600080fd5b6100956101e8565b6040516100a29190611cdc565b60405180910390f35b6100c560048036038101906100c09190611413565b61020c565b6040516100d29190611cba565b60405180910390f35b6100f560048036038101906100f091906114b4565b610317565b6040516101029190611d37565b60405180910390f35b61012560048036038101906101209190611478565b6108d7565b604051610133929190611c68565b60405180910390f35b6101566004803603810190610151919061143c565b610941565b005b610172600480360381019061016d9190611413565b610dae565b60405161017f9190611d37565b60405180910390f35b6101a2600480360381019061019d91906114b4565b610df7565b6040516101af9190611d37565b60405180910390f35b6101d260048036038101906101cd9190611413565b611083565b6040516101df9190611d37565b60405180910390f35b60008054906101000a900473ffffffffffffffffffffffffffffffffffffffff1681565b6060600160008373ffffffffffffffffffffffffffffffffffffffff1673ffffffffffffffffffffffffffffffffffffffff168152602001908152602001600020805480602002602001604051908101604052809291908181526020016000905b8282101561030c578382906000526020600020016040518060400160405290816000820160009054906101000a900473ffffffffffffffffffffffffffffffffffffffff1673ffffffffffffffffffffffffffffffffffffffff1673ffffffffffffffffffffffffffffffffffffffff1681526020016000820160149054906101000a900460ff1615151515815250508152602001906001019061026d565b505050509050919050565b600060405160200161032890611c0e565b604051602081830303815290604052805190602001208260405160200161034f9190611ae6565b60405160208183030381529060405280519060200120141561037457600090506108d2565b60405160200161038390611b51565b60405160208183030381529060405280519060200120826040516020016103aa9190611ae6565b6040516020818303038152906040528051906020012014156103cf57600590506108d2565b6040516020016103de90611c23565b60405160208183030381529060405280519060200120826040516020016104059190611ae6565b60405160208183030381529060405280519060200120141561042a57600a90506108d2565b60405160200161043990611b7b565b60405160208183030381529060405280519060200120826040516020016104609190611ae6565b60405160208183030381529060405280519060200120141561048557601490506108d2565b60405160200161049490611b66565b60405160208183030381529060405280519060200120826040516020016104bb9190611ae6565b6040516020818303038152906040528051906020012014156104e057603290506108d2565b6040516020016104ef90611b12565b60405160208183030381529060405280519060200120826040516020016105169190611ae6565b60405160208183030381529060405280519060200120141561053b57606490506108d2565b60405160200161054a90611bf9565b60405160208183030381529060405280519060200120826040516020016105719190611ae6565b60405160208183030381529060405280519060200120141561059657607d90506108d2565b6040516020016105a590611ba5565b60405160208183030381529060405280519060200120826040516020016105cc9190611ae6565b6040516020818303038152906040528051906020012014156105f157609690506108d2565b60405160200161060090611bba565b60405160208183030381529060405280519060200120826040516020016106279190611ae6565b60405160208183030381529060405280519060200120141561064c5760af90506108d2565b60405160200161065b90611be4565b60405160208183030381529060405280519060200120826040516020016106829190611ae6565b6040516020818303038152906040528051906020012014156106a75760c890506108d2565b6040516020016106b690611b3c565b60405160208183030381529060405280519060200120826040516020016106dd9190611ae6565b6040516020818303038152906040528051906020012014156107025760e190506108d2565b60405160200161071190611b90565b60405160208183030381529060405280519060200120826040516020016107389190611ae6565b60405160208183030381529060405280519060200120141561075d5760fa90506108d2565b60405160200161076c90611b27565b60405160208183030381529060405280519060200120826040516020016107939190611ae6565b6040516020818303038152906040528051906020012014156107b95761011390506108d2565b6040516020016107c890611bcf565b60405160208183030381529060405280519060200120826040516020016107ef9190611ae6565b6040516020818303038152906040528051906020012014156108155761012c90506108d2565b60405160200161082490611c38565b604051602081830303815290604052805190602001208260405160200161084b9190611ae6565b6040516020818303038152906040528051906020012014156108715761014590506108d2565b60405160200161088090611afd565b60405160208183030381529060405280519060200120826040516020016108a79190611ae6565b6040516020818303038152906040528051906020012014156108cd5761015e90506108d2565b600090505b919050565b600160205281600052604060002081815481106108f357600080fd5b90600052602060002001600091509150508060000160009054906101000a900473ffffffffffffffffffffffffffffffffffffffff16908060000160149054906101000a900460ff16905082565b60008060009054906101000a900473ffffffffffffffffffffffffffffffffffffffff1673ffffffffffffffffffffffffffffffffffffffff1663e19d1e2d336040518263ffffffff1660e01b815260040161099d9190611c4d565b60006040518083038186803b1580156109b557600080fd5b505afa1580156109c9573d6000803e3d6000fd5b505050506040513d6000823e3d601f19601f820116820180604052508101906109f291906114f5565b90508060600151610a38576040517f08c379a0000000000000000000000000000000000000000000000000000000008152600401610a2f90611d17565b60405180910390fd5b60008060009054906101000a900473ffffffffffffffffffffffffffffffffffffffff1673ffffffffffffffffffffffffffffffffffffffff1663e19d1e2d856040518263ffffffff1660e01b8152600401610a949190611c4d565b60006040518083038186803b158015610aac57600080fd5b505afa158015610ac0573d6000803e3d6000fd5b505050506040513d6000823e3d601f19601f82011682018060405250810190610ae991906114f5565b90508060600151610b2f576040517f08c379a0000000000000000000000000000000000000000000000000000000008152600401610b2690611cf7565b60405180910390fd5b6000610b9383608001516001856080015151610b4b9190611e95565b81518110610b82577f4e487b7100000000000000000000000000000000000000000000000000000000600052603260045260246000fd5b602002602001015160000151610317565b905060008415610bb457818360c00151610bad9190611e3f565b9050610bdb565b818360c001511015610bc7576000610bd8565b818360c00151610bd79190611e95565b5b90505b60008054906101000a900473ffffffffffffffffffffffffffffffffffffffff1673ffffffffffffffffffffffffffffffffffffffff16635dae10cf87836040518363ffffffff1660e01b8152600401610c36929190611c91565b600060405180830381600087803b158015610c5057600080fd5b505af1158015610c64573d6000803e3d6000fd5b50505050600160008773ffffffffffffffffffffffffffffffffffffffff1673ffffffffffffffffffffffffffffffffffffffff16815260200190815260200160002060405180604001604052803373ffffffffffffffffffffffffffffffffffffffff1681526020018715158152509080600181540180825580915050600190039060005260206000200160009091909190915060008201518160000160006101000a81548173ffffffffffffffffffffffffffffffffffffffff021916908373ffffffffffffffffffffffffffffffffffffffff16021790555060208201518160000160146101000a81548160ff021916908315150217905550505080600260008873ffffffffffffffffffffffffffffffffffffffff1673ffffffffffffffffffffffffffffffffffffffff16815260200190815260200160002081905550505050505050565b6000600260008373ffffffffffffffffffffffffffffffffffffffff1673ffffffffffffffffffffffffffffffffffffffff168152602001908152602001600020549050919050565b6000604051602001610e0890611c0e565b6040516020818303038152906040528051906020012082604051602001610e2f9190611ae6565b604051602081830303815290604052805190602001201415610e54576000905061107e565b604051602001610e6390611b51565b6040516020818303038152906040528051906020012082604051602001610e8a9190611ae6565b604051602081830303815290604052805190602001201415610eaf576064905061107e565b604051602001610ebe90611c23565b6040516020818303038152906040528051906020012082604051602001610ee59190611ae6565b604051602081830303815290604052805190602001201415610f0a576096905061107e565b604051602001610f1990611b7b565b6040516020818303038152906040528051906020012082604051602001610f409190611ae6565b604051602081830303815290604052805190602001201415610f655760c8905061107e565b604051602001610f7490611b66565b6040516020818303038152906040528051906020012082604051602001610f9b9190611ae6565b604051602081830303815290604052805190602001201415610fc157610190905061107e565b604051602001610fd090611b12565b6040516020818303038152906040528051906020012082604051602001610ff79190611ae6565b60405160208183030381529060405280519060200120141561101d576102bc905061107e565b60405160200161102c90611bf9565b60405160208183030381529060405280519060200120826040516020016110539190611ae6565b604051602081830303815290604052805190602001201415611079576103e8905061107e565b600090505b919050565b60026020528060005260406000206000915090505481565b60006110ae6110a984611d83565b611d52565b9050808382526020820190508260005b858110156110ee57815185016110d48882611341565b8452602084019350602083019250506001810190506110be565b5050509392505050565b600061110b61110684611daf565b611d52565b90508281526020810184848401111561112357600080fd5b61112e848285611f35565b509392505050565b600061114961114484611daf565b611d52565b90508281526020810184848401111561116157600080fd5b61116c848285611f44565b509392505050565b60008135905061118381611fd5565b92915050565b600082601f83011261119a57600080fd5b81516111aa84826020860161109b565b91505092915050565b6000813590506111c281611fec565b92915050565b6000815190506111d781611fec565b92915050565b600082601f8301126111ee57600080fd5b81356111fe8482602086016110f8565b91505092915050565b600082601f83011261121857600080fd5b8151611228848260208601611136565b91505092915050565b600060e0828403121561124357600080fd5b61124d60e0611d52565b9050600082015167ffffffffffffffff81111561126957600080fd5b61127584828501611207565b600083015250602082015167ffffffffffffffff81111561129557600080fd5b6112a184828501611207565b602083015250604082015167ffffffffffffffff8111156112c157600080fd5b6112cd84828501611207565b60408301525060606112e1848285016111c8565b606083015250608082015167ffffffffffffffff81111561130157600080fd5b61130d84828501611189565b60808301525060a0611321848285016113fe565b60a08301525060c0611335848285016113fe565b60c08301525092915050565b60006060828403121561135357600080fd5b61135d6060611d52565b9050600082015167ffffffffffffffff81111561137957600080fd5b61138584828501611207565b600083015250602082015167ffffffffffffffff8111156113a557600080fd5b6113b184828501611207565b602083015250604082015167ffffffffffffffff8111156113d157600080fd5b6113dd84828501611207565b60408301525092915050565b6000813590506113f881612003565b92915050565b60008151905061140d81612003565b92915050565b60006020828403121561142557600080fd5b600061143384828501611174565b91505092915050565b6000806040838503121561144f57600080fd5b600061145d85828601611174565b925050602061146e858286016111b3565b9150509250929050565b6000806040838503121561148b57600080fd5b600061149985828601611174565b92505060206114aa858286016113e9565b9150509250929050565b6000602082840312156114c657600080fd5b600082013567ffffffffffffffff8111156114e057600080fd5b6114ec848285016111dd565b91505092915050565b60006020828403121561150757600080fd5b600082015167ffffffffffffffff81111561152157600080fd5b61152d84828501611231565b91505092915050565b60006115428383611aa8565b60408301905092915050565b61155781611ec9565b82525050565b61156681611ec9565b82525050565b600061157782611def565b6115818185611e12565b935061158c83611ddf565b8060005b838110156115bd5781516115a48882611536565b97506115af83611e05565b925050600181019050611590565b5085935050505092915050565b6115d381611edb565b82525050565b6115e281611edb565b82525050565b6115f181611f11565b82525050565b600061160282611dfa565b61160c8185611e34565b935061161c818560208601611f44565b80840191505092915050565b6000611635601083611e34565b91507f426c61636b2028313074682044616e29000000000000000000000000000000006000830152601082019050919050565b6000611675600583611e34565b91507f42726f776e0000000000000000000000000000000000000000000000000000006000830152600582019050919050565b60006116b5600f83611e34565b91507f426c61636b20283774682044616e2900000000000000000000000000000000006000830152600f82019050919050565b60006116f5600f83611e34565b91507f426c61636b20283574682044616e2900000000000000000000000000000000006000830152600f82019050919050565b6000611735600683611e34565b91507f59656c6c6f7700000000000000000000000000000000000000000000000000006000830152600682019050919050565b6000611775600483611e34565b91507f426c7565000000000000000000000000000000000000000000000000000000006000830152600482019050919050565b60006117b5600583611e34565b91507f477265656e0000000000000000000000000000000000000000000000000000006000830152600582019050919050565b60006117f5600f83611e34565b91507f426c61636b20283674682044616e2900000000000000000000000000000000006000830152600f82019050919050565b6000611835601d83611e23565b91507f5461726765742075736572206973206e6f7420726567697374657265640000006000830152602082019050919050565b6000611875600f83611e34565b91507f426c61636b2028326e642044616e2900000000000000000000000000000000006000830152600f82019050919050565b60006118b5600f83611e34565b91507f426c61636b20283372642044616e2900000000000000000000000000000000006000830152600f82019050919050565b60006118f5600f83611e34565b91507f426c61636b20283874682044616e2900000000000000000000000000000000006000830152600f82019050919050565b6000611935601783611e23565b91507f566f746572206973206e6f7420726567697374657265640000000000000000006000830152602082019050919050565b6000611975600f83611e34565b91507f426c61636b20283474682044616e2900000000000000000000000000000000006000830152600f82019050919050565b60006119b5600f83611e34565b91507f426c61636b20283173742044616e2900000000000000000000000000000000006000830152600f82019050919050565b60006119f5600583611e34565b91507f57686974650000000000000000000000000000000000000000000000000000006000830152600582019050919050565b6000611a35600683611e34565b91507f4f72616e676500000000000000000000000000000000000000000000000000006000830152600682019050919050565b6000611a75600f83611e34565b91507f426c61636b20283974682044616e2900000000000000000000000000000000006000830152600f82019050919050565b604082016000820151611abe600085018261154e565b506020820151611ad160208501826115ca565b50505050565b611ae081611f07565b82525050565b6000611af282846115f7565b915081905092915050565b6000611b0882611628565b9150819050919050565b6000611b1d82611668565b9150819050919050565b6000611b32826116a8565b9150819050919050565b6000611b47826116e8565b9150819050919050565b6000611b5c82611728565b9150819050919050565b6000611b7182611768565b9150819050919050565b6000611b86826117a8565b9150819050919050565b6000611b9b826117e8565b9150819050919050565b6000611bb082611868565b9150819050919050565b6000611bc5826118a8565b9150819050919050565b6000611bda826118e8565b9150819050919050565b6000611bef82611968565b9150819050919050565b6000611c04826119a8565b9150819050919050565b6000611c19826119e8565b9150819050919050565b6000611c2e82611a28565b9150819050919050565b6000611c4382611a68565b9150819050919050565b6000602082019050611c62600083018461155d565b92915050565b6000604082019050611c7d600083018561155d565b611c8a60208301846115d9565b9392505050565b6000604082019050611ca6600083018561155d565b611cb36020830184611ad7565b9392505050565b60006020820190508181036000830152611cd4818461156c565b905092915050565b6000602082019050611cf160008301846115e8565b92915050565b60006020820190508181036000830152611d1081611828565b9050919050565b60006020820190508181036000830152611d3081611928565b9050919050565b6000602082019050611d4c6000830184611ad7565b92915050565b6000604051905081810181811067ffffffffffffffff82111715611d7957611d78611fa6565b5b8060405250919050565b600067ffffffffffffffff821115611d9e57611d9d611fa6565b5b602082029050602081019050919050565b600067ffffffffffffffff821115611dca57611dc9611fa6565b5b601f19601f8301169050602081019050919050565b6000819050602082019050919050565b600081519050919050565b600081519050919050565b6000602082019050919050565b600082825260208201905092915050565b600082825260208201905092915050565b600081905092915050565b6000611e4a82611f07565b9150611e5583611f07565b9250827fffffffffffffffffffffffffffffffffffffffffffffffffffffffffffffffff03821115611e8a57611e89611f77565b5b828201905092915050565b6000611ea082611f07565b9150611eab83611f07565b925082821015611ebe57611ebd611f77565b5b828203905092915050565b6000611ed482611ee7565b9050919050565b60008115159050919050565b600073ffffffffffffffffffffffffffffffffffffffff82169050919050565b6000819050919050565b6000611f1c82611f23565b9050919050565b6000611f2e82611ee7565b9050919050565b82818337600083830152505050565b60005b83811015611f62578082015181840152602081019050611f47565b83811115611f71576000848401525b50505050565b7f4e487b7100000000000000000000000000000000000000000000000000000000600052601160045260246000fd5b7f4e487b7100000000000000000000000000000000000000000000000000000000600052604160045260246000fd5b611fde81611ec9565b8114611fe957600080fd5b50565b611ff581611edb565b811461200057600080fd5b50565b61200c81611f07565b811461201757600080fd5b5056fea2646970667358221220ae2c90ee52d82a3065b0abf9e314d202f119a05e85b8c111222c6893e52022cc64736f6c63430008000033",
  "immutableReferences": {},
  "source": "// SPDX-License-Identifier: MIT\r\npragma solidity ^0.8.0;\r\n\r\nimport \"./JudokaRegistry.sol\";\r\n\r\ncontract VotingContract {\r\n    JudokaRegistry public judokaRegistry;\r\n\r\n    struct Vote {\r\n        address voter;\r\n        bool isVerified;\r\n    }\r\n\r\n    mapping(address => Vote[]) public votesForUser;\r\n    mapping(address => uint256) public receivedVotePoints;\r\n\r\n    constructor(address judokaRegistryAddress) {\r\n        judokaRegistry = JudokaRegistry(judokaRegistryAddress);\r\n    }\r\n\r\n    function voteForUser(address user, bool isVerified) public {\r\n        JudokaRegistry.Judoka memory voter = judokaRegistry.getJudoka(msg.sender);\r\n        require(voter.isRegistered, \"Voter is not registered\");\r\n\r\n        JudokaRegistry.Judoka memory targetJudoka = judokaRegistry.getJudoka(user);\r\n        require(targetJudoka.isRegistered, \"Target user is not registered\");\r\n\r\n        uint votingPower = getVotingPower(voter.promotions[voter.promotions.length - 1].beltLevel);\r\n\r\n        uint newPoints;\r\n        if (isVerified) {\r\n            newPoints = targetJudoka.points + votingPower;\r\n        } else {\r\n            newPoints = targetJudoka.points >= votingPower ? targetJudoka.points - votingPower : 0;\r\n        }\r\n\r\n        // Update the judoka registry with the new points\r\n        judokaRegistry.updateJudokaPoints(user, newPoints);\r\n\r\n        // Log the vote\r\n        votesForUser[user].push(Vote({\r\n            voter: msg.sender,\r\n            isVerified: isVerified\r\n        }));\r\n\r\n        // Update the received vote points\r\n        receivedVotePoints[user] = newPoints;\r\n    }\r\n\r\n    function getReceivedVotePoints(address user) public view returns (uint256) {\r\n        return receivedVotePoints[user];\r\n    }\r\n\r\n    function getVotesForUser(address user) public view returns (Vote[] memory) {\r\n        return votesForUser[user];\r\n    }\r\n\r\n    function getRequiredPointsForBelt(string memory _beltLevel) public pure returns (uint) {\r\n        if (keccak256(abi.encodePacked(_beltLevel)) == keccak256(abi.encodePacked(\"White\"))) return 0;\r\n        if (keccak256(abi.encodePacked(_beltLevel)) == keccak256(abi.encodePacked(\"Yellow\"))) return 100;\r\n        if (keccak256(abi.encodePacked(_beltLevel)) == keccak256(abi.encodePacked(\"Orange\"))) return 150;\r\n        if (keccak256(abi.encodePacked(_beltLevel)) == keccak256(abi.encodePacked(\"Green\"))) return 200;\r\n        if (keccak256(abi.encodePacked(_beltLevel)) == keccak256(abi.encodePacked(\"Blue\"))) return 400;\r\n        if (keccak256(abi.encodePacked(_beltLevel)) == keccak256(abi.encodePacked(\"Brown\"))) return 700;\r\n        if (keccak256(abi.encodePacked(_beltLevel)) == keccak256(abi.encodePacked(\"Black (1st Dan)\"))) return 1000;\r\n        return 0;\r\n    }\r\n\r\n    function getVotingPower(string memory _beltLevel) public pure returns (uint) {\r\n        if (keccak256(abi.encodePacked(_beltLevel)) == keccak256(abi.encodePacked(\"White\"))) return 0;\r\n        if (keccak256(abi.encodePacked(_beltLevel)) == keccak256(abi.encodePacked(\"Yellow\"))) return 5;\r\n        if (keccak256(abi.encodePacked(_beltLevel)) == keccak256(abi.encodePacked(\"Orange\"))) return 10;\r\n        if (keccak256(abi.encodePacked(_beltLevel)) == keccak256(abi.encodePacked(\"Green\"))) return 20;\r\n        if (keccak256(abi.encodePacked(_beltLevel)) == keccak256(abi.encodePacked(\"Blue\"))) return 50;\r\n        if (keccak256(abi.encodePacked(_beltLevel)) == keccak256(abi.encodePacked(\"Brown\"))) return 100;\r\n        if (keccak256(abi.encodePacked(_beltLevel)) == keccak256(abi.encodePacked(\"Black (1st Dan)\"))) return 125;\r\n        if (keccak256(abi.encodePacked(_beltLevel)) == keccak256(abi.encodePacked(\"Black (2nd Dan)\"))) return 150;\r\n        if (keccak256(abi.encodePacked(_beltLevel)) == keccak256(abi.encodePacked(\"Black (3rd Dan)\"))) return 175;\r\n        if (keccak256(abi.encodePacked(_beltLevel)) == keccak256(abi.encodePacked(\"Black (4th Dan)\"))) return 200;\r\n        if (keccak256(abi.encodePacked(_beltLevel)) == keccak256(abi.encodePacked(\"Black (5th Dan)\"))) return 225;\r\n        if (keccak256(abi.encodePacked(_beltLevel)) == keccak256(abi.encodePacked(\"Black (6th Dan)\"))) return 250;\r\n        if (keccak256(abi.encodePacked(_beltLevel)) == keccak256(abi.encodePacked(\"Black (7th Dan)\"))) return 275;\r\n        if (keccak256(abi.encodePacked(_beltLevel)) == keccak256(abi.encodePacked(\"Black (8th Dan)\"))) return 300;\r\n        if (keccak256(abi.encodePacked(_beltLevel)) == keccak256(abi.encodePacked(\"Black (9th Dan)\"))) return 325;\r\n        if (keccak256(abi.encodePacked(_beltLevel)) == keccak256(abi.encodePacked(\"Black (10th Dan)\"))) return 350;\r\n        return 0;\r\n    }\r\n}\r\n",
  "sourcePath": "C:\\Users\\marti\\Documents\\projects\\judo-chain\\contracts\\VotingContract.sol",
  "compiler": {
    "name": "solc",
    "version": "0.8.0+commit.c7dfd78e.Emscripten.clang"
  },
  "schemaVersion": "3.4.16",
  "updatedAt": "2024-07-01T12:52:53.172Z",
  "networkType": "ethereum",
  "devdoc": {
    "kind": "dev",
    "methods": {},
    "version": 1
  },
  "userdoc": {
    "kind": "user",
    "methods": {},
    "version": 1
  }
}